{
  "_format": "hh-sol-artifact-1",
  "contractName": "Secret",
  "sourceName": "contracts/Secret.sol",
  "abi": [
    {
      "inputs": [],
      "stateMutability": "nonpayable",
      "type": "constructor"
    },
    {
      "anonymous": false,
      "inputs": [
        {
          "indexed": false,
          "internalType": "uint256",
          "name": "res",
          "type": "uint256"
        },
        {
          "indexed": false,
          "internalType": "string",
          "name": "contacts",
          "type": "string"
        }
      ],
      "name": "Success",
      "type": "event"
    },
    {
      "inputs": [],
      "name": "nonce",
      "outputs": [
        {
          "internalType": "uint24",
          "name": "",
          "type": "uint24"
        }
      ],
      "stateMutability": "view",
      "type": "function"
    },
    {
      "inputs": [
        {
          "internalType": "bytes32",
          "name": "password_",
          "type": "bytes32"
        }
      ],
      "name": "secret1",
      "outputs": [],
      "stateMutability": "nonpayable",
      "type": "function"
    },
    {
      "inputs": [
        {
          "internalType": "bytes32",
          "name": "password_",
          "type": "bytes32"
        }
      ],
      "name": "secret2",
      "outputs": [],
      "stateMutability": "nonpayable",
      "type": "function"
    },
    {
      "inputs": [
        {
          "internalType": "bytes32",
          "name": "password_",
          "type": "bytes32"
        }
      ],
      "name": "secret3",
      "outputs": [],
      "stateMutability": "nonpayable",
      "type": "function"
    },
    {
      "inputs": [
        {
          "internalType": "string",
          "name": "contacts",
          "type": "string"
        },
        {
          "internalType": "bytes32",
          "name": "password1",
          "type": "bytes32"
        },
        {
          "internalType": "bytes32",
          "name": "password2",
          "type": "bytes32"
        },
        {
          "internalType": "bytes32",
          "name": "password3",
          "type": "bytes32"
        }
      ],
      "name": "submitApplication",
      "outputs": [],
      "stateMutability": "nonpayable",
      "type": "function"
    }
  ],
  "bytecode": "0x60a06040523480156200001157600080fd5b506200003d79c380755ca7f8336fb62250484a62801dd3098a9e48ece96341bb620000c860201b60201c565b6001819055507f5f668062be9682387cd8957f8339033192b55962f2280292c705e5811dd8df8a60001b60808181525050731f98431c8ad98523631ae4a59f267346ea31f9846000806101000a81548173ffffffffffffffffffffffffffffffffffffffff021916908373ffffffffffffffffffffffffffffffffffffffff16021790555062000334565b600080823373ffffffffffffffffffffffffffffffffffffffff16444542620000f291906200028f565b620000fe91906200028f565b6200010a91906200028f565b6200011691906200028f565b90506000602067ffffffffffffffff8111156200015c577f4e487b7100000000000000000000000000000000000000000000000000000000600052604160045260246000fd5b6040519080825280601f01601f1916602001820160405280156200018f5781602001600182028036833780820191505090505b50905060006001600060149054906101000a900462ffffff16620001b491906200024f565b62ffffff16905062ffffff81018384099250600160005b6005811015620001f657818504820191508160208501526020808501209150600181019050620001cb565b50806020840152506001600060148282829054906101000a900462ffffff166200022191906200024f565b92506101000a81548162ffffff021916908362ffffff16021790555081805190602001209350505050919050565b60006200025c82620002ec565b91506200026983620002ec565b92508262ffffff0382111562000284576200028362000305565b5b828201905092915050565b60006200029c82620002fb565b9150620002a983620002fb565b9250827fffffffffffffffffffffffffffffffffffffffffffffffffffffffffffffffff03821115620002e157620002e062000305565b5b828201905092915050565b600062ffffff82169050919050565b6000819050919050565b7f4e487b7100000000000000000000000000000000000000000000000000000000600052601160045260246000fd5b608051610b0662000350600039600061048d0152610b066000f3fe608060405234801561001057600080fd5b50600436106100575760003560e01c80636bc5216d1461005c5780637bbd55741461007857806396afdd85146100945780639bb8b171146100b0578063affed0e0146100cc575b600080fd5b610076600480360381019061007191906106a1565b6100ea565b005b610092600480360381019061008d91906106ca565b610284565b005b6100ae60048036038101906100a991906106a1565b610489565b005b6100ca60048036038101906100c591906106a1565b61056a565b005b6100d461062d565b6040516100e191906108c8565b60405180910390f35b60008060008054906101000a900473ffffffffffffffffffffffffffffffffffffffff16905060008060149054906101000a900462ffffff1662ffffff16905060006322afcccb60e01b610bb8604051602001610148929190610818565b60405160208183030381529060405290506000602067ffffffffffffffff81111561019c577f4e487b7100000000000000000000000000000000000000000000000000000000600052604160045260246000fd5b6040519080825280601f01601f1916602001820160405280156101ce5781602001600182028036833780820191505090505b5090506000549450602081016020816024602086016000895af15080518481880101825260208220965050508460001b861461023f576040517f08c379a0000000000000000000000000000000000000000000000000000000008152600401610236906108a8565b60405180910390fd5b6001600060148282829054906101000a900462ffffff166102609190610926565b92506101000a81548162ffffff021916908362ffffff160217905550505050505050565b60003073ffffffffffffffffffffffffffffffffffffffff16636bc5216d856040518263ffffffff1660e01b81526004016102bf9190610844565b600060405180830381600087803b1580156102d957600080fd5b505af19250505080156102ea575060015b6102f357610303565b600181610300919061095f565b90505b3073ffffffffffffffffffffffffffffffffffffffff16639bb8b171846040518263ffffffff1660e01b815260040161033c9190610844565b600060405180830381600087803b15801561035657600080fd5b505af1925050508015610367575060015b61037057610380565b60018161037d919061095f565b90505b3073ffffffffffffffffffffffffffffffffffffffff166396afdd85836040518263ffffffff1660e01b81526004016103b99190610844565b600060405180830381600087803b1580156103d357600080fd5b505af19250505080156103e4575060015b6103ed576103fd565b6001816103fa919061095f565b90505b6001811115610446577fb6462da34c0aff9a2cb2cc08f8d1f1a4ddf770fbb563e8f3b40eb6c5bb91def4818787604051610439939291906108e3565b60405180910390a1610481565b6040517f08c379a000000000000000000000000000000000000000000000000000000000815260040161047890610888565b60405180910390fd5b505050505050565b60007f0000000000000000000000000000000000000000000000000000000000000000905080600060149054906101000a900462ffffff166040516020016104d292919061085f565b604051602081830303815290604052805190602001208214610529576040517f08c379a0000000000000000000000000000000000000000000000000000000008152600401610520906108a8565b60405180910390fd5b6001600060148282829054906101000a900462ffffff1661054a9190610926565b92506101000a81548162ffffff021916908362ffffff1602179055505050565b6000600154905080600060149054906101000a900462ffffff1660405160200161059592919061085f565b6040516020818303038152906040528051906020012082146105ec576040517f08c379a00000000000000000000000000000000000000000000000000000000081526004016105e3906108a8565b60405180910390fd5b6001600060148282829054906101000a900462ffffff1661060d9190610926565b92506101000a81548162ffffff021916908362ffffff1602179055505050565b600060149054906101000a900462ffffff1681565b60008135905061065181610ab9565b92915050565b60008083601f84011261066957600080fd5b8235905067ffffffffffffffff81111561068257600080fd5b60208301915083600182028301111561069a57600080fd5b9250929050565b6000602082840312156106b357600080fd5b60006106c184828501610642565b91505092915050565b6000806000806000608086880312156106e257600080fd5b600086013567ffffffffffffffff8111156106fc57600080fd5b61070888828901610657565b9550955050602061071b88828901610642565b935050604061072c88828901610642565b925050606061073d88828901610642565b9150509295509295909350565b610753816109b5565b82525050565b61076a610765826109bf565b610a13565b82525050565b600061077c8385610915565b9350610789838584610a04565b61079283610a56565b840190509392505050565b60006107aa601083610915565b91506107b582610a67565b602082019050919050565b60006107cd600983610915565b91506107d882610a90565b602082019050919050565b6107ec816109eb565b82525050565b6107fb816109fa565b82525050565b61081261080d826109fa565b610a1d565b82525050565b60006108248285610759565b6004820191506108348284610801565b6020820191508190509392505050565b6000602082019050610859600083018461074a565b92915050565b6000604082019050610874600083018561074a565b61088160208301846107e3565b9392505050565b600060208201905081810360008301526108a18161079d565b9050919050565b600060208201905081810360008301526108c1816107c0565b9050919050565b60006020820190506108dd60008301846107e3565b92915050565b60006040820190506108f860008301866107f2565b818103602083015261090b818486610770565b9050949350505050565b600082825260208201905092915050565b6000610931826109eb565b915061093c836109eb565b92508262ffffff0382111561095457610953610a27565b5b828201905092915050565b600061096a826109fa565b9150610975836109fa565b9250827fffffffffffffffffffffffffffffffffffffffffffffffffffffffffffffffff038211156109aa576109a9610a27565b5b828201905092915050565b6000819050919050565b60007fffffffff0000000000000000000000000000000000000000000000000000000082169050919050565b600062ffffff82169050919050565b6000819050919050565b82818337600083830152505050565b6000819050919050565b6000819050919050565b7f4e487b7100000000000000000000000000000000000000000000000000000000600052601160045260246000fd5b6000601f19601f8301169050919050565b7f53636f726520697320746f6f206c6f7700000000000000000000000000000000600082015250565b7f466f7262696464656e0000000000000000000000000000000000000000000000600082015250565b610ac2816109b5565b8114610acd57600080fd5b5056fea264697066735822122038ab1d32e5a8a192ac13a9881dd7b32b7c30b18f83bb1bbecb4fdf286336ba7c64736f6c63430008040033",
  "linkReferences": {},
  "deployedLinkReferences": {}
}