{
  "_format": "hh-sol-artifact-1",
  "contractName": "Demo",
  "sourceName": "contracts/Demo.sol",
  "abi": [
    {
      "inputs": [],
      "stateMutability": "nonpayable",
      "type": "constructor"
    },
    {
      "anonymous": false,
      "inputs": [
        {
          "indexed": true,
          "internalType": "address",
          "name": "_from",
          "type": "address"
        },
        {
          "indexed": false,
          "internalType": "uint256",
          "name": "_amount",
          "type": "uint256"
        },
        {
          "indexed": false,
          "internalType": "uint256",
          "name": "_timestamp",
          "type": "uint256"
        }
      ],
      "name": "Paid",
      "type": "event"
    },
    {
      "inputs": [],
      "name": "pay",
      "outputs": [],
      "stateMutability": "payable",
      "type": "function"
    },
    {
      "inputs": [
        {
          "internalType": "address payable",
          "name": "_to",
          "type": "address"
        }
      ],
      "name": "withdraw",
      "outputs": [],
      "stateMutability": "nonpayable",
      "type": "function"
    },
    {
      "inputs": [
        {
          "internalType": "address payable",
          "name": "_to",
          "type": "address"
        }
      ],
      "name": "withdrawWithModifier",
      "outputs": [],
      "stateMutability": "nonpayable",
      "type": "function"
    },
    {
      "stateMutability": "payable",
      "type": "receive"
    }
  ],
  "bytecode": "0x608060405234801561001057600080fd5b50336000806101000a81548173ffffffffffffffffffffffffffffffffffffffff021916908373ffffffffffffffffffffffffffffffffffffffff160217905550610592806100606000396000f3fe6080604052600436106100385760003560e01c80631b9265b81461004c57806351cff8d914610056578063b4c35a161461007f57610047565b36610047576100456100a8565b005b600080fd5b6100546100a8565b005b34801561006257600080fd5b5061007d600480360381019061007891906103bf565b6100fa565b005b34801561008b57600080fd5b506100a660048036038101906100a191906103bf565b610260565b005b3373ffffffffffffffffffffffffffffffffffffffff167fdf9a51129930649214df58f542322c245372c6f2fa6fc3c9b40d927c597cd23034426040516100f092919061047d565b60405180910390a2565b60008054906101000a900473ffffffffffffffffffffffffffffffffffffffff1673ffffffffffffffffffffffffffffffffffffffff163373ffffffffffffffffffffffffffffffffffffffff1614610188576040517f08c379a000000000000000000000000000000000000000000000000000000000815260040161017f9061045d565b60405180910390fd5b60008054906101000a900473ffffffffffffffffffffffffffffffffffffffff1673ffffffffffffffffffffffffffffffffffffffff163373ffffffffffffffffffffffffffffffffffffffff1614610216576040517f08c379a000000000000000000000000000000000000000000000000000000000815260040161020d9061045d565b60405180910390fd5b8073ffffffffffffffffffffffffffffffffffffffff166108fc479081150290604051600060405180830381858888f1935050505015801561025c573d6000803e3d6000fd5b5050565b8060008054906101000a900473ffffffffffffffffffffffffffffffffffffffff1673ffffffffffffffffffffffffffffffffffffffff163373ffffffffffffffffffffffffffffffffffffffff16146102ef576040517f08c379a00000000000000000000000000000000000000000000000000000000081526004016102e69061045d565b60405180910390fd5b600073ffffffffffffffffffffffffffffffffffffffff168173ffffffffffffffffffffffffffffffffffffffff16141561035f576040517f08c379a00000000000000000000000000000000000000000000000000000000081526004016103569061043d565b60405180910390fd5b8173ffffffffffffffffffffffffffffffffffffffff166108fc479081150290604051600060405180830381858888f193505050501580156103a5573d6000803e3d6000fd5b505050565b6000813590506103b981610545565b92915050565b6000602082840312156103d157600080fd5b60006103df848285016103aa565b91505092915050565b60006103f56012836104a6565b9150610400826104f3565b602082019050919050565b60006104186014836104a6565b91506104238261051c565b602082019050919050565b610437816104e9565b82525050565b60006020820190508181036000830152610456816103e8565b9050919050565b600060208201905081810360008301526104768161040b565b9050919050565b6000604082019050610492600083018561042e565b61049f602083018461042e565b9392505050565b600082825260208201905092915050565b60006104c2826104c9565b9050919050565b600073ffffffffffffffffffffffffffffffffffffffff82169050919050565b6000819050919050565b7f696e636f72726563742061646472657373210000000000000000000000000000600082015250565b7f596f7520617265206e6f7420616e206f776e6572000000000000000000000000600082015250565b61054e816104b7565b811461055957600080fd5b5056fea264697066735822122084c3415722af9ac603a616c173155e4b6d3900b735a1578a4081e92a477dc40764736f6c63430008040033",
  "linkReferences": {},
  "deployedLinkReferences": {}
}