{
  "contractName": "HelloWorld",
  "abi": [
    {
      "inputs": [
        {
          "internalType": "string",
          "name": "userName",
          "type": "string"
        }
      ],
      "name": "setUserName",
      "outputs": [],
      "stateMutability": "nonpayable",
      "type": "function"
    },
    {
      "inputs": [],
      "name": "printMessage",
      "outputs": [
        {
          "internalType": "string",
          "name": "",
          "type": "string"
        }
      ],
      "stateMutability": "nonpayable",
      "type": "function"
    }
  ],
  "bytecode": "0x608060405234801561001057600080fd5b50610665806100206000396000f3fe608060405234801561001057600080fd5b50600436106100365760003560e01c80632b5914fe1461003b57806354f8cd2e14610057575b600080fd5b61005560048036038101906100509190610303565b610075565b005b61005f61008f565b60405161006c91906103d4565b60405180910390f35b806000908051906020019061008b929190610106565b5050565b6060806040516020016100a19061044d565b60405160208183030381529060405290508060006040516020016100c692919061059d565b6040516020818303038152906040529050806040516020016100e8919061060d565b60405160208183030381529060405290506000819050809250505090565b828054610112906104d8565b90600052602060002090601f016020900481019282610134576000855561017b565b82601f1061014d57805160ff191683800117855561017b565b8280016001018555821561017b579182015b8281111561017a57825182559160200191906001019061015f565b5b509050610188919061018c565b5090565b5b808211156101a557600081600090555060010161018d565b5090565b6000604051905090565b600080fd5b600080fd5b600080fd5b600080fd5b6000601f19601f8301169050919050565b7f4e487b7100000000000000000000000000000000000000000000000000000000600052604160045260246000fd5b610210826101c7565b810181811067ffffffffffffffff8211171561022f5761022e6101d8565b5b80604052505050565b60006102426101a9565b905061024e8282610207565b919050565b600067ffffffffffffffff82111561026e5761026d6101d8565b5b610277826101c7565b9050602081019050919050565b82818337600083830152505050565b60006102a66102a184610253565b610238565b9050828152602081018484840111156102c2576102c16101c2565b5b6102cd848285610284565b509392505050565b600082601f8301126102ea576102e96101bd565b5b81356102fa848260208601610293565b91505092915050565b600060208284031215610319576103186101b3565b5b600082013567ffffffffffffffff811115610337576103366101b8565b5b610343848285016102d5565b91505092915050565b600081519050919050565b600082825260208201905092915050565b60005b8381101561038657808201518184015260208101905061036b565b83811115610395576000848401525b50505050565b60006103a68261034c565b6103b08185610357565b93506103c0818560208601610368565b6103c9816101c7565b840191505092915050565b600060208201905081810360008301526103ee818461039b565b905092915050565b600081905092915050565b7f48656c6c6f200000000000000000000000000000000000000000000000000000600082015250565b60006104376006836103f6565b915061044282610401565b600682019050919050565b60006104588261042a565b9150819050919050565b600081519050919050565b600081905092915050565b600061048382610462565b61048d818561046d565b935061049d818560208601610368565b80840191505092915050565b7f4e487b7100000000000000000000000000000000000000000000000000000000600052602260045260246000fd5b600060028204905060018216806104f057607f821691505b602082108103610503576105026104a9565b5b50919050565b60008190508160005260206000209050919050565b6000815461052b816104d8565b61053581866103f6565b94506001821660008114610550576001811461056157610594565b60ff19831686528186019350610594565b61056a85610509565b60005b8381101561058c5781548189015260018201915060208101905061056d565b838801955050505b50505092915050565b60006105a98285610478565b91506105b5828461051e565b91508190509392505050565b7f2100000000000000000000000000000000000000000000000000000000000000600082015250565b60006105f76001836103f6565b9150610602826105c1565b600182019050919050565b60006106198284610478565b9150610624826105ea565b91508190509291505056fea2646970667358221220c5dc15851305ba11fb2b1798f09752d0fe31744237edb992ad034396caf09cca64736f6c634300080e0033",
  "immutableReferences": {},
  "source": "pragma solidity ^0.8.0;\n\ncontract HelloWorld {\n    string name;\n\n    function setUserName(string memory userName) public {\n        name = userName;\n    }\n\n    function printMessage() public returns(string memory) {\n        bytes memory concat_strings;\n        concat_strings = abi.encodePacked(\"Hello \");\n        concat_strings = abi.encodePacked(concat_strings, name);\n        concat_strings = abi.encodePacked(concat_strings, \"!\");\n        string memory message = string(concat_strings);\n\n        return message;\n\n    }\n}",
  "sourcePath": "/Users/mihail/MyFiles/Workspace/solidity-project/2/contracts/HelloWorld.sol",
  "compiler": {
    "name": "solc",
    "version": "0.8.14+commit.80d49f37.Emscripten.clang"
  },
  "schemaVersion": "3.4.7",
  "updatedAt": "2022-05-27T20:03:44.280Z",
  "networkType": "ethereum",
  "devdoc": {
    "kind": "dev",
    "methods": {},
    "version": 1
  },
  "userdoc": {
    "kind": "user",
    "methods": {},
    "version": 1
  }
}