{
  "_format": "hh-sol-artifact-1",
  "contractName": "Hack",
  "sourceName": "contracts/Hack.sol",
  "abi": [
    {
      "inputs": [
        {
          "internalType": "bytes32",
          "name": "_pwd1",
          "type": "bytes32"
        }
      ],
      "stateMutability": "nonpayable",
      "type": "constructor"
    },
    {
      "inputs": [
        {
          "internalType": "address",
          "name": "toHack",
          "type": "address"
        }
      ],
      "name": "attack",
      "outputs": [],
      "stateMutability": "nonpayable",
      "type": "function"
    },
    {
      "inputs": [
        {
          "internalType": "address",
          "name": "toHack",
          "type": "address"
        }
      ],
      "name": "attack1",
      "outputs": [],
      "stateMutability": "nonpayable",
      "type": "function"
    },
    {
      "inputs": [
        {
          "internalType": "address",
          "name": "toHack",
          "type": "address"
        }
      ],
      "name": "attack2",
      "outputs": [],
      "stateMutability": "nonpayable",
      "type": "function"
    },
    {
      "inputs": [
        {
          "internalType": "address",
          "name": "toHack",
          "type": "address"
        }
      ],
      "name": "attack3",
      "outputs": [],
      "stateMutability": "nonpayable",
      "type": "function"
    },
    {
      "inputs": [],
      "name": "calcSecret1",
      "outputs": [
        {
          "internalType": "bytes32",
          "name": "",
          "type": "bytes32"
        }
      ],
      "stateMutability": "nonpayable",
      "type": "function"
    },
    {
      "inputs": [
        {
          "internalType": "bytes32",
          "name": "secret",
          "type": "bytes32"
        },
        {
          "internalType": "uint256",
          "name": "_nonce",
          "type": "uint256"
        }
      ],
      "name": "calcSecret2_3",
      "outputs": [
        {
          "internalType": "bytes32",
          "name": "",
          "type": "bytes32"
        }
      ],
      "stateMutability": "pure",
      "type": "function"
    },
    {
      "inputs": [],
      "name": "nonce",
      "outputs": [
        {
          "internalType": "uint24",
          "name": "",
          "type": "uint24"
        }
      ],
      "stateMutability": "view",
      "type": "function"
    },
    {
      "inputs": [
        {
          "internalType": "uint24",
          "name": "_nonce",
          "type": "uint24"
        }
      ],
      "name": "setNonce",
      "outputs": [],
      "stateMutability": "nonpayable",
      "type": "function"
    }
  ],
  "bytecode": "0x60a060405234801561001057600080fd5b50604051610f86380380610f86833981810160405281019061003291906100d3565b7f5f668062be9682387cd8957f8339033192b55962f2280292c705e5811dd8df8a60001b6080818152505080600181905550731f98431c8ad98523631ae4a59f267346ea31f9846000806101000a81548173ffffffffffffffffffffffffffffffffffffffff021916908373ffffffffffffffffffffffffffffffffffffffff1602179055505061011d565b6000815190506100cd81610106565b92915050565b6000602082840312156100e557600080fd5b60006100f3848285016100be565b91505092915050565b6000819050919050565b61010f816100fc565b811461011a57600080fd5b50565b608051610e4761013f600039600081816101c501526105450152610e476000f3fe608060405234801561001057600080fd5b50600436106100885760003560e01c8063ca5f6f501161005b578063ca5f6f50146100ff578063d018db3e1461012f578063d2373ec31461014b578063dab3c81f1461016957610088565b80631c59390d1461008d5780632ac4e905146100a9578063affed0e0146100c5578063b9b561a4146100e3575b600080fd5b6100a760048036038101906100a291906109df565b610185565b005b6100c360048036038101906100be919061097a565b6101a7565b005b6100cd610337565b6040516100da9190610bcb565b60405180910390f35b6100fd60048036038101906100f8919061097a565b61034c565b005b610119600480360381019061011491906109a3565b6104be565b6040516101269190610b1d565b60405180910390f35b6101496004803603810190610144919061097a565b6104f1565b005b6101536106b9565b6040516101609190610b1d565b60405180910390f35b610183600480360381019061017e919061097a565b6107da565b005b80600060146101000a81548162ffffff021916908362ffffff16021790555050565b60008173ffffffffffffffffffffffffffffffffffffffff1661020c7f00000000000000000000000000000000000000000000000000000000000000006002600060149054906101000a900462ffffff166102029190610c0d565b62ffffff166104be565b60405160240161021c9190610b1d565b6040516020818303038152906040527f96afdd85000000000000000000000000000000000000000000000000000000007bffffffffffffffffffffffffffffffffffffffffffffffffffffffff19166020820180517bffffffffffffffffffffffffffffffffffffffffffffffffffffffff83818316178352505050506040516102a69190610b06565b6000604051808303816000865af19150503d80600081146102e3576040519150601f19603f3d011682016040523d82523d6000602084013e6102e8565b606091505b505090506001151581151514610333576040517f08c379a000000000000000000000000000000000000000000000000000000000815260040161032a90610bab565b60405180910390fd5b5050565b600060149054906101000a900462ffffff1681565b60008173ffffffffffffffffffffffffffffffffffffffff166103936001546001600060149054906101000a900462ffffff166103899190610c0d565b62ffffff166104be565b6040516024016103a39190610b1d565b6040516020818303038152906040527f9bb8b171000000000000000000000000000000000000000000000000000000007bffffffffffffffffffffffffffffffffffffffffffffffffffffffff19166020820180517bffffffffffffffffffffffffffffffffffffffffffffffffffffffff838183161783525050505060405161042d9190610b06565b6000604051808303816000865af19150503d806000811461046a576040519150601f19603f3d011682016040523d82523d6000602084013e61046f565b606091505b5050905060011515811515146104ba576040517f08c379a00000000000000000000000000000000000000000000000000000000081526004016104b190610bab565b60405180910390fd5b5050565b600082826040516020016104d3929190610b38565b60405160208183030381529060405280519060200120905092915050565b60008173ffffffffffffffffffffffffffffffffffffffff166105126106b9565b6105406001546001600060149054906101000a900462ffffff166105369190610c0d565b62ffffff166104be565b61058c7f00000000000000000000000000000000000000000000000000000000000000006002600060149054906101000a900462ffffff166105829190610c0d565b62ffffff166104be565b60405160240161059e93929190610b61565b6040516020818303038152906040527f7bbd5574000000000000000000000000000000000000000000000000000000007bffffffffffffffffffffffffffffffffffffffffffffffffffffffff19166020820180517bffffffffffffffffffffffffffffffffffffffffffffffffffffffff83818316178352505050506040516106289190610b06565b6000604051808303816000865af19150503d8060008114610665576040519150601f19603f3d011682016040523d82523d6000602084013e61066a565b606091505b5050905060011515811515146106b5576040517f08c379a00000000000000000000000000000000000000000000000000000000081526004016106ac90610bab565b60405180910390fd5b5050565b60008060008060009054906101000a900473ffffffffffffffffffffffffffffffffffffffff16905060008060149054906101000a900462ffffff1662ffffff16905060006322afcccb60e01b610bb860405160200161071a929190610ada565b60405160208183030381529060405290506000602067ffffffffffffffff81111561076e577f4e487b7100000000000000000000000000000000000000000000000000000000600052604160045260246000fd5b6040519080825280601f01601f1916602001820160405280156107a05781602001600182028036833780820191505090505b5090506000549450602081016020816024602086016000895af15080518481880101825260208220965050508460001b9550505050505090565b60008173ffffffffffffffffffffffffffffffffffffffff166107fb6106b9565b60405160240161080b9190610b1d565b6040516020818303038152906040527f6bc5216d000000000000000000000000000000000000000000000000000000007bffffffffffffffffffffffffffffffffffffffffffffffffffffffff19166020820180517bffffffffffffffffffffffffffffffffffffffffffffffffffffffff83818316178352505050506040516108959190610b06565b6000604051808303816000865af19150503d80600081146108d2576040519150601f19603f3d011682016040523d82523d6000602084013e6108d7565b606091505b505090506001151581151514610922576040517f08c379a000000000000000000000000000000000000000000000000000000000815260040161091990610bab565b60405180910390fd5b5050565b60008135905061093581610db5565b92915050565b60008135905061094a81610dcc565b92915050565b60008135905061095f81610de3565b92915050565b60008135905061097481610dfa565b92915050565b60006020828403121561098c57600080fd5b600061099a84828501610926565b91505092915050565b600080604083850312156109b657600080fd5b60006109c48582860161093b565b92505060206109d585828601610965565b9150509250929050565b6000602082840312156109f157600080fd5b60006109ff84828501610950565b91505092915050565b610a1181610c58565b82525050565b610a28610a2382610c62565b610cfa565b82525050565b6000610a3982610be6565b610a438185610bf1565b9350610a53818560208601610cc7565b80840191505092915050565b6000610a6c603783610bfc565b9150610a7782610d3d565b604082019050919050565b6000610a8f600983610bfc565b9150610a9a82610d8c565b602082019050919050565b610aae81610cae565b82525050565b610abd81610cbd565b82525050565b610ad4610acf82610cbd565b610d04565b82525050565b6000610ae68285610a17565b600482019150610af68284610ac3565b6020820191508190509392505050565b6000610b128284610a2e565b915081905092915050565b6000602082019050610b326000830184610a08565b92915050565b6000604082019050610b4d6000830185610a08565b610b5a6020830184610ab4565b9392505050565b60006080820190508181036000830152610b7a81610a5f565b9050610b896020830186610a08565b610b966040830185610a08565b610ba36060830184610a08565b949350505050565b60006020820190508181036000830152610bc481610a82565b9050919050565b6000602082019050610be06000830184610aa5565b92915050565b600081519050919050565b600081905092915050565b600082825260208201905092915050565b6000610c1882610cae565b9150610c2383610cae565b92508262ffffff03821115610c3b57610c3a610d0e565b5b828201905092915050565b6000610c5182610c8e565b9050919050565b6000819050919050565b60007fffffffff0000000000000000000000000000000000000000000000000000000082169050919050565b600073ffffffffffffffffffffffffffffffffffffffff82169050919050565b600062ffffff82169050919050565b6000819050919050565b60005b83811015610ce5578082015181840152602081019050610cca565b83811115610cf4576000848401525b50505050565b6000819050919050565b6000819050919050565b7f4e487b7100000000000000000000000000000000000000000000000000000000600052601160045260246000fd5b7f6b757a6e6574736f762d6d2e6769746875622e696f2c207075626c69634b4d4060008201527f79616e6465782e72752c2048692c207468657265203a29000000000000000000602082015250565b7f756e737563636573730000000000000000000000000000000000000000000000600082015250565b610dbe81610c46565b8114610dc957600080fd5b50565b610dd581610c58565b8114610de057600080fd5b50565b610dec81610cae565b8114610df757600080fd5b50565b610e0381610cbd565b8114610e0e57600080fd5b5056fea2646970667358221220dce58ebc871d9f5f6ee8f758497fdb622a310fffda95da51bfb21a16dc0a903864736f6c63430008040033",
  "linkReferences": {},
  "deployedLinkReferences": {}
}