{
  "_format": "hh-sol-artifact-1",
  "contractName": "Demo",
  "sourceName": "contracts/Demo.sol",
  "abi": [
    {
      "inputs": [],
      "name": "callme",
      "outputs": [
        {
          "internalType": "address",
          "name": "",
          "type": "address"
        }
      ],
      "stateMutability": "view",
      "type": "function"
    },
    {
      "inputs": [
        {
          "internalType": "address[]",
          "name": "_addrs",
          "type": "address[]"
        }
      ],
      "name": "distribute",
      "outputs": [],
      "stateMutability": "nonpayable",
      "type": "function"
    },
    {
      "inputs": [],
      "name": "message",
      "outputs": [
        {
          "internalType": "string",
          "name": "",
          "type": "string"
        }
      ],
      "stateMutability": "view",
      "type": "function"
    },
    {
      "inputs": [
        {
          "internalType": "string",
          "name": "_message",
          "type": "string"
        }
      ],
      "name": "pay",
      "outputs": [],
      "stateMutability": "payable",
      "type": "function"
    }
  ],
  "bytecode": "0x608060405234801561001057600080fd5b506107c4806100206000396000f3fe60806040526004361061003f5760003560e01c80632b66d72e146100445780636138889b14610060578063a3c8e39314610089578063e21f37ce146100b4575b600080fd5b61005e60048036038101906100599190610378565b6100df565b005b34801561006c57600080fd5b506100876004803603810190610082919061041b565b6100f5565b005b34801561009557600080fd5b5061009e6101d0565b6040516100ab91906104a9565b60405180910390f35b3480156100c057600080fd5b506100c96101d8565b6040516100d6919061055d565b60405180910390f35b8181600091906100f0929190610266565b505050565b60008282905090506000814761010b91906105e7565b905060005b828110156101c957600085858381811061012d5761012c610618565b5b90506020020160208101906101429190610673565b73ffffffffffffffffffffffffffffffffffffffff1683604051610165906106d1565b60006040518083038185875af1925050503d80600081146101a2576040519150601f19603f3d011682016040523d82523d6000602084013e6101a7565b606091505b50509050806101b557600080fd5b5080806101c1906106e6565b915050610110565b5050505050565b600033905090565b600080546101e59061075d565b80601f01602080910402602001604051908101604052809291908181526020018280546102119061075d565b801561025e5780601f106102335761010080835404028352916020019161025e565b820191906000526020600020905b81548152906001019060200180831161024157829003601f168201915b505050505081565b8280546102729061075d565b90600052602060002090601f01602090048101928261029457600085556102db565b82601f106102ad57803560ff19168380011785556102db565b828001600101855582156102db579182015b828111156102da5782358255916020019190600101906102bf565b5b5090506102e891906102ec565b5090565b5b808211156103055760008160009055506001016102ed565b5090565b600080fd5b600080fd5b600080fd5b600080fd5b600080fd5b60008083601f84011261033857610337610313565b5b8235905067ffffffffffffffff81111561035557610354610318565b5b6020830191508360018202830111156103715761037061031d565b5b9250929050565b6000806020838503121561038f5761038e610309565b5b600083013567ffffffffffffffff8111156103ad576103ac61030e565b5b6103b985828601610322565b92509250509250929050565b60008083601f8401126103db576103da610313565b5b8235905067ffffffffffffffff8111156103f8576103f7610318565b5b6020830191508360208202830111156104145761041361031d565b5b9250929050565b6000806020838503121561043257610431610309565b5b600083013567ffffffffffffffff8111156104505761044f61030e565b5b61045c858286016103c5565b92509250509250929050565b600073ffffffffffffffffffffffffffffffffffffffff82169050919050565b600061049382610468565b9050919050565b6104a381610488565b82525050565b60006020820190506104be600083018461049a565b92915050565b600081519050919050565b600082825260208201905092915050565b60005b838110156104fe5780820151818401526020810190506104e3565b8381111561050d576000848401525b50505050565b6000601f19601f8301169050919050565b600061052f826104c4565b61053981856104cf565b93506105498185602086016104e0565b61055281610513565b840191505092915050565b600060208201905081810360008301526105778184610524565b905092915050565b6000819050919050565b7f4e487b7100000000000000000000000000000000000000000000000000000000600052601260045260246000fd5b7f4e487b7100000000000000000000000000000000000000000000000000000000600052601160045260246000fd5b60006105f28261057f565b91506105fd8361057f565b92508261060d5761060c610589565b5b828204905092915050565b7f4e487b7100000000000000000000000000000000000000000000000000000000600052603260045260246000fd5b61065081610488565b811461065b57600080fd5b50565b60008135905061066d81610647565b92915050565b60006020828403121561068957610688610309565b5b60006106978482850161065e565b91505092915050565b600081905092915050565b50565b60006106bb6000836106a0565b91506106c6826106ab565b600082019050919050565b60006106dc826106ae565b9150819050919050565b60006106f18261057f565b91507fffffffffffffffffffffffffffffffffffffffffffffffffffffffffffffffff8203610723576107226105b8565b5b600182019050919050565b7f4e487b7100000000000000000000000000000000000000000000000000000000600052602260045260246000fd5b6000600282049050600182168061077557607f821691505b6020821081036107885761078761072e565b5b5091905056fea2646970667358221220de98947681fe4f8d68d5d6334224e3308569be6a89b2a886b017fb087af0413164736f6c634300080d0033",
  "linkReferences": {},
  "deployedLinkReferences": {}
}