{
  "contracts/DutchAuction.sol": {
    "DutchAuction": {
      "abi": [
        {
          "inputs": [
            {
              "internalType": "uint256",
              "name": "_startingPrice",
              "type": "uint256"
            },
            {
              "internalType": "uint256",
              "name": "_discountRate",
              "type": "uint256"
            },
            {
              "internalType": "string",
              "name": "_item",
              "type": "string"
            }
          ],
          "stateMutability": "nonpayable",
          "type": "constructor"
        },
        {
          "anonymous": false,
          "inputs": [
            {
              "indexed": false,
              "internalType": "uint256",
              "name": "price",
              "type": "uint256"
            },
            {
              "indexed": false,
              "internalType": "address",
              "name": "buyer",
              "type": "address"
            }
          ],
          "name": "Bought",
          "type": "event"
        },
        {
          "inputs": [],
          "name": "buy",
          "outputs": [],
          "stateMutability": "payable",
          "type": "function"
        },
        {
          "inputs": [],
          "name": "discountRate",
          "outputs": [
            {
              "internalType": "uint256",
              "name": "",
              "type": "uint256"
            }
          ],
          "stateMutability": "view",
          "type": "function"
        },
        {
          "inputs": [],
          "name": "endsAt",
          "outputs": [
            {
              "internalType": "uint256",
              "name": "",
              "type": "uint256"
            }
          ],
          "stateMutability": "view",
          "type": "function"
        },
        {
          "inputs": [],
          "name": "getPrice",
          "outputs": [
            {
              "internalType": "uint256",
              "name": "",
              "type": "uint256"
            }
          ],
          "stateMutability": "view",
          "type": "function"
        },
        {
          "inputs": [],
          "name": "item",
          "outputs": [
            {
              "internalType": "string",
              "name": "",
              "type": "string"
            }
          ],
          "stateMutability": "view",
          "type": "function"
        },
        {
          "inputs": [],
          "name": "nextBlock",
          "outputs": [],
          "stateMutability": "nonpayable",
          "type": "function"
        },
        {
          "inputs": [],
          "name": "seller",
          "outputs": [
            {
              "internalType": "address payable",
              "name": "",
              "type": "address"
            }
          ],
          "stateMutability": "view",
          "type": "function"
        },
        {
          "inputs": [],
          "name": "startAt",
          "outputs": [
            {
              "internalType": "uint256",
              "name": "",
              "type": "uint256"
            }
          ],
          "stateMutability": "view",
          "type": "function"
        },
        {
          "inputs": [],
          "name": "startingPrice",
          "outputs": [
            {
              "internalType": "uint256",
              "name": "",
              "type": "uint256"
            }
          ],
          "stateMutability": "view",
          "type": "function"
        },
        {
          "inputs": [],
          "name": "stopped",
          "outputs": [
            {
              "internalType": "bool",
              "name": "",
              "type": "bool"
            }
          ],
          "stateMutability": "view",
          "type": "function"
        }
      ],
      "evm": {
        "bytecode": {
          "linkReferences": {},
          "object": "6101206040523480156200001257600080fd5b50604051620011213803806200112183398181016040528101906200003891906200039d565b6202a3008262000049919062000447565b8310156200008e576040517f08c379a0000000000000000000000000000000000000000000000000000000008152600401620000859062000509565b60405180910390fd5b3373ffffffffffffffffffffffffffffffffffffffff1660808173ffffffffffffffffffffffffffffffffffffffff16815250508260a081815250508161010081815250504260c081815250506202a30042620000ec91906200052b565b60e0818152505080600090805190602001906200010b92919062000115565b50505050620005ec565b8280546200012390620005b7565b90600052602060002090601f01602090048101928262000147576000855562000193565b82601f106200016257805160ff191683800117855562000193565b8280016001018555821562000193579182015b828111156200019257825182559160200191906001019062000175565b5b509050620001a29190620001a6565b5090565b5b80821115620001c1576000816000905550600101620001a7565b5090565b6000604051905090565b600080fd5b600080fd5b6000819050919050565b620001ee81620001d9565b8114620001fa57600080fd5b50565b6000815190506200020e81620001e3565b92915050565b600080fd5b600080fd5b6000601f19601f8301169050919050565b7f4e487b7100000000000000000000000000000000000000000000000000000000600052604160045260246000fd5b62000269826200021e565b810181811067ffffffffffffffff821117156200028b576200028a6200022f565b5b80604052505050565b6000620002a0620001c5565b9050620002ae82826200025e565b919050565b600067ffffffffffffffff821115620002d157620002d06200022f565b5b620002dc826200021e565b9050602081019050919050565b60005b8381101562000309578082015181840152602081019050620002ec565b8381111562000319576000848401525b50505050565b6000620003366200033084620002b3565b62000294565b90508281526020810184848401111562000355576200035462000219565b5b62000362848285620002e9565b509392505050565b600082601f83011262000382576200038162000214565b5b8151620003948482602086016200031f565b91505092915050565b600080600060608486031215620003b957620003b8620001cf565b5b6000620003c986828701620001fd565b9350506020620003dc86828701620001fd565b925050604084015167ffffffffffffffff8111156200040057620003ff620001d4565b5b6200040e868287016200036a565b9150509250925092565b7f4e487b7100000000000000000000000000000000000000000000000000000000600052601160045260246000fd5b60006200045482620001d9565b91506200046183620001d9565b9250817fffffffffffffffffffffffffffffffffffffffffffffffffffffffffffffffff04831182151516156200049d576200049c62000418565b5b828202905092915050565b600082825260208201905092915050565b7f707269636520746f6f206c6f7721000000000000000000000000000000000000600082015250565b6000620004f1600e83620004a8565b9150620004fe82620004b9565b602082019050919050565b600060208201905081810360008301526200052481620004e2565b9050919050565b60006200053882620001d9565b91506200054583620001d9565b9250827fffffffffffffffffffffffffffffffffffffffffffffffffffffffffffffffff038211156200057d576200057c62000418565b5b828201905092915050565b7f4e487b7100000000000000000000000000000000000000000000000000000000600052602260045260246000fd5b60006002820490506001821680620005d057607f821691505b602082108103620005e657620005e562000588565b5b50919050565b60805160a05160c05160e05161010051610acd62000654600039600081816102f301526105bb01526000818161023501526103a30152600081816102c20152610573015260008181610321015261059701526000818161021101526104b50152610acd6000f3fe6080604052600436106100915760003560e01c8063a6f2ae3a11610059578063a6f2ae3a14610159578063c744656514610163578063d6fbf2021461018e578063e6c0e6d5146101b9578063f2a4a82e146101e457610091565b806308551a53146100965780630a09284a146100c157806375f12b21146100ec57806383788fce1461011757806398d5fdca1461012e575b600080fd5b3480156100a257600080fd5b506100ab61020f565b6040516100b891906106ac565b60405180910390f35b3480156100cd57600080fd5b506100d6610233565b6040516100e391906106e0565b60405180910390f35b3480156100f857600080fd5b50610101610257565b60405161010e9190610716565b60405180910390f35b34801561012357600080fd5b5061012c61026a565b005b34801561013a57600080fd5b5061014361026c565b60405161015091906106e0565b60405180910390f35b610161610351565b005b34801561016f57600080fd5b50610178610571565b60405161018591906106e0565b60405180910390f35b34801561019a57600080fd5b506101a3610595565b6040516101b091906106e0565b60405180910390f35b3480156101c557600080fd5b506101ce6105b9565b6040516101db91906106e0565b60405180910390f35b3480156101f057600080fd5b506101f96105dd565b60405161020691906107ca565b60405180910390f35b7f000000000000000000000000000000000000000000000000000000000000000081565b7f000000000000000000000000000000000000000000000000000000000000000081565b600160009054906101000a900460ff1681565b565b6000600160009054906101000a900460ff16156102be576040517f08c379a00000000000000000000000000000000000000000000000000000000081526004016102b590610838565b60405180910390fd5b60007f0000000000000000000000000000000000000000000000000000000000000000426102ec9190610887565b90506000817f000000000000000000000000000000000000000000000000000000000000000061031c91906108bb565b9050807f000000000000000000000000000000000000000000000000000000000000000061034a9190610887565b9250505090565b600160009054906101000a900460ff16156103a1576040517f08c379a000000000000000000000000000000000000000000000000000000000815260040161039890610838565b60405180910390fd5b7f00000000000000000000000000000000000000000000000000000000000000004210610403576040517f08c379a00000000000000000000000000000000000000000000000000000000081526004016103fa90610961565b60405180910390fd5b600061040d61026c565b905080341015610452576040517f08c379a0000000000000000000000000000000000000000000000000000000008152600401610449906109cd565b60405180910390fd5b600081346104609190610887565b905060008111156104b3573373ffffffffffffffffffffffffffffffffffffffff166108fc829081150290604051600060405180830381858888f193505050501580156104b1573d6000803e3d6000fd5b505b7f000000000000000000000000000000000000000000000000000000000000000073ffffffffffffffffffffffffffffffffffffffff166108fc479081150290604051600060405180830381858888f19350505050158015610519573d6000803e3d6000fd5b5060018060006101000a81548160ff0219169083151502179055507fc54c8cc1c7525b424ec71b685c00d9355581a280488018c22005332ceb2fd4068233604051610565929190610a0e565b60405180910390a15050565b7f000000000000000000000000000000000000000000000000000000000000000081565b7f000000000000000000000000000000000000000000000000000000000000000081565b7f000000000000000000000000000000000000000000000000000000000000000081565b600080546105ea90610a66565b80601f016020809104026020016040519081016040528092919081815260200182805461061690610a66565b80156106635780601f1061063857610100808354040283529160200191610663565b820191906000526020600020905b81548152906001019060200180831161064657829003601f168201915b505050505081565b600073ffffffffffffffffffffffffffffffffffffffff82169050919050565b60006106968261066b565b9050919050565b6106a68161068b565b82525050565b60006020820190506106c1600083018461069d565b92915050565b6000819050919050565b6106da816106c7565b82525050565b60006020820190506106f560008301846106d1565b92915050565b60008115159050919050565b610710816106fb565b82525050565b600060208201905061072b6000830184610707565b92915050565b600081519050919050565b600082825260208201905092915050565b60005b8381101561076b578082015181840152602081019050610750565b8381111561077a576000848401525b50505050565b6000601f19601f8301169050919050565b600061079c82610731565b6107a6818561073c565b93506107b681856020860161074d565b6107bf81610780565b840191505092915050565b600060208201905081810360008301526107e48184610791565b905092915050565b7f68617320616c72656164792073746f7070656421000000000000000000000000600082015250565b600061082260148361073c565b915061082d826107ec565b602082019050919050565b6000602082019050818103600083015261085181610815565b9050919050565b7f4e487b7100000000000000000000000000000000000000000000000000000000600052601160045260246000fd5b6000610892826106c7565b915061089d836106c7565b9250828210156108b0576108af610858565b5b828203905092915050565b60006108c6826106c7565b91506108d1836106c7565b9250817fffffffffffffffffffffffffffffffffffffffffffffffffffffffffffffffff048311821515161561090a57610909610858565b5b828202905092915050565b7f746f6f206c617465210000000000000000000000000000000000000000000000600082015250565b600061094b60098361073c565b915061095682610915565b602082019050919050565b6000602082019050818103600083015261097a8161093e565b9050919050565b7f746f6f206c6f7721000000000000000000000000000000000000000000000000600082015250565b60006109b760088361073c565b91506109c282610981565b602082019050919050565b600060208201905081810360008301526109e6816109aa565b9050919050565b60006109f88261066b565b9050919050565b610a08816109ed565b82525050565b6000604082019050610a2360008301856106d1565b610a3060208301846109ff565b9392505050565b7f4e487b7100000000000000000000000000000000000000000000000000000000600052602260045260246000fd5b60006002820490506001821680610a7e57607f821691505b602082108103610a9157610a90610a37565b5b5091905056fea2646970667358221220cabb491dae689aeab2726b983ab4128e1b05e7ad34378507fc26ea8a570268f064736f6c634300080d0033",
          "opcodes": "PUSH2 0x120 PUSH1 0x40 MSTORE CALLVALUE DUP1 ISZERO PUSH3 0x12 JUMPI PUSH1 0x0 DUP1 REVERT JUMPDEST POP PUSH1 0x40 MLOAD PUSH3 0x1121 CODESIZE SUB DUP1 PUSH3 0x1121 DUP4 CODECOPY DUP2 DUP2 ADD PUSH1 0x40 MSTORE DUP2 ADD SWAP1 PUSH3 0x38 SWAP2 SWAP1 PUSH3 0x39D JUMP JUMPDEST PUSH3 0x2A300 DUP3 PUSH3 0x49 SWAP2 SWAP1 PUSH3 0x447 JUMP JUMPDEST DUP4 LT ISZERO PUSH3 0x8E JUMPI PUSH1 0x40 MLOAD PUSH32 0x8C379A000000000000000000000000000000000000000000000000000000000 DUP2 MSTORE PUSH1 0x4 ADD PUSH3 0x85 SWAP1 PUSH3 0x509 JUMP JUMPDEST PUSH1 0x40 MLOAD DUP1 SWAP2 SUB SWAP1 REVERT JUMPDEST CALLER PUSH20 0xFFFFFFFFFFFFFFFFFFFFFFFFFFFFFFFFFFFFFFFF AND PUSH1 0x80 DUP2 PUSH20 0xFFFFFFFFFFFFFFFFFFFFFFFFFFFFFFFFFFFFFFFF AND DUP2 MSTORE POP POP DUP3 PUSH1 0xA0 DUP2 DUP2 MSTORE POP POP DUP2 PUSH2 0x100 DUP2 DUP2 MSTORE POP POP TIMESTAMP PUSH1 0xC0 DUP2 DUP2 MSTORE POP POP PUSH3 0x2A300 TIMESTAMP PUSH3 0xEC SWAP2 SWAP1 PUSH3 0x52B JUMP JUMPDEST PUSH1 0xE0 DUP2 DUP2 MSTORE POP POP DUP1 PUSH1 0x0 SWAP1 DUP1 MLOAD SWAP1 PUSH1 0x20 ADD SWAP1 PUSH3 0x10B SWAP3 SWAP2 SWAP1 PUSH3 0x115 JUMP JUMPDEST POP POP POP POP PUSH3 0x5EC JUMP JUMPDEST DUP3 DUP1 SLOAD PUSH3 0x123 SWAP1 PUSH3 0x5B7 JUMP JUMPDEST SWAP1 PUSH1 0x0 MSTORE PUSH1 0x20 PUSH1 0x0 KECCAK256 SWAP1 PUSH1 0x1F ADD PUSH1 0x20 SWAP1 DIV DUP2 ADD SWAP3 DUP3 PUSH3 0x147 JUMPI PUSH1 0x0 DUP6 SSTORE PUSH3 0x193 JUMP JUMPDEST DUP3 PUSH1 0x1F LT PUSH3 0x162 JUMPI DUP1 MLOAD PUSH1 0xFF NOT AND DUP4 DUP1 ADD OR DUP6 SSTORE PUSH3 0x193 JUMP JUMPDEST DUP3 DUP1 ADD PUSH1 0x1 ADD DUP6 SSTORE DUP3 ISZERO PUSH3 0x193 JUMPI SWAP2 DUP3 ADD JUMPDEST DUP3 DUP2 GT ISZERO PUSH3 0x192 JUMPI DUP3 MLOAD DUP3 SSTORE SWAP2 PUSH1 0x20 ADD SWAP2 SWAP1 PUSH1 0x1 ADD SWAP1 PUSH3 0x175 JUMP JUMPDEST JUMPDEST POP SWAP1 POP PUSH3 0x1A2 SWAP2 SWAP1 PUSH3 0x1A6 JUMP JUMPDEST POP SWAP1 JUMP JUMPDEST JUMPDEST DUP1 DUP3 GT ISZERO PUSH3 0x1C1 JUMPI PUSH1 0x0 DUP2 PUSH1 0x0 SWAP1 SSTORE POP PUSH1 0x1 ADD PUSH3 0x1A7 JUMP JUMPDEST POP SWAP1 JUMP JUMPDEST PUSH1 0x0 PUSH1 0x40 MLOAD SWAP1 POP SWAP1 JUMP JUMPDEST PUSH1 0x0 DUP1 REVERT JUMPDEST PUSH1 0x0 DUP1 REVERT JUMPDEST PUSH1 0x0 DUP2 SWAP1 POP SWAP2 SWAP1 POP JUMP JUMPDEST PUSH3 0x1EE DUP2 PUSH3 0x1D9 JUMP JUMPDEST DUP2 EQ PUSH3 0x1FA JUMPI PUSH1 0x0 DUP1 REVERT JUMPDEST POP JUMP JUMPDEST PUSH1 0x0 DUP2 MLOAD SWAP1 POP PUSH3 0x20E DUP2 PUSH3 0x1E3 JUMP JUMPDEST SWAP3 SWAP2 POP POP JUMP JUMPDEST PUSH1 0x0 DUP1 REVERT JUMPDEST PUSH1 0x0 DUP1 REVERT JUMPDEST PUSH1 0x0 PUSH1 0x1F NOT PUSH1 0x1F DUP4 ADD AND SWAP1 POP SWAP2 SWAP1 POP JUMP JUMPDEST PUSH32 0x4E487B7100000000000000000000000000000000000000000000000000000000 PUSH1 0x0 MSTORE PUSH1 0x41 PUSH1 0x4 MSTORE PUSH1 0x24 PUSH1 0x0 REVERT JUMPDEST PUSH3 0x269 DUP3 PUSH3 0x21E JUMP JUMPDEST DUP2 ADD DUP2 DUP2 LT PUSH8 0xFFFFFFFFFFFFFFFF DUP3 GT OR ISZERO PUSH3 0x28B JUMPI PUSH3 0x28A PUSH3 0x22F JUMP JUMPDEST JUMPDEST DUP1 PUSH1 0x40 MSTORE POP POP POP JUMP JUMPDEST PUSH1 0x0 PUSH3 0x2A0 PUSH3 0x1C5 JUMP JUMPDEST SWAP1 POP PUSH3 0x2AE DUP3 DUP3 PUSH3 0x25E JUMP JUMPDEST SWAP2 SWAP1 POP JUMP JUMPDEST PUSH1 0x0 PUSH8 0xFFFFFFFFFFFFFFFF DUP3 GT ISZERO PUSH3 0x2D1 JUMPI PUSH3 0x2D0 PUSH3 0x22F JUMP JUMPDEST JUMPDEST PUSH3 0x2DC DUP3 PUSH3 0x21E JUMP JUMPDEST SWAP1 POP PUSH1 0x20 DUP2 ADD SWAP1 POP SWAP2 SWAP1 POP JUMP JUMPDEST PUSH1 0x0 JUMPDEST DUP4 DUP2 LT ISZERO PUSH3 0x309 JUMPI DUP1 DUP3 ADD MLOAD DUP2 DUP5 ADD MSTORE PUSH1 0x20 DUP2 ADD SWAP1 POP PUSH3 0x2EC JUMP JUMPDEST DUP4 DUP2 GT ISZERO PUSH3 0x319 JUMPI PUSH1 0x0 DUP5 DUP5 ADD MSTORE JUMPDEST POP POP POP POP JUMP JUMPDEST PUSH1 0x0 PUSH3 0x336 PUSH3 0x330 DUP5 PUSH3 0x2B3 JUMP JUMPDEST PUSH3 0x294 JUMP JUMPDEST SWAP1 POP DUP3 DUP2 MSTORE PUSH1 0x20 DUP2 ADD DUP5 DUP5 DUP5 ADD GT ISZERO PUSH3 0x355 JUMPI PUSH3 0x354 PUSH3 0x219 JUMP JUMPDEST JUMPDEST PUSH3 0x362 DUP5 DUP3 DUP6 PUSH3 0x2E9 JUMP JUMPDEST POP SWAP4 SWAP3 POP POP POP JUMP JUMPDEST PUSH1 0x0 DUP3 PUSH1 0x1F DUP4 ADD SLT PUSH3 0x382 JUMPI PUSH3 0x381 PUSH3 0x214 JUMP JUMPDEST JUMPDEST DUP2 MLOAD PUSH3 0x394 DUP5 DUP3 PUSH1 0x20 DUP7 ADD PUSH3 0x31F JUMP JUMPDEST SWAP2 POP POP SWAP3 SWAP2 POP POP JUMP JUMPDEST PUSH1 0x0 DUP1 PUSH1 0x0 PUSH1 0x60 DUP5 DUP7 SUB SLT ISZERO PUSH3 0x3B9 JUMPI PUSH3 0x3B8 PUSH3 0x1CF JUMP JUMPDEST JUMPDEST PUSH1 0x0 PUSH3 0x3C9 DUP7 DUP3 DUP8 ADD PUSH3 0x1FD JUMP JUMPDEST SWAP4 POP POP PUSH1 0x20 PUSH3 0x3DC DUP7 DUP3 DUP8 ADD PUSH3 0x1FD JUMP JUMPDEST SWAP3 POP POP PUSH1 0x40 DUP5 ADD MLOAD PUSH8 0xFFFFFFFFFFFFFFFF DUP2 GT ISZERO PUSH3 0x400 JUMPI PUSH3 0x3FF PUSH3 0x1D4 JUMP JUMPDEST JUMPDEST PUSH3 0x40E DUP7 DUP3 DUP8 ADD PUSH3 0x36A JUMP JUMPDEST SWAP2 POP POP SWAP3 POP SWAP3 POP SWAP3 JUMP JUMPDEST PUSH32 0x4E487B7100000000000000000000000000000000000000000000000000000000 PUSH1 0x0 MSTORE PUSH1 0x11 PUSH1 0x4 MSTORE PUSH1 0x24 PUSH1 0x0 REVERT JUMPDEST PUSH1 0x0 PUSH3 0x454 DUP3 PUSH3 0x1D9 JUMP JUMPDEST SWAP2 POP PUSH3 0x461 DUP4 PUSH3 0x1D9 JUMP JUMPDEST SWAP3 POP DUP2 PUSH32 0xFFFFFFFFFFFFFFFFFFFFFFFFFFFFFFFFFFFFFFFFFFFFFFFFFFFFFFFFFFFFFFFF DIV DUP4 GT DUP3 ISZERO ISZERO AND ISZERO PUSH3 0x49D JUMPI PUSH3 0x49C PUSH3 0x418 JUMP JUMPDEST JUMPDEST DUP3 DUP3 MUL SWAP1 POP SWAP3 SWAP2 POP POP JUMP JUMPDEST PUSH1 0x0 DUP3 DUP3 MSTORE PUSH1 0x20 DUP3 ADD SWAP1 POP SWAP3 SWAP2 POP POP JUMP JUMPDEST PUSH32 0x707269636520746F6F206C6F7721000000000000000000000000000000000000 PUSH1 0x0 DUP3 ADD MSTORE POP JUMP JUMPDEST PUSH1 0x0 PUSH3 0x4F1 PUSH1 0xE DUP4 PUSH3 0x4A8 JUMP JUMPDEST SWAP2 POP PUSH3 0x4FE DUP3 PUSH3 0x4B9 JUMP JUMPDEST PUSH1 0x20 DUP3 ADD SWAP1 POP SWAP2 SWAP1 POP JUMP JUMPDEST PUSH1 0x0 PUSH1 0x20 DUP3 ADD SWAP1 POP DUP2 DUP2 SUB PUSH1 0x0 DUP4 ADD MSTORE PUSH3 0x524 DUP2 PUSH3 0x4E2 JUMP JUMPDEST SWAP1 POP SWAP2 SWAP1 POP JUMP JUMPDEST PUSH1 0x0 PUSH3 0x538 DUP3 PUSH3 0x1D9 JUMP JUMPDEST SWAP2 POP PUSH3 0x545 DUP4 PUSH3 0x1D9 JUMP JUMPDEST SWAP3 POP DUP3 PUSH32 0xFFFFFFFFFFFFFFFFFFFFFFFFFFFFFFFFFFFFFFFFFFFFFFFFFFFFFFFFFFFFFFFF SUB DUP3 GT ISZERO PUSH3 0x57D JUMPI PUSH3 0x57C PUSH3 0x418 JUMP JUMPDEST JUMPDEST DUP3 DUP3 ADD SWAP1 POP SWAP3 SWAP2 POP POP JUMP JUMPDEST PUSH32 0x4E487B7100000000000000000000000000000000000000000000000000000000 PUSH1 0x0 MSTORE PUSH1 0x22 PUSH1 0x4 MSTORE PUSH1 0x24 PUSH1 0x0 REVERT JUMPDEST PUSH1 0x0 PUSH1 0x2 DUP3 DIV SWAP1 POP PUSH1 0x1 DUP3 AND DUP1 PUSH3 0x5D0 JUMPI PUSH1 0x7F DUP3 AND SWAP2 POP JUMPDEST PUSH1 0x20 DUP3 LT DUP2 SUB PUSH3 0x5E6 JUMPI PUSH3 0x5E5 PUSH3 0x588 JUMP JUMPDEST JUMPDEST POP SWAP2 SWAP1 POP JUMP JUMPDEST PUSH1 0x80 MLOAD PUSH1 0xA0 MLOAD PUSH1 0xC0 MLOAD PUSH1 0xE0 MLOAD PUSH2 0x100 MLOAD PUSH2 0xACD PUSH3 0x654 PUSH1 0x0 CODECOPY PUSH1 0x0 DUP2 DUP2 PUSH2 0x2F3 ADD MSTORE PUSH2 0x5BB ADD MSTORE PUSH1 0x0 DUP2 DUP2 PUSH2 0x235 ADD MSTORE PUSH2 0x3A3 ADD MSTORE PUSH1 0x0 DUP2 DUP2 PUSH2 0x2C2 ADD MSTORE PUSH2 0x573 ADD MSTORE PUSH1 0x0 DUP2 DUP2 PUSH2 0x321 ADD MSTORE PUSH2 0x597 ADD MSTORE PUSH1 0x0 DUP2 DUP2 PUSH2 0x211 ADD MSTORE PUSH2 0x4B5 ADD MSTORE PUSH2 0xACD PUSH1 0x0 RETURN INVALID PUSH1 0x80 PUSH1 0x40 MSTORE PUSH1 0x4 CALLDATASIZE LT PUSH2 0x91 JUMPI PUSH1 0x0 CALLDATALOAD PUSH1 0xE0 SHR DUP1 PUSH4 0xA6F2AE3A GT PUSH2 0x59 JUMPI DUP1 PUSH4 0xA6F2AE3A EQ PUSH2 0x159 JUMPI DUP1 PUSH4 0xC7446565 EQ PUSH2 0x163 JUMPI DUP1 PUSH4 0xD6FBF202 EQ PUSH2 0x18E JUMPI DUP1 PUSH4 0xE6C0E6D5 EQ PUSH2 0x1B9 JUMPI DUP1 PUSH4 0xF2A4A82E EQ PUSH2 0x1E4 JUMPI PUSH2 0x91 JUMP JUMPDEST DUP1 PUSH4 0x8551A53 EQ PUSH2 0x96 JUMPI DUP1 PUSH4 0xA09284A EQ PUSH2 0xC1 JUMPI DUP1 PUSH4 0x75F12B21 EQ PUSH2 0xEC JUMPI DUP1 PUSH4 0x83788FCE EQ PUSH2 0x117 JUMPI DUP1 PUSH4 0x98D5FDCA EQ PUSH2 0x12E JUMPI JUMPDEST PUSH1 0x0 DUP1 REVERT JUMPDEST CALLVALUE DUP1 ISZERO PUSH2 0xA2 JUMPI PUSH1 0x0 DUP1 REVERT JUMPDEST POP PUSH2 0xAB PUSH2 0x20F JUMP JUMPDEST PUSH1 0x40 MLOAD PUSH2 0xB8 SWAP2 SWAP1 PUSH2 0x6AC JUMP JUMPDEST PUSH1 0x40 MLOAD DUP1 SWAP2 SUB SWAP1 RETURN JUMPDEST CALLVALUE DUP1 ISZERO PUSH2 0xCD JUMPI PUSH1 0x0 DUP1 REVERT JUMPDEST POP PUSH2 0xD6 PUSH2 0x233 JUMP JUMPDEST PUSH1 0x40 MLOAD PUSH2 0xE3 SWAP2 SWAP1 PUSH2 0x6E0 JUMP JUMPDEST PUSH1 0x40 MLOAD DUP1 SWAP2 SUB SWAP1 RETURN JUMPDEST CALLVALUE DUP1 ISZERO PUSH2 0xF8 JUMPI PUSH1 0x0 DUP1 REVERT JUMPDEST POP PUSH2 0x101 PUSH2 0x257 JUMP JUMPDEST PUSH1 0x40 MLOAD PUSH2 0x10E SWAP2 SWAP1 PUSH2 0x716 JUMP JUMPDEST PUSH1 0x40 MLOAD DUP1 SWAP2 SUB SWAP1 RETURN JUMPDEST CALLVALUE DUP1 ISZERO PUSH2 0x123 JUMPI PUSH1 0x0 DUP1 REVERT JUMPDEST POP PUSH2 0x12C PUSH2 0x26A JUMP JUMPDEST STOP JUMPDEST CALLVALUE DUP1 ISZERO PUSH2 0x13A JUMPI PUSH1 0x0 DUP1 REVERT JUMPDEST POP PUSH2 0x143 PUSH2 0x26C JUMP JUMPDEST PUSH1 0x40 MLOAD PUSH2 0x150 SWAP2 SWAP1 PUSH2 0x6E0 JUMP JUMPDEST PUSH1 0x40 MLOAD DUP1 SWAP2 SUB SWAP1 RETURN JUMPDEST PUSH2 0x161 PUSH2 0x351 JUMP JUMPDEST STOP JUMPDEST CALLVALUE DUP1 ISZERO PUSH2 0x16F JUMPI PUSH1 0x0 DUP1 REVERT JUMPDEST POP PUSH2 0x178 PUSH2 0x571 JUMP JUMPDEST PUSH1 0x40 MLOAD PUSH2 0x185 SWAP2 SWAP1 PUSH2 0x6E0 JUMP JUMPDEST PUSH1 0x40 MLOAD DUP1 SWAP2 SUB SWAP1 RETURN JUMPDEST CALLVALUE DUP1 ISZERO PUSH2 0x19A JUMPI PUSH1 0x0 DUP1 REVERT JUMPDEST POP PUSH2 0x1A3 PUSH2 0x595 JUMP JUMPDEST PUSH1 0x40 MLOAD PUSH2 0x1B0 SWAP2 SWAP1 PUSH2 0x6E0 JUMP JUMPDEST PUSH1 0x40 MLOAD DUP1 SWAP2 SUB SWAP1 RETURN JUMPDEST CALLVALUE DUP1 ISZERO PUSH2 0x1C5 JUMPI PUSH1 0x0 DUP1 REVERT JUMPDEST POP PUSH2 0x1CE PUSH2 0x5B9 JUMP JUMPDEST PUSH1 0x40 MLOAD PUSH2 0x1DB SWAP2 SWAP1 PUSH2 0x6E0 JUMP JUMPDEST PUSH1 0x40 MLOAD DUP1 SWAP2 SUB SWAP1 RETURN JUMPDEST CALLVALUE DUP1 ISZERO PUSH2 0x1F0 JUMPI PUSH1 0x0 DUP1 REVERT JUMPDEST POP PUSH2 0x1F9 PUSH2 0x5DD JUMP JUMPDEST PUSH1 0x40 MLOAD PUSH2 0x206 SWAP2 SWAP1 PUSH2 0x7CA JUMP JUMPDEST PUSH1 0x40 MLOAD DUP1 SWAP2 SUB SWAP1 RETURN JUMPDEST PUSH32 0x0 DUP2 JUMP JUMPDEST PUSH32 0x0 DUP2 JUMP JUMPDEST PUSH1 0x1 PUSH1 0x0 SWAP1 SLOAD SWAP1 PUSH2 0x100 EXP SWAP1 DIV PUSH1 0xFF AND DUP2 JUMP JUMPDEST JUMP JUMPDEST PUSH1 0x0 PUSH1 0x1 PUSH1 0x0 SWAP1 SLOAD SWAP1 PUSH2 0x100 EXP SWAP1 DIV PUSH1 0xFF AND ISZERO PUSH2 0x2BE JUMPI PUSH1 0x40 MLOAD PUSH32 0x8C379A000000000000000000000000000000000000000000000000000000000 DUP2 MSTORE PUSH1 0x4 ADD PUSH2 0x2B5 SWAP1 PUSH2 0x838 JUMP JUMPDEST PUSH1 0x40 MLOAD DUP1 SWAP2 SUB SWAP1 REVERT JUMPDEST PUSH1 0x0 PUSH32 0x0 TIMESTAMP PUSH2 0x2EC SWAP2 SWAP1 PUSH2 0x887 JUMP JUMPDEST SWAP1 POP PUSH1 0x0 DUP2 PUSH32 0x0 PUSH2 0x31C SWAP2 SWAP1 PUSH2 0x8BB JUMP JUMPDEST SWAP1 POP DUP1 PUSH32 0x0 PUSH2 0x34A SWAP2 SWAP1 PUSH2 0x887 JUMP JUMPDEST SWAP3 POP POP POP SWAP1 JUMP JUMPDEST PUSH1 0x1 PUSH1 0x0 SWAP1 SLOAD SWAP1 PUSH2 0x100 EXP SWAP1 DIV PUSH1 0xFF AND ISZERO PUSH2 0x3A1 JUMPI PUSH1 0x40 MLOAD PUSH32 0x8C379A000000000000000000000000000000000000000000000000000000000 DUP2 MSTORE PUSH1 0x4 ADD PUSH2 0x398 SWAP1 PUSH2 0x838 JUMP JUMPDEST PUSH1 0x40 MLOAD DUP1 SWAP2 SUB SWAP1 REVERT JUMPDEST PUSH32 0x0 TIMESTAMP LT PUSH2 0x403 JUMPI PUSH1 0x40 MLOAD PUSH32 0x8C379A000000000000000000000000000000000000000000000000000000000 DUP2 MSTORE PUSH1 0x4 ADD PUSH2 0x3FA SWAP1 PUSH2 0x961 JUMP JUMPDEST PUSH1 0x40 MLOAD DUP1 SWAP2 SUB SWAP1 REVERT JUMPDEST PUSH1 0x0 PUSH2 0x40D PUSH2 0x26C JUMP JUMPDEST SWAP1 POP DUP1 CALLVALUE LT ISZERO PUSH2 0x452 JUMPI PUSH1 0x40 MLOAD PUSH32 0x8C379A000000000000000000000000000000000000000000000000000000000 DUP2 MSTORE PUSH1 0x4 ADD PUSH2 0x449 SWAP1 PUSH2 0x9CD JUMP JUMPDEST PUSH1 0x40 MLOAD DUP1 SWAP2 SUB SWAP1 REVERT JUMPDEST PUSH1 0x0 DUP2 CALLVALUE PUSH2 0x460 SWAP2 SWAP1 PUSH2 0x887 JUMP JUMPDEST SWAP1 POP PUSH1 0x0 DUP2 GT ISZERO PUSH2 0x4B3 JUMPI CALLER PUSH20 0xFFFFFFFFFFFFFFFFFFFFFFFFFFFFFFFFFFFFFFFF AND PUSH2 0x8FC DUP3 SWAP1 DUP2 ISZERO MUL SWAP1 PUSH1 0x40 MLOAD PUSH1 0x0 PUSH1 0x40 MLOAD DUP1 DUP4 SUB DUP2 DUP6 DUP9 DUP9 CALL SWAP4 POP POP POP POP ISZERO DUP1 ISZERO PUSH2 0x4B1 JUMPI RETURNDATASIZE PUSH1 0x0 DUP1 RETURNDATACOPY RETURNDATASIZE PUSH1 0x0 REVERT JUMPDEST POP JUMPDEST PUSH32 0x0 PUSH20 0xFFFFFFFFFFFFFFFFFFFFFFFFFFFFFFFFFFFFFFFF AND PUSH2 0x8FC SELFBALANCE SWAP1 DUP2 ISZERO MUL SWAP1 PUSH1 0x40 MLOAD PUSH1 0x0 PUSH1 0x40 MLOAD DUP1 DUP4 SUB DUP2 DUP6 DUP9 DUP9 CALL SWAP4 POP POP POP POP ISZERO DUP1 ISZERO PUSH2 0x519 JUMPI RETURNDATASIZE PUSH1 0x0 DUP1 RETURNDATACOPY RETURNDATASIZE PUSH1 0x0 REVERT JUMPDEST POP PUSH1 0x1 DUP1 PUSH1 0x0 PUSH2 0x100 EXP DUP2 SLOAD DUP2 PUSH1 0xFF MUL NOT AND SWAP1 DUP4 ISZERO ISZERO MUL OR SWAP1 SSTORE POP PUSH32 0xC54C8CC1C7525B424EC71B685C00D9355581A280488018C22005332CEB2FD406 DUP3 CALLER PUSH1 0x40 MLOAD PUSH2 0x565 SWAP3 SWAP2 SWAP1 PUSH2 0xA0E JUMP JUMPDEST PUSH1 0x40 MLOAD DUP1 SWAP2 SUB SWAP1 LOG1 POP POP JUMP JUMPDEST PUSH32 0x0 DUP2 JUMP JUMPDEST PUSH32 0x0 DUP2 JUMP JUMPDEST PUSH32 0x0 DUP2 JUMP JUMPDEST PUSH1 0x0 DUP1 SLOAD PUSH2 0x5EA SWAP1 PUSH2 0xA66 JUMP JUMPDEST DUP1 PUSH1 0x1F ADD PUSH1 0x20 DUP1 SWAP2 DIV MUL PUSH1 0x20 ADD PUSH1 0x40 MLOAD SWAP1 DUP2 ADD PUSH1 0x40 MSTORE DUP1 SWAP3 SWAP2 SWAP1 DUP2 DUP2 MSTORE PUSH1 0x20 ADD DUP3 DUP1 SLOAD PUSH2 0x616 SWAP1 PUSH2 0xA66 JUMP JUMPDEST DUP1 ISZERO PUSH2 0x663 JUMPI DUP1 PUSH1 0x1F LT PUSH2 0x638 JUMPI PUSH2 0x100 DUP1 DUP4 SLOAD DIV MUL DUP4 MSTORE SWAP2 PUSH1 0x20 ADD SWAP2 PUSH2 0x663 JUMP JUMPDEST DUP3 ADD SWAP2 SWAP1 PUSH1 0x0 MSTORE PUSH1 0x20 PUSH1 0x0 KECCAK256 SWAP1 JUMPDEST DUP2 SLOAD DUP2 MSTORE SWAP1 PUSH1 0x1 ADD SWAP1 PUSH1 0x20 ADD DUP1 DUP4 GT PUSH2 0x646 JUMPI DUP3 SWAP1 SUB PUSH1 0x1F AND DUP3 ADD SWAP2 JUMPDEST POP POP POP POP POP DUP2 JUMP JUMPDEST PUSH1 0x0 PUSH20 0xFFFFFFFFFFFFFFFFFFFFFFFFFFFFFFFFFFFFFFFF DUP3 AND SWAP1 POP SWAP2 SWAP1 POP JUMP JUMPDEST PUSH1 0x0 PUSH2 0x696 DUP3 PUSH2 0x66B JUMP JUMPDEST SWAP1 POP SWAP2 SWAP1 POP JUMP JUMPDEST PUSH2 0x6A6 DUP2 PUSH2 0x68B JUMP JUMPDEST DUP3 MSTORE POP POP JUMP JUMPDEST PUSH1 0x0 PUSH1 0x20 DUP3 ADD SWAP1 POP PUSH2 0x6C1 PUSH1 0x0 DUP4 ADD DUP5 PUSH2 0x69D JUMP JUMPDEST SWAP3 SWAP2 POP POP JUMP JUMPDEST PUSH1 0x0 DUP2 SWAP1 POP SWAP2 SWAP1 POP JUMP JUMPDEST PUSH2 0x6DA DUP2 PUSH2 0x6C7 JUMP JUMPDEST DUP3 MSTORE POP POP JUMP JUMPDEST PUSH1 0x0 PUSH1 0x20 DUP3 ADD SWAP1 POP PUSH2 0x6F5 PUSH1 0x0 DUP4 ADD DUP5 PUSH2 0x6D1 JUMP JUMPDEST SWAP3 SWAP2 POP POP JUMP JUMPDEST PUSH1 0x0 DUP2 ISZERO ISZERO SWAP1 POP SWAP2 SWAP1 POP JUMP JUMPDEST PUSH2 0x710 DUP2 PUSH2 0x6FB JUMP JUMPDEST DUP3 MSTORE POP POP JUMP JUMPDEST PUSH1 0x0 PUSH1 0x20 DUP3 ADD SWAP1 POP PUSH2 0x72B PUSH1 0x0 DUP4 ADD DUP5 PUSH2 0x707 JUMP JUMPDEST SWAP3 SWAP2 POP POP JUMP JUMPDEST PUSH1 0x0 DUP2 MLOAD SWAP1 POP SWAP2 SWAP1 POP JUMP JUMPDEST PUSH1 0x0 DUP3 DUP3 MSTORE PUSH1 0x20 DUP3 ADD SWAP1 POP SWAP3 SWAP2 POP POP JUMP JUMPDEST PUSH1 0x0 JUMPDEST DUP4 DUP2 LT ISZERO PUSH2 0x76B JUMPI DUP1 DUP3 ADD MLOAD DUP2 DUP5 ADD MSTORE PUSH1 0x20 DUP2 ADD SWAP1 POP PUSH2 0x750 JUMP JUMPDEST DUP4 DUP2 GT ISZERO PUSH2 0x77A JUMPI PUSH1 0x0 DUP5 DUP5 ADD MSTORE JUMPDEST POP POP POP POP JUMP JUMPDEST PUSH1 0x0 PUSH1 0x1F NOT PUSH1 0x1F DUP4 ADD AND SWAP1 POP SWAP2 SWAP1 POP JUMP JUMPDEST PUSH1 0x0 PUSH2 0x79C DUP3 PUSH2 0x731 JUMP JUMPDEST PUSH2 0x7A6 DUP2 DUP6 PUSH2 0x73C JUMP JUMPDEST SWAP4 POP PUSH2 0x7B6 DUP2 DUP6 PUSH1 0x20 DUP7 ADD PUSH2 0x74D JUMP JUMPDEST PUSH2 0x7BF DUP2 PUSH2 0x780 JUMP JUMPDEST DUP5 ADD SWAP2 POP POP SWAP3 SWAP2 POP POP JUMP JUMPDEST PUSH1 0x0 PUSH1 0x20 DUP3 ADD SWAP1 POP DUP2 DUP2 SUB PUSH1 0x0 DUP4 ADD MSTORE PUSH2 0x7E4 DUP2 DUP5 PUSH2 0x791 JUMP JUMPDEST SWAP1 POP SWAP3 SWAP2 POP POP JUMP JUMPDEST PUSH32 0x68617320616C72656164792073746F7070656421000000000000000000000000 PUSH1 0x0 DUP3 ADD MSTORE POP JUMP JUMPDEST PUSH1 0x0 PUSH2 0x822 PUSH1 0x14 DUP4 PUSH2 0x73C JUMP JUMPDEST SWAP2 POP PUSH2 0x82D DUP3 PUSH2 0x7EC JUMP JUMPDEST PUSH1 0x20 DUP3 ADD SWAP1 POP SWAP2 SWAP1 POP JUMP JUMPDEST PUSH1 0x0 PUSH1 0x20 DUP3 ADD SWAP1 POP DUP2 DUP2 SUB PUSH1 0x0 DUP4 ADD MSTORE PUSH2 0x851 DUP2 PUSH2 0x815 JUMP JUMPDEST SWAP1 POP SWAP2 SWAP1 POP JUMP JUMPDEST PUSH32 0x4E487B7100000000000000000000000000000000000000000000000000000000 PUSH1 0x0 MSTORE PUSH1 0x11 PUSH1 0x4 MSTORE PUSH1 0x24 PUSH1 0x0 REVERT JUMPDEST PUSH1 0x0 PUSH2 0x892 DUP3 PUSH2 0x6C7 JUMP JUMPDEST SWAP2 POP PUSH2 0x89D DUP4 PUSH2 0x6C7 JUMP JUMPDEST SWAP3 POP DUP3 DUP3 LT ISZERO PUSH2 0x8B0 JUMPI PUSH2 0x8AF PUSH2 0x858 JUMP JUMPDEST JUMPDEST DUP3 DUP3 SUB SWAP1 POP SWAP3 SWAP2 POP POP JUMP JUMPDEST PUSH1 0x0 PUSH2 0x8C6 DUP3 PUSH2 0x6C7 JUMP JUMPDEST SWAP2 POP PUSH2 0x8D1 DUP4 PUSH2 0x6C7 JUMP JUMPDEST SWAP3 POP DUP2 PUSH32 0xFFFFFFFFFFFFFFFFFFFFFFFFFFFFFFFFFFFFFFFFFFFFFFFFFFFFFFFFFFFFFFFF DIV DUP4 GT DUP3 ISZERO ISZERO AND ISZERO PUSH2 0x90A JUMPI PUSH2 0x909 PUSH2 0x858 JUMP JUMPDEST JUMPDEST DUP3 DUP3 MUL SWAP1 POP SWAP3 SWAP2 POP POP JUMP JUMPDEST PUSH32 0x746F6F206C617465210000000000000000000000000000000000000000000000 PUSH1 0x0 DUP3 ADD MSTORE POP JUMP JUMPDEST PUSH1 0x0 PUSH2 0x94B PUSH1 0x9 DUP4 PUSH2 0x73C JUMP JUMPDEST SWAP2 POP PUSH2 0x956 DUP3 PUSH2 0x915 JUMP JUMPDEST PUSH1 0x20 DUP3 ADD SWAP1 POP SWAP2 SWAP1 POP JUMP JUMPDEST PUSH1 0x0 PUSH1 0x20 DUP3 ADD SWAP1 POP DUP2 DUP2 SUB PUSH1 0x0 DUP4 ADD MSTORE PUSH2 0x97A DUP2 PUSH2 0x93E JUMP JUMPDEST SWAP1 POP SWAP2 SWAP1 POP JUMP JUMPDEST PUSH32 0x746F6F206C6F7721000000000000000000000000000000000000000000000000 PUSH1 0x0 DUP3 ADD MSTORE POP JUMP JUMPDEST PUSH1 0x0 PUSH2 0x9B7 PUSH1 0x8 DUP4 PUSH2 0x73C JUMP JUMPDEST SWAP2 POP PUSH2 0x9C2 DUP3 PUSH2 0x981 JUMP JUMPDEST PUSH1 0x20 DUP3 ADD SWAP1 POP SWAP2 SWAP1 POP JUMP JUMPDEST PUSH1 0x0 PUSH1 0x20 DUP3 ADD SWAP1 POP DUP2 DUP2 SUB PUSH1 0x0 DUP4 ADD MSTORE PUSH2 0x9E6 DUP2 PUSH2 0x9AA JUMP JUMPDEST SWAP1 POP SWAP2 SWAP1 POP JUMP JUMPDEST PUSH1 0x0 PUSH2 0x9F8 DUP3 PUSH2 0x66B JUMP JUMPDEST SWAP1 POP SWAP2 SWAP1 POP JUMP JUMPDEST PUSH2 0xA08 DUP2 PUSH2 0x9ED JUMP JUMPDEST DUP3 MSTORE POP POP JUMP JUMPDEST PUSH1 0x0 PUSH1 0x40 DUP3 ADD SWAP1 POP PUSH2 0xA23 PUSH1 0x0 DUP4 ADD DUP6 PUSH2 0x6D1 JUMP JUMPDEST PUSH2 0xA30 PUSH1 0x20 DUP4 ADD DUP5 PUSH2 0x9FF JUMP JUMPDEST SWAP4 SWAP3 POP POP POP JUMP JUMPDEST PUSH32 0x4E487B7100000000000000000000000000000000000000000000000000000000 PUSH1 0x0 MSTORE PUSH1 0x22 PUSH1 0x4 MSTORE PUSH1 0x24 PUSH1 0x0 REVERT JUMPDEST PUSH1 0x0 PUSH1 0x2 DUP3 DIV SWAP1 POP PUSH1 0x1 DUP3 AND DUP1 PUSH2 0xA7E JUMPI PUSH1 0x7F DUP3 AND SWAP2 POP JUMPDEST PUSH1 0x20 DUP3 LT DUP2 SUB PUSH2 0xA91 JUMPI PUSH2 0xA90 PUSH2 0xA37 JUMP JUMPDEST JUMPDEST POP SWAP2 SWAP1 POP JUMP INVALID LOG2 PUSH5 0x6970667358 0x22 SLT KECCAK256 0xCA 0xBB 0x49 SAR 0xAE PUSH9 0x9AEAB2726B983AB412 DUP15 SHL SDIV 0xE7 0xAD CALLVALUE CALLDATACOPY DUP6 SMOD 0xFC 0x26 0xEA DUP11 JUMPI MUL PUSH9 0xF064736F6C63430008 0xD STOP CALLER "
        },
        "methodIdentifiers": {
          "buy()": "a6f2ae3a",
          "discountRate()": "e6c0e6d5",
          "endsAt()": "0a09284a",
          "getPrice()": "98d5fdca",
          "item()": "f2a4a82e",
          "nextBlock()": "83788fce",
          "seller()": "08551a53",
          "startAt()": "c7446565",
          "startingPrice()": "d6fbf202",
          "stopped()": "75f12b21"
        }
      }
    }
  }
}