{
  "_format": "hh-sol-artifact-1",
  "contractName": "DutchAuction",
  "sourceName": "contracts/DutchAuction.sol",
  "abi": [
    {
      "inputs": [
        {
          "internalType": "uint256",
          "name": "_startingPrice",
          "type": "uint256"
        },
        {
          "internalType": "uint256",
          "name": "_discountRate",
          "type": "uint256"
        },
        {
          "internalType": "string",
          "name": "_item",
          "type": "string"
        }
      ],
      "stateMutability": "nonpayable",
      "type": "constructor"
    },
    {
      "anonymous": false,
      "inputs": [
        {
          "indexed": false,
          "internalType": "uint256",
          "name": "price",
          "type": "uint256"
        },
        {
          "indexed": false,
          "internalType": "address",
          "name": "buyer",
          "type": "address"
        }
      ],
      "name": "Bought",
      "type": "event"
    },
    {
      "inputs": [],
      "name": "buy",
      "outputs": [],
      "stateMutability": "payable",
      "type": "function"
    },
    {
      "inputs": [],
      "name": "discountRate",
      "outputs": [
        {
          "internalType": "uint256",
          "name": "",
          "type": "uint256"
        }
      ],
      "stateMutability": "view",
      "type": "function"
    },
    {
      "inputs": [],
      "name": "endsAt",
      "outputs": [
        {
          "internalType": "uint256",
          "name": "",
          "type": "uint256"
        }
      ],
      "stateMutability": "view",
      "type": "function"
    },
    {
      "inputs": [],
      "name": "getPrice",
      "outputs": [
        {
          "internalType": "uint256",
          "name": "",
          "type": "uint256"
        }
      ],
      "stateMutability": "view",
      "type": "function"
    },
    {
      "inputs": [],
      "name": "item",
      "outputs": [
        {
          "internalType": "string",
          "name": "",
          "type": "string"
        }
      ],
      "stateMutability": "view",
      "type": "function"
    },
    {
      "inputs": [],
      "name": "nextBlock",
      "outputs": [],
      "stateMutability": "nonpayable",
      "type": "function"
    },
    {
      "inputs": [],
      "name": "seller",
      "outputs": [
        {
          "internalType": "address payable",
          "name": "",
          "type": "address"
        }
      ],
      "stateMutability": "view",
      "type": "function"
    },
    {
      "inputs": [],
      "name": "startAt",
      "outputs": [
        {
          "internalType": "uint256",
          "name": "",
          "type": "uint256"
        }
      ],
      "stateMutability": "view",
      "type": "function"
    },
    {
      "inputs": [],
      "name": "startingPrice",
      "outputs": [
        {
          "internalType": "uint256",
          "name": "",
          "type": "uint256"
        }
      ],
      "stateMutability": "view",
      "type": "function"
    },
    {
      "inputs": [],
      "name": "stopped",
      "outputs": [
        {
          "internalType": "bool",
          "name": "",
          "type": "bool"
        }
      ],
      "stateMutability": "view",
      "type": "function"
    }
  ],
  "bytecode": "0x6101206040523480156200001257600080fd5b50604051620011213803806200112183398181016040528101906200003891906200039d565b6202a3008262000049919062000447565b8310156200008e576040517f08c379a0000000000000000000000000000000000000000000000000000000008152600401620000859062000509565b60405180910390fd5b3373ffffffffffffffffffffffffffffffffffffffff1660808173ffffffffffffffffffffffffffffffffffffffff16815250508260a081815250508161010081815250504260c081815250506202a30042620000ec91906200052b565b60e0818152505080600090805190602001906200010b92919062000115565b50505050620005ec565b8280546200012390620005b7565b90600052602060002090601f01602090048101928262000147576000855562000193565b82601f106200016257805160ff191683800117855562000193565b8280016001018555821562000193579182015b828111156200019257825182559160200191906001019062000175565b5b509050620001a29190620001a6565b5090565b5b80821115620001c1576000816000905550600101620001a7565b5090565b6000604051905090565b600080fd5b600080fd5b6000819050919050565b620001ee81620001d9565b8114620001fa57600080fd5b50565b6000815190506200020e81620001e3565b92915050565b600080fd5b600080fd5b6000601f19601f8301169050919050565b7f4e487b7100000000000000000000000000000000000000000000000000000000600052604160045260246000fd5b62000269826200021e565b810181811067ffffffffffffffff821117156200028b576200028a6200022f565b5b80604052505050565b6000620002a0620001c5565b9050620002ae82826200025e565b919050565b600067ffffffffffffffff821115620002d157620002d06200022f565b5b620002dc826200021e565b9050602081019050919050565b60005b8381101562000309578082015181840152602081019050620002ec565b8381111562000319576000848401525b50505050565b6000620003366200033084620002b3565b62000294565b90508281526020810184848401111562000355576200035462000219565b5b62000362848285620002e9565b509392505050565b600082601f83011262000382576200038162000214565b5b8151620003948482602086016200031f565b91505092915050565b600080600060608486031215620003b957620003b8620001cf565b5b6000620003c986828701620001fd565b9350506020620003dc86828701620001fd565b925050604084015167ffffffffffffffff8111156200040057620003ff620001d4565b5b6200040e868287016200036a565b9150509250925092565b7f4e487b7100000000000000000000000000000000000000000000000000000000600052601160045260246000fd5b60006200045482620001d9565b91506200046183620001d9565b9250817fffffffffffffffffffffffffffffffffffffffffffffffffffffffffffffffff04831182151516156200049d576200049c62000418565b5b828202905092915050565b600082825260208201905092915050565b7f707269636520746f6f206c6f7721000000000000000000000000000000000000600082015250565b6000620004f1600e83620004a8565b9150620004fe82620004b9565b602082019050919050565b600060208201905081810360008301526200052481620004e2565b9050919050565b60006200053882620001d9565b91506200054583620001d9565b9250827fffffffffffffffffffffffffffffffffffffffffffffffffffffffffffffffff038211156200057d576200057c62000418565b5b828201905092915050565b7f4e487b7100000000000000000000000000000000000000000000000000000000600052602260045260246000fd5b60006002820490506001821680620005d057607f821691505b602082108103620005e657620005e562000588565b5b50919050565b60805160a05160c05160e05161010051610acd62000654600039600081816102f301526105bb01526000818161023501526103a30152600081816102c20152610573015260008181610321015261059701526000818161021101526104b50152610acd6000f3fe6080604052600436106100915760003560e01c8063a6f2ae3a11610059578063a6f2ae3a14610159578063c744656514610163578063d6fbf2021461018e578063e6c0e6d5146101b9578063f2a4a82e146101e457610091565b806308551a53146100965780630a09284a146100c157806375f12b21146100ec57806383788fce1461011757806398d5fdca1461012e575b600080fd5b3480156100a257600080fd5b506100ab61020f565b6040516100b891906106ac565b60405180910390f35b3480156100cd57600080fd5b506100d6610233565b6040516100e391906106e0565b60405180910390f35b3480156100f857600080fd5b50610101610257565b60405161010e9190610716565b60405180910390f35b34801561012357600080fd5b5061012c61026a565b005b34801561013a57600080fd5b5061014361026c565b60405161015091906106e0565b60405180910390f35b610161610351565b005b34801561016f57600080fd5b50610178610571565b60405161018591906106e0565b60405180910390f35b34801561019a57600080fd5b506101a3610595565b6040516101b091906106e0565b60405180910390f35b3480156101c557600080fd5b506101ce6105b9565b6040516101db91906106e0565b60405180910390f35b3480156101f057600080fd5b506101f96105dd565b60405161020691906107ca565b60405180910390f35b7f000000000000000000000000000000000000000000000000000000000000000081565b7f000000000000000000000000000000000000000000000000000000000000000081565b600160009054906101000a900460ff1681565b565b6000600160009054906101000a900460ff16156102be576040517f08c379a00000000000000000000000000000000000000000000000000000000081526004016102b590610838565b60405180910390fd5b60007f0000000000000000000000000000000000000000000000000000000000000000426102ec9190610887565b90506000817f000000000000000000000000000000000000000000000000000000000000000061031c91906108bb565b9050807f000000000000000000000000000000000000000000000000000000000000000061034a9190610887565b9250505090565b600160009054906101000a900460ff16156103a1576040517f08c379a000000000000000000000000000000000000000000000000000000000815260040161039890610838565b60405180910390fd5b7f00000000000000000000000000000000000000000000000000000000000000004210610403576040517f08c379a00000000000000000000000000000000000000000000000000000000081526004016103fa90610961565b60405180910390fd5b600061040d61026c565b905080341015610452576040517f08c379a0000000000000000000000000000000000000000000000000000000008152600401610449906109cd565b60405180910390fd5b600081346104609190610887565b905060008111156104b3573373ffffffffffffffffffffffffffffffffffffffff166108fc829081150290604051600060405180830381858888f193505050501580156104b1573d6000803e3d6000fd5b505b7f000000000000000000000000000000000000000000000000000000000000000073ffffffffffffffffffffffffffffffffffffffff166108fc479081150290604051600060405180830381858888f19350505050158015610519573d6000803e3d6000fd5b5060018060006101000a81548160ff0219169083151502179055507fc54c8cc1c7525b424ec71b685c00d9355581a280488018c22005332ceb2fd4068233604051610565929190610a0e565b60405180910390a15050565b7f000000000000000000000000000000000000000000000000000000000000000081565b7f000000000000000000000000000000000000000000000000000000000000000081565b7f000000000000000000000000000000000000000000000000000000000000000081565b600080546105ea90610a66565b80601f016020809104026020016040519081016040528092919081815260200182805461061690610a66565b80156106635780601f1061063857610100808354040283529160200191610663565b820191906000526020600020905b81548152906001019060200180831161064657829003601f168201915b505050505081565b600073ffffffffffffffffffffffffffffffffffffffff82169050919050565b60006106968261066b565b9050919050565b6106a68161068b565b82525050565b60006020820190506106c1600083018461069d565b92915050565b6000819050919050565b6106da816106c7565b82525050565b60006020820190506106f560008301846106d1565b92915050565b60008115159050919050565b610710816106fb565b82525050565b600060208201905061072b6000830184610707565b92915050565b600081519050919050565b600082825260208201905092915050565b60005b8381101561076b578082015181840152602081019050610750565b8381111561077a576000848401525b50505050565b6000601f19601f8301169050919050565b600061079c82610731565b6107a6818561073c565b93506107b681856020860161074d565b6107bf81610780565b840191505092915050565b600060208201905081810360008301526107e48184610791565b905092915050565b7f68617320616c72656164792073746f7070656421000000000000000000000000600082015250565b600061082260148361073c565b915061082d826107ec565b602082019050919050565b6000602082019050818103600083015261085181610815565b9050919050565b7f4e487b7100000000000000000000000000000000000000000000000000000000600052601160045260246000fd5b6000610892826106c7565b915061089d836106c7565b9250828210156108b0576108af610858565b5b828203905092915050565b60006108c6826106c7565b91506108d1836106c7565b9250817fffffffffffffffffffffffffffffffffffffffffffffffffffffffffffffffff048311821515161561090a57610909610858565b5b828202905092915050565b7f746f6f206c617465210000000000000000000000000000000000000000000000600082015250565b600061094b60098361073c565b915061095682610915565b602082019050919050565b6000602082019050818103600083015261097a8161093e565b9050919050565b7f746f6f206c6f7721000000000000000000000000000000000000000000000000600082015250565b60006109b760088361073c565b91506109c282610981565b602082019050919050565b600060208201905081810360008301526109e6816109aa565b9050919050565b60006109f88261066b565b9050919050565b610a08816109ed565b82525050565b6000604082019050610a2360008301856106d1565b610a3060208301846109ff565b9392505050565b7f4e487b7100000000000000000000000000000000000000000000000000000000600052602260045260246000fd5b60006002820490506001821680610a7e57607f821691505b602082108103610a9157610a90610a37565b5b5091905056fea2646970667358221220cabb491dae689aeab2726b983ab4128e1b05e7ad34378507fc26ea8a570268f064736f6c634300080d0033",
  "linkReferences": {},
  "deployedLinkReferences": {}
}