{
  "contracts/AucEngine.sol": {
    "AucEngine": {
      "abi": [
        {
          "inputs": [],
          "stateMutability": "nonpayable",
          "type": "constructor"
        },
        {
          "anonymous": false,
          "inputs": [
            {
              "indexed": false,
              "internalType": "uint256",
              "name": "index",
              "type": "uint256"
            },
            {
              "indexed": false,
              "internalType": "string",
              "name": "itemName",
              "type": "string"
            },
            {
              "indexed": false,
              "internalType": "uint256",
              "name": "startingPrice",
              "type": "uint256"
            },
            {
              "indexed": false,
              "internalType": "uint256",
              "name": "duration",
              "type": "uint256"
            }
          ],
          "name": "AuctionCreated",
          "type": "event"
        },
        {
          "anonymous": false,
          "inputs": [
            {
              "indexed": false,
              "internalType": "uint256",
              "name": "index",
              "type": "uint256"
            },
            {
              "indexed": false,
              "internalType": "uint256",
              "name": "finalPrice",
              "type": "uint256"
            },
            {
              "indexed": false,
              "internalType": "address",
              "name": "winner",
              "type": "address"
            }
          ],
          "name": "AuctionEnded",
          "type": "event"
        },
        {
          "inputs": [
            {
              "internalType": "uint256",
              "name": "",
              "type": "uint256"
            }
          ],
          "name": "auctions",
          "outputs": [
            {
              "internalType": "address payable",
              "name": "seller",
              "type": "address"
            },
            {
              "internalType": "uint256",
              "name": "startingPrice",
              "type": "uint256"
            },
            {
              "internalType": "uint256",
              "name": "finalPrice",
              "type": "uint256"
            },
            {
              "internalType": "uint256",
              "name": "startAt",
              "type": "uint256"
            },
            {
              "internalType": "uint256",
              "name": "endAt",
              "type": "uint256"
            },
            {
              "internalType": "uint256",
              "name": "discountRate",
              "type": "uint256"
            },
            {
              "internalType": "string",
              "name": "item",
              "type": "string"
            },
            {
              "internalType": "bool",
              "name": "stopped",
              "type": "bool"
            }
          ],
          "stateMutability": "view",
          "type": "function"
        },
        {
          "inputs": [
            {
              "internalType": "uint256",
              "name": "index",
              "type": "uint256"
            }
          ],
          "name": "buy",
          "outputs": [],
          "stateMutability": "payable",
          "type": "function"
        },
        {
          "inputs": [
            {
              "internalType": "uint256",
              "name": "_startingPrice",
              "type": "uint256"
            },
            {
              "internalType": "uint256",
              "name": "_discountRate",
              "type": "uint256"
            },
            {
              "internalType": "string",
              "name": "_item",
              "type": "string"
            },
            {
              "internalType": "uint256",
              "name": "_duration",
              "type": "uint256"
            }
          ],
          "name": "createAuction",
          "outputs": [],
          "stateMutability": "nonpayable",
          "type": "function"
        },
        {
          "inputs": [
            {
              "internalType": "uint256",
              "name": "index",
              "type": "uint256"
            }
          ],
          "name": "getPriceFor",
          "outputs": [
            {
              "internalType": "uint256",
              "name": "",
              "type": "uint256"
            }
          ],
          "stateMutability": "view",
          "type": "function"
        },
        {
          "inputs": [],
          "name": "owner",
          "outputs": [
            {
              "internalType": "address",
              "name": "",
              "type": "address"
            }
          ],
          "stateMutability": "view",
          "type": "function"
        }
      ],
      "evm": {
        "bytecode": {
          "linkReferences": {},
          "object": "608060405234801561001057600080fd5b506100437f7ff27dac8a3200762f735aa0c58df06b5f765fb846f3cc696e19596b1016776f60001b6100ec60201b60201c565b6100757fe220201f1b4c8db9d9470bdf09b30fd2c88c9ddd675faa3eb54e5ef82f656cce60001b6100ec60201b60201c565b6100a77f54bc307f45d07fecb1c8dbd6d94278ade82eb8a7ee62621392dda7244649754f60001b6100ec60201b60201c565b336000806101000a81548173ffffffffffffffffffffffffffffffffffffffff021916908373ffffffffffffffffffffffffffffffffffffffff1602179055506100ef565b50565b611baa80620000ff6000396000f3fe60806040526004361061004a5760003560e01c80634534cd9c1461004f578063571a26a01461008c5780638da5cb5b146100d0578063d96a094a146100fb578063e9835d1514610117575b600080fd5b34801561005b57600080fd5b5061007660048036038101906100719190611485565b610140565b604051610083919061177c565b60405180910390f35b34801561009857600080fd5b506100b360048036038101906100ae9190611485565b610592565b6040516100c7989796959493929190611677565b60405180910390f35b3480156100dc57600080fd5b506100e561069f565b6040516100f2919061165c565b60405180910390f35b61011560048036038101906101109190611485565b6106c3565b005b34801561012357600080fd5b5061013e600480360381019061013991906114ae565b610efe565b005b600061016e7f21d0b3e62f4e203bbc57a6de395a1e8c0d456ec00e482de09d23bba9b201cf9560001b611380565b61019a7f6cae735480c2e39b903620e8c2b20f51b11980da2a8fc154a426700e44d9c46a60001b611380565b6101c67f7165249fd2dc0624e70b3b05afd5efe242fbc067e4035fc282364ded533914ec60001b611380565b600060018381548110610202577f4e487b7100000000000000000000000000000000000000000000000000000000600052603260045260246000fd5b9060005260206000209060080201604051806101000160405290816000820160009054906101000a900473ffffffffffffffffffffffffffffffffffffffff1673ffffffffffffffffffffffffffffffffffffffff1673ffffffffffffffffffffffffffffffffffffffff16815260200160018201548152602001600282015481526020016003820154815260200160048201548152602001600582015481526020016006820180546102b4906119e9565b80601f01602080910402602001604051908101604052809291908181526020018280546102e0906119e9565b801561032d5780601f106103025761010080835404028352916020019161032d565b820191906000526020600020905b81548152906001019060200180831161031057829003601f168201915b505050505081526020016007820160009054906101000a900460ff161515151581525050905061037f7f225d1a59c8c40f79d00991ae716671faabcba1a40a4b7ba3590fbb47f50b506760001b611380565b6103ab7f5d992dc526023026161c32671e0993877c9004a72277d97688a7b6f2d3778d8660001b611380565b6103d77fed80db890d14932fb2433d70f06c103b2485958d2442c8adda998644ac8cde3f60001b611380565b8060e001511561041c576040517f08c379a00000000000000000000000000000000000000000000000000000000081526004016104139061171c565b60405180910390fd5b6104487fefa38ede705fffe011999810263ccca7c03be6b44596f6beb836c1a4ffeeaddc60001b611380565b6104747feae8df67a5ac6d85c90920ba2f98f50e65ccc2ba1999ef9b4cdd60b30fa6c1c360001b611380565b6104a07f0bc7b93e8afbadb9bfb8884609dc13d224b4fa04bc8c1ac2c1a49a0cfe18687060001b611380565b60008160600151426104b29190611919565b90506104e07fa69460baf7ae474c95db262f8e3f7c35b792f6abaa535b3f0aee07d6bd7807fe60001b611380565b61050c7f70dc7c84fce034c657206618ea84a88b4260086aa47c3913d075f6b31c5608d260001b611380565b6000818360a0015161051e91906118bf565b905061054c7fa474e72ce8b77db7060d68b6d1385a3b252e2f8b93802bacfc26eb1fe0eb731460001b611380565b6105787fe5080b7800fe02121c6ed1aa1b6bebee0cc13de3e66a0c691add3acc9bdfcc9960001b611380565b8083602001516105889190611919565b9350505050919050565b600181815481106105a257600080fd5b90600052602060002090600802016000915090508060000160009054906101000a900473ffffffffffffffffffffffffffffffffffffffff1690806001015490806002015490806003015490806004015490806005015490806006018054610609906119e9565b80601f0160208091040260200160405190810160405280929190818152602001828054610635906119e9565b80156106825780601f1061065757610100808354040283529160200191610682565b820191906000526020600020905b81548152906001019060200180831161066557829003601f168201915b5050505050908060070160009054906101000a900460ff16905088565b60008054906101000a900473ffffffffffffffffffffffffffffffffffffffff1681565b6106ef7f3c51d09ea0ed51072ce1eb69f8a02a58d12eafb487def4bbe5f1d7a0410f00d160001b611380565b61071b7f72a249b3d3720fc07e48d7dd148b273ad8e1111e7c993597d5f44b4c2dddff4a60001b611380565b6107477f15dcf94359ca071df1d540de5c1af4bea1f44d43253c781919d2739c90396c2960001b611380565b600060018281548110610783577f4e487b7100000000000000000000000000000000000000000000000000000000600052603260045260246000fd5b906000526020600020906008020190506107bf7fd460204f4744c5b282f90d66a9e7edfbddcfd7d28a7d01b2fea28342792fda8660001b611380565b6107eb7f4fc0230017709550f8012c12bd8c44e15ab206b969bbe71f20c80efacfd9c9b960001b611380565b6108177f4103370365670b3ad2458346e52aeedb77306f6dfd90aebde2970bec1793760560001b611380565b8060070160009054906101000a900460ff1615610869576040517f08c379a00000000000000000000000000000000000000000000000000000000081526004016108609061171c565b60405180910390fd5b6108957fd160cf98a246abbbaad881d424ed6c4d3e1a26d702471106ec31b20904a9047a60001b611380565b6108c17f0603c5cc5133b78613724480893e177abc78f1bd64a4de0a64e833512ca0fa9860001b611380565b6108ed7f364c1b50e49f572f5173e547f45be5a3fd32761aac9c774375cea6b79d3cc15960001b611380565b6109197fe70ee11ff00fc9679a0b24a85f9b25db708b1731f9d4ac6b96bf0725c626d0cd60001b611380565b8060040154421061095f576040517f08c379a00000000000000000000000000000000000000000000000000000000081526004016109569061175c565b60405180910390fd5b61098b7f5ef5f7f4ba841674b23d54b8b2f0aa66ed98a5d05c811fc00fd6654f21afbf8b60001b611380565b6109b77fa8ed102dbd05a09b4bf9404cc41ab559c6edadbb2a31ceebc73b0f37e32b58f260001b611380565b6109e37f36ee4ca2d68973e97acff5cd0070dbccd5bd2524352b00934db129bcf95c28ab60001b611380565b60006109ee83610140565b9050610a1c7f07d39226a3fd33d4f21e4b47e32147c2d9f5da1aab1502aa8dac50e784cd69e460001b611380565b610a487fb7861be0f66191f1a5c57214173844fb6f0d1a323f17ab719bcc4c9d4157d99a60001b611380565b610a747ff06515c81fce9c21aa73c75910cbbbc4f8a25ac441023b611ea5ecf017b85f8f60001b611380565b80341015610ab7576040517f08c379a0000000000000000000000000000000000000000000000000000000008152600401610aae9061173c565b60405180910390fd5b610ae37fef5875dbc63403f8e94e413c4c4f7026a0280cc1d91e86afd6c589c3e897c19d60001b611380565b610b0f7fd05eba1e5ecca0c7fcc660cb23fdcd4fa80eed33b6fc79c31be7e535930788f460001b611380565b610b3b7f961636a7dfe3f5cabf0b2979603a2282e487eba22b9545a8e6e93fae1cafca8860001b611380565b60018260070160006101000a81548160ff021916908315150217905550610b847fe8fa754b6b4de6374e7533511dcdda2e10f2112e5a407aa178060b27e77993a160001b611380565b610bb07f78abddca60aa9293f83b8d9c0c43fe43972a03d178a3262c4b556d4a46c9598260001b611380565b808260020181905550610be57f2d4e0d9f94cc66b6c10de93c813947f88f140d4e71166966a8a45b499f72d0c160001b611380565b610c117fafa56ce738bcf54833fd05b7c26cfe61d8944bfecb7e47e251a2afe913e8d40960001b611380565b60008134610c1f9190611919565b9050610c4d7fdbcf66ea56b7202e04b2a10d4d20a84dedfc403a1b31c27f7f072ea46bd9dced60001b611380565b610c797f97ffde05e43b21365e964a058b1c8ab5591c48434bfd2bd94a6e5ea2c70f129860001b611380565b6000811115610d5257610cae7ff732f750d8ba4e7a4aa334e2063233d90fc3e2d4901d2b4e181473a1d17ac32460001b611380565b610cda7f4c2c94001f1d0197c280a15bcdb10560f5ed9837aa956275ab913034e4dffdc860001b611380565b610d067f55a074a921c06a467a04cf2e393af730477514bdd81aceb61cd9961d7a38164260001b611380565b3373ffffffffffffffffffffffffffffffffffffffff166108fc829081150290604051600060405180830381858888f19350505050158015610d4c573d6000803e3d6000fd5b50610d7f565b610d7e7f61bcfe2a9ed72ed497076e2934ad7d18d9d9ed48815e4d19b87afc87dbb528df60001b611380565b5b610dab7f6e0263ef3a642a66981764ed1df41801d57dbdf7cae9320d1bd89f3faf1eec3860001b611380565b610dd77f2ec519969615c0fe2552bcd45d6ada72ab9d4948c054140798747677438fbb0f60001b611380565b8260000160009054906101000a900473ffffffffffffffffffffffffffffffffffffffff1673ffffffffffffffffffffffffffffffffffffffff166108fc6064600a85610e2491906118bf565b610e2e919061188e565b84610e399190611919565b9081150290604051600060405180830381858888f19350505050158015610e64573d6000803e3d6000fd5b50610e917f219dff61b2e79ea511a7f81d52cb42bac199eefcd8c1f6dc6b2ecac003c3adf760001b611380565b610ebd7f1d5760c0f02d75ca4d35a6b40d16fb1dae26206a21c5f5bfb72892d39e7694e860001b611380565b7fbafc4bda865d4d1f8d5b16f883e996fde0fe71112fac81503876d35375694400848333604051610ef0939291906117e5565b60405180910390a150505050565b610f2a7f2829d56f509a0cf8164ae7f87263f5f51430bc7cd4a2dc745e03a000750c696260001b611380565b610f567ff7bb795015b8be0f1523be08296ed2f3e5b5d8f70db838db1a2784f19abb018d60001b611380565b610f827f639a6fc63b1a566476ec6d87a287d90a91339aee7988c9bf52a2361557d59a7e60001b611380565b6000808214610f915781610f96565b6202a3005b9050610fc47ff438ecbe47f8e6ba920920db1ddcf7c00a474928a4ae6748744018737ef6573360001b611380565b610ff07f4b73ae1cde97cb9bb00019e6a78e424d70808c61f901fb6c79eec394bbc7f6bf60001b611380565b61101c7fe242c18e3d95bde9174f7000d379f6616c973d0a481d0cf1e561182a6723faad60001b611380565b808561102891906118bf565b86101561106a576040517f08c379a0000000000000000000000000000000000000000000000000000000008152600401611061906116fc565b60405180910390fd5b6110967fa0e86fe9926a855a782a7e8fdbffa85888096a9d7cf5687230930a8570f231bc60001b611380565b6110c27f52636e33f28cc36514da303f71383d57d382db81c25767d701f12743ee0cfa7e60001b611380565b6110ee7fc437aeac9ed0a2b2f132033b7010e8c8ba1b8ae9d8cdd832719b4254cd2a54d660001b611380565b60006040518061010001604052803373ffffffffffffffffffffffffffffffffffffffff16815260200188815260200188815260200142815260200183426111369190611838565b815260200187815260200186868080601f016020809104026020016040519081016040528093929190818152602001838380828437600081840152601f19601f8201169050808301925050505050505081526020016000151581525090506111c07f96f554553e8683490b370615633298fef3e14310a1c751aaa00e050ef94a174260001b611380565b6111ec7f7e0c892ae720fc3249b02002e5e007f1f1d4e7a75beca3eacdb55401113a7bba60001b611380565b600181908060018154018082558091505060019003906000526020600020906008020160009091909190915060008201518160000160006101000a81548173ffffffffffffffffffffffffffffffffffffffff021916908373ffffffffffffffffffffffffffffffffffffffff1602179055506020820151816001015560408201518160020155606082015181600301556080820151816004015560a0820151816005015560c08201518160060190805190602001906112ad929190611383565b5060e08201518160070160006101000a81548160ff02191690831515021790555050506112fc7f29524d0ca9e34d007be4baae089ee85187cb135b1e6a7ba14d8e612916c9e89f60001b611380565b6113287f71b099ec24b2d757a7c62e5502330d5e7d2c0906ac178e20effad783a9fc07ca60001b611380565b7f5bf34ed94988e5dcdc7d1faaa54eb1d3b55f45d5f11457e235afb21a8ebbe73c6001808054905061135a9190611919565b86868a8660405161136f959493929190611797565b60405180910390a150505050505050565b50565b82805461138f906119e9565b90600052602060002090601f0160209004810192826113b157600085556113f8565b82601f106113ca57805160ff19168380011785556113f8565b828001600101855582156113f8579182015b828111156113f75782518255916020019190600101906113dc565b5b5090506114059190611409565b5090565b5b8082111561142257600081600090555060010161140a565b5090565b60008083601f84011261143857600080fd5b8235905067ffffffffffffffff81111561145157600080fd5b60208301915083600182028301111561146957600080fd5b9250929050565b60008135905061147f81611b5d565b92915050565b60006020828403121561149757600080fd5b60006114a584828501611470565b91505092915050565b6000806000806000608086880312156114c657600080fd5b60006114d488828901611470565b95505060206114e588828901611470565b945050604086013567ffffffffffffffff81111561150257600080fd5b61150e88828901611426565b9350935050606061152188828901611470565b9150509295509295909350565b6115378161195f565b82525050565b6115468161194d565b82525050565b61155581611971565b82525050565b60006115678385611827565b93506115748385846119a7565b61157d83611aa8565b840190509392505050565b60006115938261181c565b61159d8185611827565b93506115ad8185602086016119b6565b6115b681611aa8565b840191505092915050565b60006115ce601883611827565b91506115d982611ab9565b602082019050919050565b60006115f1600f83611827565b91506115fc82611ae2565b602082019050919050565b6000611614601083611827565b915061161f82611b0b565b602082019050919050565b6000611637600d83611827565b915061164282611b34565b602082019050919050565b6116568161199d565b82525050565b6000602082019050611671600083018461153d565b92915050565b60006101008201905061168d600083018b61152e565b61169a602083018a61164d565b6116a7604083018961164d565b6116b4606083018861164d565b6116c1608083018761164d565b6116ce60a083018661164d565b81810360c08301526116e08185611588565b90506116ef60e083018461154c565b9998505050505050505050565b60006020820190508181036000830152611715816115c1565b9050919050565b60006020820190508181036000830152611735816115e4565b9050919050565b6000602082019050818103600083015261175581611607565b9050919050565b600060208201905081810360008301526117758161162a565b9050919050565b6000602082019050611791600083018461164d565b92915050565b60006080820190506117ac600083018861164d565b81810360208301526117bf81868861155b565b90506117ce604083018561164d565b6117db606083018461164d565b9695505050505050565b60006060820190506117fa600083018661164d565b611807602083018561164d565b611814604083018461153d565b949350505050565b600081519050919050565b600082825260208201905092915050565b60006118438261199d565b915061184e8361199d565b9250827fffffffffffffffffffffffffffffffffffffffffffffffffffffffffffffffff0382111561188357611882611a1b565b5b828201905092915050565b60006118998261199d565b91506118a48361199d565b9250826118b4576118b3611a4a565b5b828204905092915050565b60006118ca8261199d565b91506118d58361199d565b9250817fffffffffffffffffffffffffffffffffffffffffffffffffffffffffffffffff048311821515161561190e5761190d611a1b565b5b828202905092915050565b60006119248261199d565b915061192f8361199d565b92508282101561194257611941611a1b565b5b828203905092915050565b60006119588261197d565b9050919050565b600061196a8261197d565b9050919050565b60008115159050919050565b600073ffffffffffffffffffffffffffffffffffffffff82169050919050565b6000819050919050565b82818337600083830152505050565b60005b838110156119d45780820151818401526020810190506119b9565b838111156119e3576000848401525b50505050565b60006002820490506001821680611a0157607f821691505b60208210811415611a1557611a14611a79565b5b50919050565b7f4e487b7100000000000000000000000000000000000000000000000000000000600052601160045260246000fd5b7f4e487b7100000000000000000000000000000000000000000000000000000000600052601260045260246000fd5b7f4e487b7100000000000000000000000000000000000000000000000000000000600052602260045260246000fd5b6000601f19601f8301169050919050565b7f496e636f7272656374207374617274696e672070726963650000000000000000600082015250565b7f41756374696f6e2073746f707065640000000000000000000000000000000000600082015250565b7f6e6f7420656e6f7567682066756e647300000000000000000000000000000000600082015250565b7f41756374696f6e20656e64656400000000000000000000000000000000000000600082015250565b611b668161199d565b8114611b7157600080fd5b5056fea26469706673582212204bda4db32a3c2f2fc74f50fe5cd975fc2f327744aa438d5410ee79b0bae06e4d64736f6c63430008040033",
          "opcodes": "PUSH1 0x80 PUSH1 0x40 MSTORE CALLVALUE DUP1 ISZERO PUSH2 0x10 JUMPI PUSH1 0x0 DUP1 REVERT JUMPDEST POP PUSH2 0x43 PUSH32 0x7FF27DAC8A3200762F735AA0C58DF06B5F765FB846F3CC696E19596B1016776F PUSH1 0x0 SHL PUSH2 0xEC PUSH1 0x20 SHL PUSH1 0x20 SHR JUMP JUMPDEST PUSH2 0x75 PUSH32 0xE220201F1B4C8DB9D9470BDF09B30FD2C88C9DDD675FAA3EB54E5EF82F656CCE PUSH1 0x0 SHL PUSH2 0xEC PUSH1 0x20 SHL PUSH1 0x20 SHR JUMP JUMPDEST PUSH2 0xA7 PUSH32 0x54BC307F45D07FECB1C8DBD6D94278ADE82EB8A7EE62621392DDA7244649754F PUSH1 0x0 SHL PUSH2 0xEC PUSH1 0x20 SHL PUSH1 0x20 SHR JUMP JUMPDEST CALLER PUSH1 0x0 DUP1 PUSH2 0x100 EXP DUP2 SLOAD DUP2 PUSH20 0xFFFFFFFFFFFFFFFFFFFFFFFFFFFFFFFFFFFFFFFF MUL NOT AND SWAP1 DUP4 PUSH20 0xFFFFFFFFFFFFFFFFFFFFFFFFFFFFFFFFFFFFFFFF AND MUL OR SWAP1 SSTORE POP PUSH2 0xEF JUMP JUMPDEST POP JUMP JUMPDEST PUSH2 0x1BAA DUP1 PUSH3 0xFF PUSH1 0x0 CODECOPY PUSH1 0x0 RETURN INVALID PUSH1 0x80 PUSH1 0x40 MSTORE PUSH1 0x4 CALLDATASIZE LT PUSH2 0x4A JUMPI PUSH1 0x0 CALLDATALOAD PUSH1 0xE0 SHR DUP1 PUSH4 0x4534CD9C EQ PUSH2 0x4F JUMPI DUP1 PUSH4 0x571A26A0 EQ PUSH2 0x8C JUMPI DUP1 PUSH4 0x8DA5CB5B EQ PUSH2 0xD0 JUMPI DUP1 PUSH4 0xD96A094A EQ PUSH2 0xFB JUMPI DUP1 PUSH4 0xE9835D15 EQ PUSH2 0x117 JUMPI JUMPDEST PUSH1 0x0 DUP1 REVERT JUMPDEST CALLVALUE DUP1 ISZERO PUSH2 0x5B JUMPI PUSH1 0x0 DUP1 REVERT JUMPDEST POP PUSH2 0x76 PUSH1 0x4 DUP1 CALLDATASIZE SUB DUP2 ADD SWAP1 PUSH2 0x71 SWAP2 SWAP1 PUSH2 0x1485 JUMP JUMPDEST PUSH2 0x140 JUMP JUMPDEST PUSH1 0x40 MLOAD PUSH2 0x83 SWAP2 SWAP1 PUSH2 0x177C JUMP JUMPDEST PUSH1 0x40 MLOAD DUP1 SWAP2 SUB SWAP1 RETURN JUMPDEST CALLVALUE DUP1 ISZERO PUSH2 0x98 JUMPI PUSH1 0x0 DUP1 REVERT JUMPDEST POP PUSH2 0xB3 PUSH1 0x4 DUP1 CALLDATASIZE SUB DUP2 ADD SWAP1 PUSH2 0xAE SWAP2 SWAP1 PUSH2 0x1485 JUMP JUMPDEST PUSH2 0x592 JUMP JUMPDEST PUSH1 0x40 MLOAD PUSH2 0xC7 SWAP9 SWAP8 SWAP7 SWAP6 SWAP5 SWAP4 SWAP3 SWAP2 SWAP1 PUSH2 0x1677 JUMP JUMPDEST PUSH1 0x40 MLOAD DUP1 SWAP2 SUB SWAP1 RETURN JUMPDEST CALLVALUE DUP1 ISZERO PUSH2 0xDC JUMPI PUSH1 0x0 DUP1 REVERT JUMPDEST POP PUSH2 0xE5 PUSH2 0x69F JUMP JUMPDEST PUSH1 0x40 MLOAD PUSH2 0xF2 SWAP2 SWAP1 PUSH2 0x165C JUMP JUMPDEST PUSH1 0x40 MLOAD DUP1 SWAP2 SUB SWAP1 RETURN JUMPDEST PUSH2 0x115 PUSH1 0x4 DUP1 CALLDATASIZE SUB DUP2 ADD SWAP1 PUSH2 0x110 SWAP2 SWAP1 PUSH2 0x1485 JUMP JUMPDEST PUSH2 0x6C3 JUMP JUMPDEST STOP JUMPDEST CALLVALUE DUP1 ISZERO PUSH2 0x123 JUMPI PUSH1 0x0 DUP1 REVERT JUMPDEST POP PUSH2 0x13E PUSH1 0x4 DUP1 CALLDATASIZE SUB DUP2 ADD SWAP1 PUSH2 0x139 SWAP2 SWAP1 PUSH2 0x14AE JUMP JUMPDEST PUSH2 0xEFE JUMP JUMPDEST STOP JUMPDEST PUSH1 0x0 PUSH2 0x16E PUSH32 0x21D0B3E62F4E203BBC57A6DE395A1E8C0D456EC00E482DE09D23BBA9B201CF95 PUSH1 0x0 SHL PUSH2 0x1380 JUMP JUMPDEST PUSH2 0x19A PUSH32 0x6CAE735480C2E39B903620E8C2B20F51B11980DA2A8FC154A426700E44D9C46A PUSH1 0x0 SHL PUSH2 0x1380 JUMP JUMPDEST PUSH2 0x1C6 PUSH32 0x7165249FD2DC0624E70B3B05AFD5EFE242FBC067E4035FC282364DED533914EC PUSH1 0x0 SHL PUSH2 0x1380 JUMP JUMPDEST PUSH1 0x0 PUSH1 0x1 DUP4 DUP2 SLOAD DUP2 LT PUSH2 0x202 JUMPI PUSH32 0x4E487B7100000000000000000000000000000000000000000000000000000000 PUSH1 0x0 MSTORE PUSH1 0x32 PUSH1 0x4 MSTORE PUSH1 0x24 PUSH1 0x0 REVERT JUMPDEST SWAP1 PUSH1 0x0 MSTORE PUSH1 0x20 PUSH1 0x0 KECCAK256 SWAP1 PUSH1 0x8 MUL ADD PUSH1 0x40 MLOAD DUP1 PUSH2 0x100 ADD PUSH1 0x40 MSTORE SWAP1 DUP2 PUSH1 0x0 DUP3 ADD PUSH1 0x0 SWAP1 SLOAD SWAP1 PUSH2 0x100 EXP SWAP1 DIV PUSH20 0xFFFFFFFFFFFFFFFFFFFFFFFFFFFFFFFFFFFFFFFF AND PUSH20 0xFFFFFFFFFFFFFFFFFFFFFFFFFFFFFFFFFFFFFFFF AND PUSH20 0xFFFFFFFFFFFFFFFFFFFFFFFFFFFFFFFFFFFFFFFF AND DUP2 MSTORE PUSH1 0x20 ADD PUSH1 0x1 DUP3 ADD SLOAD DUP2 MSTORE PUSH1 0x20 ADD PUSH1 0x2 DUP3 ADD SLOAD DUP2 MSTORE PUSH1 0x20 ADD PUSH1 0x3 DUP3 ADD SLOAD DUP2 MSTORE PUSH1 0x20 ADD PUSH1 0x4 DUP3 ADD SLOAD DUP2 MSTORE PUSH1 0x20 ADD PUSH1 0x5 DUP3 ADD SLOAD DUP2 MSTORE PUSH1 0x20 ADD PUSH1 0x6 DUP3 ADD DUP1 SLOAD PUSH2 0x2B4 SWAP1 PUSH2 0x19E9 JUMP JUMPDEST DUP1 PUSH1 0x1F ADD PUSH1 0x20 DUP1 SWAP2 DIV MUL PUSH1 0x20 ADD PUSH1 0x40 MLOAD SWAP1 DUP2 ADD PUSH1 0x40 MSTORE DUP1 SWAP3 SWAP2 SWAP1 DUP2 DUP2 MSTORE PUSH1 0x20 ADD DUP3 DUP1 SLOAD PUSH2 0x2E0 SWAP1 PUSH2 0x19E9 JUMP JUMPDEST DUP1 ISZERO PUSH2 0x32D JUMPI DUP1 PUSH1 0x1F LT PUSH2 0x302 JUMPI PUSH2 0x100 DUP1 DUP4 SLOAD DIV MUL DUP4 MSTORE SWAP2 PUSH1 0x20 ADD SWAP2 PUSH2 0x32D JUMP JUMPDEST DUP3 ADD SWAP2 SWAP1 PUSH1 0x0 MSTORE PUSH1 0x20 PUSH1 0x0 KECCAK256 SWAP1 JUMPDEST DUP2 SLOAD DUP2 MSTORE SWAP1 PUSH1 0x1 ADD SWAP1 PUSH1 0x20 ADD DUP1 DUP4 GT PUSH2 0x310 JUMPI DUP3 SWAP1 SUB PUSH1 0x1F AND DUP3 ADD SWAP2 JUMPDEST POP POP POP POP POP DUP2 MSTORE PUSH1 0x20 ADD PUSH1 0x7 DUP3 ADD PUSH1 0x0 SWAP1 SLOAD SWAP1 PUSH2 0x100 EXP SWAP1 DIV PUSH1 0xFF AND ISZERO ISZERO ISZERO ISZERO DUP2 MSTORE POP POP SWAP1 POP PUSH2 0x37F PUSH32 0x225D1A59C8C40F79D00991AE716671FAABCBA1A40A4B7BA3590FBB47F50B5067 PUSH1 0x0 SHL PUSH2 0x1380 JUMP JUMPDEST PUSH2 0x3AB PUSH32 0x5D992DC526023026161C32671E0993877C9004A72277D97688A7B6F2D3778D86 PUSH1 0x0 SHL PUSH2 0x1380 JUMP JUMPDEST PUSH2 0x3D7 PUSH32 0xED80DB890D14932FB2433D70F06C103B2485958D2442C8ADDA998644AC8CDE3F PUSH1 0x0 SHL PUSH2 0x1380 JUMP JUMPDEST DUP1 PUSH1 0xE0 ADD MLOAD ISZERO PUSH2 0x41C JUMPI PUSH1 0x40 MLOAD PUSH32 0x8C379A000000000000000000000000000000000000000000000000000000000 DUP2 MSTORE PUSH1 0x4 ADD PUSH2 0x413 SWAP1 PUSH2 0x171C JUMP JUMPDEST PUSH1 0x40 MLOAD DUP1 SWAP2 SUB SWAP1 REVERT JUMPDEST PUSH2 0x448 PUSH32 0xEFA38EDE705FFFE011999810263CCCA7C03BE6B44596F6BEB836C1A4FFEEADDC PUSH1 0x0 SHL PUSH2 0x1380 JUMP JUMPDEST PUSH2 0x474 PUSH32 0xEAE8DF67A5AC6D85C90920BA2F98F50E65CCC2BA1999EF9B4CDD60B30FA6C1C3 PUSH1 0x0 SHL PUSH2 0x1380 JUMP JUMPDEST PUSH2 0x4A0 PUSH32 0xBC7B93E8AFBADB9BFB8884609DC13D224B4FA04BC8C1AC2C1A49A0CFE186870 PUSH1 0x0 SHL PUSH2 0x1380 JUMP JUMPDEST PUSH1 0x0 DUP2 PUSH1 0x60 ADD MLOAD TIMESTAMP PUSH2 0x4B2 SWAP2 SWAP1 PUSH2 0x1919 JUMP JUMPDEST SWAP1 POP PUSH2 0x4E0 PUSH32 0xA69460BAF7AE474C95DB262F8E3F7C35B792F6ABAA535B3F0AEE07D6BD7807FE PUSH1 0x0 SHL PUSH2 0x1380 JUMP JUMPDEST PUSH2 0x50C PUSH32 0x70DC7C84FCE034C657206618EA84A88B4260086AA47C3913D075F6B31C5608D2 PUSH1 0x0 SHL PUSH2 0x1380 JUMP JUMPDEST PUSH1 0x0 DUP2 DUP4 PUSH1 0xA0 ADD MLOAD PUSH2 0x51E SWAP2 SWAP1 PUSH2 0x18BF JUMP JUMPDEST SWAP1 POP PUSH2 0x54C PUSH32 0xA474E72CE8B77DB7060D68B6D1385A3B252E2F8B93802BACFC26EB1FE0EB7314 PUSH1 0x0 SHL PUSH2 0x1380 JUMP JUMPDEST PUSH2 0x578 PUSH32 0xE5080B7800FE02121C6ED1AA1B6BEBEE0CC13DE3E66A0C691ADD3ACC9BDFCC99 PUSH1 0x0 SHL PUSH2 0x1380 JUMP JUMPDEST DUP1 DUP4 PUSH1 0x20 ADD MLOAD PUSH2 0x588 SWAP2 SWAP1 PUSH2 0x1919 JUMP JUMPDEST SWAP4 POP POP POP POP SWAP2 SWAP1 POP JUMP JUMPDEST PUSH1 0x1 DUP2 DUP2 SLOAD DUP2 LT PUSH2 0x5A2 JUMPI PUSH1 0x0 DUP1 REVERT JUMPDEST SWAP1 PUSH1 0x0 MSTORE PUSH1 0x20 PUSH1 0x0 KECCAK256 SWAP1 PUSH1 0x8 MUL ADD PUSH1 0x0 SWAP2 POP SWAP1 POP DUP1 PUSH1 0x0 ADD PUSH1 0x0 SWAP1 SLOAD SWAP1 PUSH2 0x100 EXP SWAP1 DIV PUSH20 0xFFFFFFFFFFFFFFFFFFFFFFFFFFFFFFFFFFFFFFFF AND SWAP1 DUP1 PUSH1 0x1 ADD SLOAD SWAP1 DUP1 PUSH1 0x2 ADD SLOAD SWAP1 DUP1 PUSH1 0x3 ADD SLOAD SWAP1 DUP1 PUSH1 0x4 ADD SLOAD SWAP1 DUP1 PUSH1 0x5 ADD SLOAD SWAP1 DUP1 PUSH1 0x6 ADD DUP1 SLOAD PUSH2 0x609 SWAP1 PUSH2 0x19E9 JUMP JUMPDEST DUP1 PUSH1 0x1F ADD PUSH1 0x20 DUP1 SWAP2 DIV MUL PUSH1 0x20 ADD PUSH1 0x40 MLOAD SWAP1 DUP2 ADD PUSH1 0x40 MSTORE DUP1 SWAP3 SWAP2 SWAP1 DUP2 DUP2 MSTORE PUSH1 0x20 ADD DUP3 DUP1 SLOAD PUSH2 0x635 SWAP1 PUSH2 0x19E9 JUMP JUMPDEST DUP1 ISZERO PUSH2 0x682 JUMPI DUP1 PUSH1 0x1F LT PUSH2 0x657 JUMPI PUSH2 0x100 DUP1 DUP4 SLOAD DIV MUL DUP4 MSTORE SWAP2 PUSH1 0x20 ADD SWAP2 PUSH2 0x682 JUMP JUMPDEST DUP3 ADD SWAP2 SWAP1 PUSH1 0x0 MSTORE PUSH1 0x20 PUSH1 0x0 KECCAK256 SWAP1 JUMPDEST DUP2 SLOAD DUP2 MSTORE SWAP1 PUSH1 0x1 ADD SWAP1 PUSH1 0x20 ADD DUP1 DUP4 GT PUSH2 0x665 JUMPI DUP3 SWAP1 SUB PUSH1 0x1F AND DUP3 ADD SWAP2 JUMPDEST POP POP POP POP POP SWAP1 DUP1 PUSH1 0x7 ADD PUSH1 0x0 SWAP1 SLOAD SWAP1 PUSH2 0x100 EXP SWAP1 DIV PUSH1 0xFF AND SWAP1 POP DUP9 JUMP JUMPDEST PUSH1 0x0 DUP1 SLOAD SWAP1 PUSH2 0x100 EXP SWAP1 DIV PUSH20 0xFFFFFFFFFFFFFFFFFFFFFFFFFFFFFFFFFFFFFFFF AND DUP2 JUMP JUMPDEST PUSH2 0x6EF PUSH32 0x3C51D09EA0ED51072CE1EB69F8A02A58D12EAFB487DEF4BBE5F1D7A0410F00D1 PUSH1 0x0 SHL PUSH2 0x1380 JUMP JUMPDEST PUSH2 0x71B PUSH32 0x72A249B3D3720FC07E48D7DD148B273AD8E1111E7C993597D5F44B4C2DDDFF4A PUSH1 0x0 SHL PUSH2 0x1380 JUMP JUMPDEST PUSH2 0x747 PUSH32 0x15DCF94359CA071DF1D540DE5C1AF4BEA1F44D43253C781919D2739C90396C29 PUSH1 0x0 SHL PUSH2 0x1380 JUMP JUMPDEST PUSH1 0x0 PUSH1 0x1 DUP3 DUP2 SLOAD DUP2 LT PUSH2 0x783 JUMPI PUSH32 0x4E487B7100000000000000000000000000000000000000000000000000000000 PUSH1 0x0 MSTORE PUSH1 0x32 PUSH1 0x4 MSTORE PUSH1 0x24 PUSH1 0x0 REVERT JUMPDEST SWAP1 PUSH1 0x0 MSTORE PUSH1 0x20 PUSH1 0x0 KECCAK256 SWAP1 PUSH1 0x8 MUL ADD SWAP1 POP PUSH2 0x7BF PUSH32 0xD460204F4744C5B282F90D66A9E7EDFBDDCFD7D28A7D01B2FEA28342792FDA86 PUSH1 0x0 SHL PUSH2 0x1380 JUMP JUMPDEST PUSH2 0x7EB PUSH32 0x4FC0230017709550F8012C12BD8C44E15AB206B969BBE71F20C80EFACFD9C9B9 PUSH1 0x0 SHL PUSH2 0x1380 JUMP JUMPDEST PUSH2 0x817 PUSH32 0x4103370365670B3AD2458346E52AEEDB77306F6DFD90AEBDE2970BEC17937605 PUSH1 0x0 SHL PUSH2 0x1380 JUMP JUMPDEST DUP1 PUSH1 0x7 ADD PUSH1 0x0 SWAP1 SLOAD SWAP1 PUSH2 0x100 EXP SWAP1 DIV PUSH1 0xFF AND ISZERO PUSH2 0x869 JUMPI PUSH1 0x40 MLOAD PUSH32 0x8C379A000000000000000000000000000000000000000000000000000000000 DUP2 MSTORE PUSH1 0x4 ADD PUSH2 0x860 SWAP1 PUSH2 0x171C JUMP JUMPDEST PUSH1 0x40 MLOAD DUP1 SWAP2 SUB SWAP1 REVERT JUMPDEST PUSH2 0x895 PUSH32 0xD160CF98A246ABBBAAD881D424ED6C4D3E1A26D702471106EC31B20904A9047A PUSH1 0x0 SHL PUSH2 0x1380 JUMP JUMPDEST PUSH2 0x8C1 PUSH32 0x603C5CC5133B78613724480893E177ABC78F1BD64A4DE0A64E833512CA0FA98 PUSH1 0x0 SHL PUSH2 0x1380 JUMP JUMPDEST PUSH2 0x8ED PUSH32 0x364C1B50E49F572F5173E547F45BE5A3FD32761AAC9C774375CEA6B79D3CC159 PUSH1 0x0 SHL PUSH2 0x1380 JUMP JUMPDEST PUSH2 0x919 PUSH32 0xE70EE11FF00FC9679A0B24A85F9B25DB708B1731F9D4AC6B96BF0725C626D0CD PUSH1 0x0 SHL PUSH2 0x1380 JUMP JUMPDEST DUP1 PUSH1 0x4 ADD SLOAD TIMESTAMP LT PUSH2 0x95F JUMPI PUSH1 0x40 MLOAD PUSH32 0x8C379A000000000000000000000000000000000000000000000000000000000 DUP2 MSTORE PUSH1 0x4 ADD PUSH2 0x956 SWAP1 PUSH2 0x175C JUMP JUMPDEST PUSH1 0x40 MLOAD DUP1 SWAP2 SUB SWAP1 REVERT JUMPDEST PUSH2 0x98B PUSH32 0x5EF5F7F4BA841674B23D54B8B2F0AA66ED98A5D05C811FC00FD6654F21AFBF8B PUSH1 0x0 SHL PUSH2 0x1380 JUMP JUMPDEST PUSH2 0x9B7 PUSH32 0xA8ED102DBD05A09B4BF9404CC41AB559C6EDADBB2A31CEEBC73B0F37E32B58F2 PUSH1 0x0 SHL PUSH2 0x1380 JUMP JUMPDEST PUSH2 0x9E3 PUSH32 0x36EE4CA2D68973E97ACFF5CD0070DBCCD5BD2524352B00934DB129BCF95C28AB PUSH1 0x0 SHL PUSH2 0x1380 JUMP JUMPDEST PUSH1 0x0 PUSH2 0x9EE DUP4 PUSH2 0x140 JUMP JUMPDEST SWAP1 POP PUSH2 0xA1C PUSH32 0x7D39226A3FD33D4F21E4B47E32147C2D9F5DA1AAB1502AA8DAC50E784CD69E4 PUSH1 0x0 SHL PUSH2 0x1380 JUMP JUMPDEST PUSH2 0xA48 PUSH32 0xB7861BE0F66191F1A5C57214173844FB6F0D1A323F17AB719BCC4C9D4157D99A PUSH1 0x0 SHL PUSH2 0x1380 JUMP JUMPDEST PUSH2 0xA74 PUSH32 0xF06515C81FCE9C21AA73C75910CBBBC4F8A25AC441023B611EA5ECF017B85F8F PUSH1 0x0 SHL PUSH2 0x1380 JUMP JUMPDEST DUP1 CALLVALUE LT ISZERO PUSH2 0xAB7 JUMPI PUSH1 0x40 MLOAD PUSH32 0x8C379A000000000000000000000000000000000000000000000000000000000 DUP2 MSTORE PUSH1 0x4 ADD PUSH2 0xAAE SWAP1 PUSH2 0x173C JUMP JUMPDEST PUSH1 0x40 MLOAD DUP1 SWAP2 SUB SWAP1 REVERT JUMPDEST PUSH2 0xAE3 PUSH32 0xEF5875DBC63403F8E94E413C4C4F7026A0280CC1D91E86AFD6C589C3E897C19D PUSH1 0x0 SHL PUSH2 0x1380 JUMP JUMPDEST PUSH2 0xB0F PUSH32 0xD05EBA1E5ECCA0C7FCC660CB23FDCD4FA80EED33B6FC79C31BE7E535930788F4 PUSH1 0x0 SHL PUSH2 0x1380 JUMP JUMPDEST PUSH2 0xB3B PUSH32 0x961636A7DFE3F5CABF0B2979603A2282E487EBA22B9545A8E6E93FAE1CAFCA88 PUSH1 0x0 SHL PUSH2 0x1380 JUMP JUMPDEST PUSH1 0x1 DUP3 PUSH1 0x7 ADD PUSH1 0x0 PUSH2 0x100 EXP DUP2 SLOAD DUP2 PUSH1 0xFF MUL NOT AND SWAP1 DUP4 ISZERO ISZERO MUL OR SWAP1 SSTORE POP PUSH2 0xB84 PUSH32 0xE8FA754B6B4DE6374E7533511DCDDA2E10F2112E5A407AA178060B27E77993A1 PUSH1 0x0 SHL PUSH2 0x1380 JUMP JUMPDEST PUSH2 0xBB0 PUSH32 0x78ABDDCA60AA9293F83B8D9C0C43FE43972A03D178A3262C4B556D4A46C95982 PUSH1 0x0 SHL PUSH2 0x1380 JUMP JUMPDEST DUP1 DUP3 PUSH1 0x2 ADD DUP2 SWAP1 SSTORE POP PUSH2 0xBE5 PUSH32 0x2D4E0D9F94CC66B6C10DE93C813947F88F140D4E71166966A8A45B499F72D0C1 PUSH1 0x0 SHL PUSH2 0x1380 JUMP JUMPDEST PUSH2 0xC11 PUSH32 0xAFA56CE738BCF54833FD05B7C26CFE61D8944BFECB7E47E251A2AFE913E8D409 PUSH1 0x0 SHL PUSH2 0x1380 JUMP JUMPDEST PUSH1 0x0 DUP2 CALLVALUE PUSH2 0xC1F SWAP2 SWAP1 PUSH2 0x1919 JUMP JUMPDEST SWAP1 POP PUSH2 0xC4D PUSH32 0xDBCF66EA56B7202E04B2A10D4D20A84DEDFC403A1B31C27F7F072EA46BD9DCED PUSH1 0x0 SHL PUSH2 0x1380 JUMP JUMPDEST PUSH2 0xC79 PUSH32 0x97FFDE05E43B21365E964A058B1C8AB5591C48434BFD2BD94A6E5EA2C70F1298 PUSH1 0x0 SHL PUSH2 0x1380 JUMP JUMPDEST PUSH1 0x0 DUP2 GT ISZERO PUSH2 0xD52 JUMPI PUSH2 0xCAE PUSH32 0xF732F750D8BA4E7A4AA334E2063233D90FC3E2D4901D2B4E181473A1D17AC324 PUSH1 0x0 SHL PUSH2 0x1380 JUMP JUMPDEST PUSH2 0xCDA PUSH32 0x4C2C94001F1D0197C280A15BCDB10560F5ED9837AA956275AB913034E4DFFDC8 PUSH1 0x0 SHL PUSH2 0x1380 JUMP JUMPDEST PUSH2 0xD06 PUSH32 0x55A074A921C06A467A04CF2E393AF730477514BDD81ACEB61CD9961D7A381642 PUSH1 0x0 SHL PUSH2 0x1380 JUMP JUMPDEST CALLER PUSH20 0xFFFFFFFFFFFFFFFFFFFFFFFFFFFFFFFFFFFFFFFF AND PUSH2 0x8FC DUP3 SWAP1 DUP2 ISZERO MUL SWAP1 PUSH1 0x40 MLOAD PUSH1 0x0 PUSH1 0x40 MLOAD DUP1 DUP4 SUB DUP2 DUP6 DUP9 DUP9 CALL SWAP4 POP POP POP POP ISZERO DUP1 ISZERO PUSH2 0xD4C JUMPI RETURNDATASIZE PUSH1 0x0 DUP1 RETURNDATACOPY RETURNDATASIZE PUSH1 0x0 REVERT JUMPDEST POP PUSH2 0xD7F JUMP JUMPDEST PUSH2 0xD7E PUSH32 0x61BCFE2A9ED72ED497076E2934AD7D18D9D9ED48815E4D19B87AFC87DBB528DF PUSH1 0x0 SHL PUSH2 0x1380 JUMP JUMPDEST JUMPDEST PUSH2 0xDAB PUSH32 0x6E0263EF3A642A66981764ED1DF41801D57DBDF7CAE9320D1BD89F3FAF1EEC38 PUSH1 0x0 SHL PUSH2 0x1380 JUMP JUMPDEST PUSH2 0xDD7 PUSH32 0x2EC519969615C0FE2552BCD45D6ADA72AB9D4948C054140798747677438FBB0F PUSH1 0x0 SHL PUSH2 0x1380 JUMP JUMPDEST DUP3 PUSH1 0x0 ADD PUSH1 0x0 SWAP1 SLOAD SWAP1 PUSH2 0x100 EXP SWAP1 DIV PUSH20 0xFFFFFFFFFFFFFFFFFFFFFFFFFFFFFFFFFFFFFFFF AND PUSH20 0xFFFFFFFFFFFFFFFFFFFFFFFFFFFFFFFFFFFFFFFF AND PUSH2 0x8FC PUSH1 0x64 PUSH1 0xA DUP6 PUSH2 0xE24 SWAP2 SWAP1 PUSH2 0x18BF JUMP JUMPDEST PUSH2 0xE2E SWAP2 SWAP1 PUSH2 0x188E JUMP JUMPDEST DUP5 PUSH2 0xE39 SWAP2 SWAP1 PUSH2 0x1919 JUMP JUMPDEST SWAP1 DUP2 ISZERO MUL SWAP1 PUSH1 0x40 MLOAD PUSH1 0x0 PUSH1 0x40 MLOAD DUP1 DUP4 SUB DUP2 DUP6 DUP9 DUP9 CALL SWAP4 POP POP POP POP ISZERO DUP1 ISZERO PUSH2 0xE64 JUMPI RETURNDATASIZE PUSH1 0x0 DUP1 RETURNDATACOPY RETURNDATASIZE PUSH1 0x0 REVERT JUMPDEST POP PUSH2 0xE91 PUSH32 0x219DFF61B2E79EA511A7F81D52CB42BAC199EEFCD8C1F6DC6B2ECAC003C3ADF7 PUSH1 0x0 SHL PUSH2 0x1380 JUMP JUMPDEST PUSH2 0xEBD PUSH32 0x1D5760C0F02D75CA4D35A6B40D16FB1DAE26206A21C5F5BFB72892D39E7694E8 PUSH1 0x0 SHL PUSH2 0x1380 JUMP JUMPDEST PUSH32 0xBAFC4BDA865D4D1F8D5B16F883E996FDE0FE71112FAC81503876D35375694400 DUP5 DUP4 CALLER PUSH1 0x40 MLOAD PUSH2 0xEF0 SWAP4 SWAP3 SWAP2 SWAP1 PUSH2 0x17E5 JUMP JUMPDEST PUSH1 0x40 MLOAD DUP1 SWAP2 SUB SWAP1 LOG1 POP POP POP POP JUMP JUMPDEST PUSH2 0xF2A PUSH32 0x2829D56F509A0CF8164AE7F87263F5F51430BC7CD4A2DC745E03A000750C6962 PUSH1 0x0 SHL PUSH2 0x1380 JUMP JUMPDEST PUSH2 0xF56 PUSH32 0xF7BB795015B8BE0F1523BE08296ED2F3E5B5D8F70DB838DB1A2784F19ABB018D PUSH1 0x0 SHL PUSH2 0x1380 JUMP JUMPDEST PUSH2 0xF82 PUSH32 0x639A6FC63B1A566476EC6D87A287D90A91339AEE7988C9BF52A2361557D59A7E PUSH1 0x0 SHL PUSH2 0x1380 JUMP JUMPDEST PUSH1 0x0 DUP1 DUP3 EQ PUSH2 0xF91 JUMPI DUP2 PUSH2 0xF96 JUMP JUMPDEST PUSH3 0x2A300 JUMPDEST SWAP1 POP PUSH2 0xFC4 PUSH32 0xF438ECBE47F8E6BA920920DB1DDCF7C00A474928A4AE6748744018737EF65733 PUSH1 0x0 SHL PUSH2 0x1380 JUMP JUMPDEST PUSH2 0xFF0 PUSH32 0x4B73AE1CDE97CB9BB00019E6A78E424D70808C61F901FB6C79EEC394BBC7F6BF PUSH1 0x0 SHL PUSH2 0x1380 JUMP JUMPDEST PUSH2 0x101C PUSH32 0xE242C18E3D95BDE9174F7000D379F6616C973D0A481D0CF1E561182A6723FAAD PUSH1 0x0 SHL PUSH2 0x1380 JUMP JUMPDEST DUP1 DUP6 PUSH2 0x1028 SWAP2 SWAP1 PUSH2 0x18BF JUMP JUMPDEST DUP7 LT ISZERO PUSH2 0x106A JUMPI PUSH1 0x40 MLOAD PUSH32 0x8C379A000000000000000000000000000000000000000000000000000000000 DUP2 MSTORE PUSH1 0x4 ADD PUSH2 0x1061 SWAP1 PUSH2 0x16FC JUMP JUMPDEST PUSH1 0x40 MLOAD DUP1 SWAP2 SUB SWAP1 REVERT JUMPDEST PUSH2 0x1096 PUSH32 0xA0E86FE9926A855A782A7E8FDBFFA85888096A9D7CF5687230930A8570F231BC PUSH1 0x0 SHL PUSH2 0x1380 JUMP JUMPDEST PUSH2 0x10C2 PUSH32 0x52636E33F28CC36514DA303F71383D57D382DB81C25767D701F12743EE0CFA7E PUSH1 0x0 SHL PUSH2 0x1380 JUMP JUMPDEST PUSH2 0x10EE PUSH32 0xC437AEAC9ED0A2B2F132033B7010E8C8BA1B8AE9D8CDD832719B4254CD2A54D6 PUSH1 0x0 SHL PUSH2 0x1380 JUMP JUMPDEST PUSH1 0x0 PUSH1 0x40 MLOAD DUP1 PUSH2 0x100 ADD PUSH1 0x40 MSTORE DUP1 CALLER PUSH20 0xFFFFFFFFFFFFFFFFFFFFFFFFFFFFFFFFFFFFFFFF AND DUP2 MSTORE PUSH1 0x20 ADD DUP9 DUP2 MSTORE PUSH1 0x20 ADD DUP9 DUP2 MSTORE PUSH1 0x20 ADD TIMESTAMP DUP2 MSTORE PUSH1 0x20 ADD DUP4 TIMESTAMP PUSH2 0x1136 SWAP2 SWAP1 PUSH2 0x1838 JUMP JUMPDEST DUP2 MSTORE PUSH1 0x20 ADD DUP8 DUP2 MSTORE PUSH1 0x20 ADD DUP7 DUP7 DUP1 DUP1 PUSH1 0x1F ADD PUSH1 0x20 DUP1 SWAP2 DIV MUL PUSH1 0x20 ADD PUSH1 0x40 MLOAD SWAP1 DUP2 ADD PUSH1 0x40 MSTORE DUP1 SWAP4 SWAP3 SWAP2 SWAP1 DUP2 DUP2 MSTORE PUSH1 0x20 ADD DUP4 DUP4 DUP1 DUP3 DUP5 CALLDATACOPY PUSH1 0x0 DUP2 DUP5 ADD MSTORE PUSH1 0x1F NOT PUSH1 0x1F DUP3 ADD AND SWAP1 POP DUP1 DUP4 ADD SWAP3 POP POP POP POP POP POP POP DUP2 MSTORE PUSH1 0x20 ADD PUSH1 0x0 ISZERO ISZERO DUP2 MSTORE POP SWAP1 POP PUSH2 0x11C0 PUSH32 0x96F554553E8683490B370615633298FEF3E14310A1C751AAA00E050EF94A1742 PUSH1 0x0 SHL PUSH2 0x1380 JUMP JUMPDEST PUSH2 0x11EC PUSH32 0x7E0C892AE720FC3249B02002E5E007F1F1D4E7A75BECA3EACDB55401113A7BBA PUSH1 0x0 SHL PUSH2 0x1380 JUMP JUMPDEST PUSH1 0x1 DUP2 SWAP1 DUP1 PUSH1 0x1 DUP2 SLOAD ADD DUP1 DUP3 SSTORE DUP1 SWAP2 POP POP PUSH1 0x1 SWAP1 SUB SWAP1 PUSH1 0x0 MSTORE PUSH1 0x20 PUSH1 0x0 KECCAK256 SWAP1 PUSH1 0x8 MUL ADD PUSH1 0x0 SWAP1 SWAP2 SWAP1 SWAP2 SWAP1 SWAP2 POP PUSH1 0x0 DUP3 ADD MLOAD DUP2 PUSH1 0x0 ADD PUSH1 0x0 PUSH2 0x100 EXP DUP2 SLOAD DUP2 PUSH20 0xFFFFFFFFFFFFFFFFFFFFFFFFFFFFFFFFFFFFFFFF MUL NOT AND SWAP1 DUP4 PUSH20 0xFFFFFFFFFFFFFFFFFFFFFFFFFFFFFFFFFFFFFFFF AND MUL OR SWAP1 SSTORE POP PUSH1 0x20 DUP3 ADD MLOAD DUP2 PUSH1 0x1 ADD SSTORE PUSH1 0x40 DUP3 ADD MLOAD DUP2 PUSH1 0x2 ADD SSTORE PUSH1 0x60 DUP3 ADD MLOAD DUP2 PUSH1 0x3 ADD SSTORE PUSH1 0x80 DUP3 ADD MLOAD DUP2 PUSH1 0x4 ADD SSTORE PUSH1 0xA0 DUP3 ADD MLOAD DUP2 PUSH1 0x5 ADD SSTORE PUSH1 0xC0 DUP3 ADD MLOAD DUP2 PUSH1 0x6 ADD SWAP1 DUP1 MLOAD SWAP1 PUSH1 0x20 ADD SWAP1 PUSH2 0x12AD SWAP3 SWAP2 SWAP1 PUSH2 0x1383 JUMP JUMPDEST POP PUSH1 0xE0 DUP3 ADD MLOAD DUP2 PUSH1 0x7 ADD PUSH1 0x0 PUSH2 0x100 EXP DUP2 SLOAD DUP2 PUSH1 0xFF MUL NOT AND SWAP1 DUP4 ISZERO ISZERO MUL OR SWAP1 SSTORE POP POP POP PUSH2 0x12FC PUSH32 0x29524D0CA9E34D007BE4BAAE089EE85187CB135B1E6A7BA14D8E612916C9E89F PUSH1 0x0 SHL PUSH2 0x1380 JUMP JUMPDEST PUSH2 0x1328 PUSH32 0x71B099EC24B2D757A7C62E5502330D5E7D2C0906AC178E20EFFAD783A9FC07CA PUSH1 0x0 SHL PUSH2 0x1380 JUMP JUMPDEST PUSH32 0x5BF34ED94988E5DCDC7D1FAAA54EB1D3B55F45D5F11457E235AFB21A8EBBE73C PUSH1 0x1 DUP1 DUP1 SLOAD SWAP1 POP PUSH2 0x135A SWAP2 SWAP1 PUSH2 0x1919 JUMP JUMPDEST DUP7 DUP7 DUP11 DUP7 PUSH1 0x40 MLOAD PUSH2 0x136F SWAP6 SWAP5 SWAP4 SWAP3 SWAP2 SWAP1 PUSH2 0x1797 JUMP JUMPDEST PUSH1 0x40 MLOAD DUP1 SWAP2 SUB SWAP1 LOG1 POP POP POP POP POP POP POP JUMP JUMPDEST POP JUMP JUMPDEST DUP3 DUP1 SLOAD PUSH2 0x138F SWAP1 PUSH2 0x19E9 JUMP JUMPDEST SWAP1 PUSH1 0x0 MSTORE PUSH1 0x20 PUSH1 0x0 KECCAK256 SWAP1 PUSH1 0x1F ADD PUSH1 0x20 SWAP1 DIV DUP2 ADD SWAP3 DUP3 PUSH2 0x13B1 JUMPI PUSH1 0x0 DUP6 SSTORE PUSH2 0x13F8 JUMP JUMPDEST DUP3 PUSH1 0x1F LT PUSH2 0x13CA JUMPI DUP1 MLOAD PUSH1 0xFF NOT AND DUP4 DUP1 ADD OR DUP6 SSTORE PUSH2 0x13F8 JUMP JUMPDEST DUP3 DUP1 ADD PUSH1 0x1 ADD DUP6 SSTORE DUP3 ISZERO PUSH2 0x13F8 JUMPI SWAP2 DUP3 ADD JUMPDEST DUP3 DUP2 GT ISZERO PUSH2 0x13F7 JUMPI DUP3 MLOAD DUP3 SSTORE SWAP2 PUSH1 0x20 ADD SWAP2 SWAP1 PUSH1 0x1 ADD SWAP1 PUSH2 0x13DC JUMP JUMPDEST JUMPDEST POP SWAP1 POP PUSH2 0x1405 SWAP2 SWAP1 PUSH2 0x1409 JUMP JUMPDEST POP SWAP1 JUMP JUMPDEST JUMPDEST DUP1 DUP3 GT ISZERO PUSH2 0x1422 JUMPI PUSH1 0x0 DUP2 PUSH1 0x0 SWAP1 SSTORE POP PUSH1 0x1 ADD PUSH2 0x140A JUMP JUMPDEST POP SWAP1 JUMP JUMPDEST PUSH1 0x0 DUP1 DUP4 PUSH1 0x1F DUP5 ADD SLT PUSH2 0x1438 JUMPI PUSH1 0x0 DUP1 REVERT JUMPDEST DUP3 CALLDATALOAD SWAP1 POP PUSH8 0xFFFFFFFFFFFFFFFF DUP2 GT ISZERO PUSH2 0x1451 JUMPI PUSH1 0x0 DUP1 REVERT JUMPDEST PUSH1 0x20 DUP4 ADD SWAP2 POP DUP4 PUSH1 0x1 DUP3 MUL DUP4 ADD GT ISZERO PUSH2 0x1469 JUMPI PUSH1 0x0 DUP1 REVERT JUMPDEST SWAP3 POP SWAP3 SWAP1 POP JUMP JUMPDEST PUSH1 0x0 DUP2 CALLDATALOAD SWAP1 POP PUSH2 0x147F DUP2 PUSH2 0x1B5D JUMP JUMPDEST SWAP3 SWAP2 POP POP JUMP JUMPDEST PUSH1 0x0 PUSH1 0x20 DUP3 DUP5 SUB SLT ISZERO PUSH2 0x1497 JUMPI PUSH1 0x0 DUP1 REVERT JUMPDEST PUSH1 0x0 PUSH2 0x14A5 DUP5 DUP3 DUP6 ADD PUSH2 0x1470 JUMP JUMPDEST SWAP2 POP POP SWAP3 SWAP2 POP POP JUMP JUMPDEST PUSH1 0x0 DUP1 PUSH1 0x0 DUP1 PUSH1 0x0 PUSH1 0x80 DUP7 DUP9 SUB SLT ISZERO PUSH2 0x14C6 JUMPI PUSH1 0x0 DUP1 REVERT JUMPDEST PUSH1 0x0 PUSH2 0x14D4 DUP9 DUP3 DUP10 ADD PUSH2 0x1470 JUMP JUMPDEST SWAP6 POP POP PUSH1 0x20 PUSH2 0x14E5 DUP9 DUP3 DUP10 ADD PUSH2 0x1470 JUMP JUMPDEST SWAP5 POP POP PUSH1 0x40 DUP7 ADD CALLDATALOAD PUSH8 0xFFFFFFFFFFFFFFFF DUP2 GT ISZERO PUSH2 0x1502 JUMPI PUSH1 0x0 DUP1 REVERT JUMPDEST PUSH2 0x150E DUP9 DUP3 DUP10 ADD PUSH2 0x1426 JUMP JUMPDEST SWAP4 POP SWAP4 POP POP PUSH1 0x60 PUSH2 0x1521 DUP9 DUP3 DUP10 ADD PUSH2 0x1470 JUMP JUMPDEST SWAP2 POP POP SWAP3 SWAP6 POP SWAP3 SWAP6 SWAP1 SWAP4 POP JUMP JUMPDEST PUSH2 0x1537 DUP2 PUSH2 0x195F JUMP JUMPDEST DUP3 MSTORE POP POP JUMP JUMPDEST PUSH2 0x1546 DUP2 PUSH2 0x194D JUMP JUMPDEST DUP3 MSTORE POP POP JUMP JUMPDEST PUSH2 0x1555 DUP2 PUSH2 0x1971 JUMP JUMPDEST DUP3 MSTORE POP POP JUMP JUMPDEST PUSH1 0x0 PUSH2 0x1567 DUP4 DUP6 PUSH2 0x1827 JUMP JUMPDEST SWAP4 POP PUSH2 0x1574 DUP4 DUP6 DUP5 PUSH2 0x19A7 JUMP JUMPDEST PUSH2 0x157D DUP4 PUSH2 0x1AA8 JUMP JUMPDEST DUP5 ADD SWAP1 POP SWAP4 SWAP3 POP POP POP JUMP JUMPDEST PUSH1 0x0 PUSH2 0x1593 DUP3 PUSH2 0x181C JUMP JUMPDEST PUSH2 0x159D DUP2 DUP6 PUSH2 0x1827 JUMP JUMPDEST SWAP4 POP PUSH2 0x15AD DUP2 DUP6 PUSH1 0x20 DUP7 ADD PUSH2 0x19B6 JUMP JUMPDEST PUSH2 0x15B6 DUP2 PUSH2 0x1AA8 JUMP JUMPDEST DUP5 ADD SWAP2 POP POP SWAP3 SWAP2 POP POP JUMP JUMPDEST PUSH1 0x0 PUSH2 0x15CE PUSH1 0x18 DUP4 PUSH2 0x1827 JUMP JUMPDEST SWAP2 POP PUSH2 0x15D9 DUP3 PUSH2 0x1AB9 JUMP JUMPDEST PUSH1 0x20 DUP3 ADD SWAP1 POP SWAP2 SWAP1 POP JUMP JUMPDEST PUSH1 0x0 PUSH2 0x15F1 PUSH1 0xF DUP4 PUSH2 0x1827 JUMP JUMPDEST SWAP2 POP PUSH2 0x15FC DUP3 PUSH2 0x1AE2 JUMP JUMPDEST PUSH1 0x20 DUP3 ADD SWAP1 POP SWAP2 SWAP1 POP JUMP JUMPDEST PUSH1 0x0 PUSH2 0x1614 PUSH1 0x10 DUP4 PUSH2 0x1827 JUMP JUMPDEST SWAP2 POP PUSH2 0x161F DUP3 PUSH2 0x1B0B JUMP JUMPDEST PUSH1 0x20 DUP3 ADD SWAP1 POP SWAP2 SWAP1 POP JUMP JUMPDEST PUSH1 0x0 PUSH2 0x1637 PUSH1 0xD DUP4 PUSH2 0x1827 JUMP JUMPDEST SWAP2 POP PUSH2 0x1642 DUP3 PUSH2 0x1B34 JUMP JUMPDEST PUSH1 0x20 DUP3 ADD SWAP1 POP SWAP2 SWAP1 POP JUMP JUMPDEST PUSH2 0x1656 DUP2 PUSH2 0x199D JUMP JUMPDEST DUP3 MSTORE POP POP JUMP JUMPDEST PUSH1 0x0 PUSH1 0x20 DUP3 ADD SWAP1 POP PUSH2 0x1671 PUSH1 0x0 DUP4 ADD DUP5 PUSH2 0x153D JUMP JUMPDEST SWAP3 SWAP2 POP POP JUMP JUMPDEST PUSH1 0x0 PUSH2 0x100 DUP3 ADD SWAP1 POP PUSH2 0x168D PUSH1 0x0 DUP4 ADD DUP12 PUSH2 0x152E JUMP JUMPDEST PUSH2 0x169A PUSH1 0x20 DUP4 ADD DUP11 PUSH2 0x164D JUMP JUMPDEST PUSH2 0x16A7 PUSH1 0x40 DUP4 ADD DUP10 PUSH2 0x164D JUMP JUMPDEST PUSH2 0x16B4 PUSH1 0x60 DUP4 ADD DUP9 PUSH2 0x164D JUMP JUMPDEST PUSH2 0x16C1 PUSH1 0x80 DUP4 ADD DUP8 PUSH2 0x164D JUMP JUMPDEST PUSH2 0x16CE PUSH1 0xA0 DUP4 ADD DUP7 PUSH2 0x164D JUMP JUMPDEST DUP2 DUP2 SUB PUSH1 0xC0 DUP4 ADD MSTORE PUSH2 0x16E0 DUP2 DUP6 PUSH2 0x1588 JUMP JUMPDEST SWAP1 POP PUSH2 0x16EF PUSH1 0xE0 DUP4 ADD DUP5 PUSH2 0x154C JUMP JUMPDEST SWAP10 SWAP9 POP POP POP POP POP POP POP POP POP JUMP JUMPDEST PUSH1 0x0 PUSH1 0x20 DUP3 ADD SWAP1 POP DUP2 DUP2 SUB PUSH1 0x0 DUP4 ADD MSTORE PUSH2 0x1715 DUP2 PUSH2 0x15C1 JUMP JUMPDEST SWAP1 POP SWAP2 SWAP1 POP JUMP JUMPDEST PUSH1 0x0 PUSH1 0x20 DUP3 ADD SWAP1 POP DUP2 DUP2 SUB PUSH1 0x0 DUP4 ADD MSTORE PUSH2 0x1735 DUP2 PUSH2 0x15E4 JUMP JUMPDEST SWAP1 POP SWAP2 SWAP1 POP JUMP JUMPDEST PUSH1 0x0 PUSH1 0x20 DUP3 ADD SWAP1 POP DUP2 DUP2 SUB PUSH1 0x0 DUP4 ADD MSTORE PUSH2 0x1755 DUP2 PUSH2 0x1607 JUMP JUMPDEST SWAP1 POP SWAP2 SWAP1 POP JUMP JUMPDEST PUSH1 0x0 PUSH1 0x20 DUP3 ADD SWAP1 POP DUP2 DUP2 SUB PUSH1 0x0 DUP4 ADD MSTORE PUSH2 0x1775 DUP2 PUSH2 0x162A JUMP JUMPDEST SWAP1 POP SWAP2 SWAP1 POP JUMP JUMPDEST PUSH1 0x0 PUSH1 0x20 DUP3 ADD SWAP1 POP PUSH2 0x1791 PUSH1 0x0 DUP4 ADD DUP5 PUSH2 0x164D JUMP JUMPDEST SWAP3 SWAP2 POP POP JUMP JUMPDEST PUSH1 0x0 PUSH1 0x80 DUP3 ADD SWAP1 POP PUSH2 0x17AC PUSH1 0x0 DUP4 ADD DUP9 PUSH2 0x164D JUMP JUMPDEST DUP2 DUP2 SUB PUSH1 0x20 DUP4 ADD MSTORE PUSH2 0x17BF DUP2 DUP7 DUP9 PUSH2 0x155B JUMP JUMPDEST SWAP1 POP PUSH2 0x17CE PUSH1 0x40 DUP4 ADD DUP6 PUSH2 0x164D JUMP JUMPDEST PUSH2 0x17DB PUSH1 0x60 DUP4 ADD DUP5 PUSH2 0x164D JUMP JUMPDEST SWAP7 SWAP6 POP POP POP POP POP POP JUMP JUMPDEST PUSH1 0x0 PUSH1 0x60 DUP3 ADD SWAP1 POP PUSH2 0x17FA PUSH1 0x0 DUP4 ADD DUP7 PUSH2 0x164D JUMP JUMPDEST PUSH2 0x1807 PUSH1 0x20 DUP4 ADD DUP6 PUSH2 0x164D JUMP JUMPDEST PUSH2 0x1814 PUSH1 0x40 DUP4 ADD DUP5 PUSH2 0x153D JUMP JUMPDEST SWAP5 SWAP4 POP POP POP POP JUMP JUMPDEST PUSH1 0x0 DUP2 MLOAD SWAP1 POP SWAP2 SWAP1 POP JUMP JUMPDEST PUSH1 0x0 DUP3 DUP3 MSTORE PUSH1 0x20 DUP3 ADD SWAP1 POP SWAP3 SWAP2 POP POP JUMP JUMPDEST PUSH1 0x0 PUSH2 0x1843 DUP3 PUSH2 0x199D JUMP JUMPDEST SWAP2 POP PUSH2 0x184E DUP4 PUSH2 0x199D JUMP JUMPDEST SWAP3 POP DUP3 PUSH32 0xFFFFFFFFFFFFFFFFFFFFFFFFFFFFFFFFFFFFFFFFFFFFFFFFFFFFFFFFFFFFFFFF SUB DUP3 GT ISZERO PUSH2 0x1883 JUMPI PUSH2 0x1882 PUSH2 0x1A1B JUMP JUMPDEST JUMPDEST DUP3 DUP3 ADD SWAP1 POP SWAP3 SWAP2 POP POP JUMP JUMPDEST PUSH1 0x0 PUSH2 0x1899 DUP3 PUSH2 0x199D JUMP JUMPDEST SWAP2 POP PUSH2 0x18A4 DUP4 PUSH2 0x199D JUMP JUMPDEST SWAP3 POP DUP3 PUSH2 0x18B4 JUMPI PUSH2 0x18B3 PUSH2 0x1A4A JUMP JUMPDEST JUMPDEST DUP3 DUP3 DIV SWAP1 POP SWAP3 SWAP2 POP POP JUMP JUMPDEST PUSH1 0x0 PUSH2 0x18CA DUP3 PUSH2 0x199D JUMP JUMPDEST SWAP2 POP PUSH2 0x18D5 DUP4 PUSH2 0x199D JUMP JUMPDEST SWAP3 POP DUP2 PUSH32 0xFFFFFFFFFFFFFFFFFFFFFFFFFFFFFFFFFFFFFFFFFFFFFFFFFFFFFFFFFFFFFFFF DIV DUP4 GT DUP3 ISZERO ISZERO AND ISZERO PUSH2 0x190E JUMPI PUSH2 0x190D PUSH2 0x1A1B JUMP JUMPDEST JUMPDEST DUP3 DUP3 MUL SWAP1 POP SWAP3 SWAP2 POP POP JUMP JUMPDEST PUSH1 0x0 PUSH2 0x1924 DUP3 PUSH2 0x199D JUMP JUMPDEST SWAP2 POP PUSH2 0x192F DUP4 PUSH2 0x199D JUMP JUMPDEST SWAP3 POP DUP3 DUP3 LT ISZERO PUSH2 0x1942 JUMPI PUSH2 0x1941 PUSH2 0x1A1B JUMP JUMPDEST JUMPDEST DUP3 DUP3 SUB SWAP1 POP SWAP3 SWAP2 POP POP JUMP JUMPDEST PUSH1 0x0 PUSH2 0x1958 DUP3 PUSH2 0x197D JUMP JUMPDEST SWAP1 POP SWAP2 SWAP1 POP JUMP JUMPDEST PUSH1 0x0 PUSH2 0x196A DUP3 PUSH2 0x197D JUMP JUMPDEST SWAP1 POP SWAP2 SWAP1 POP JUMP JUMPDEST PUSH1 0x0 DUP2 ISZERO ISZERO SWAP1 POP SWAP2 SWAP1 POP JUMP JUMPDEST PUSH1 0x0 PUSH20 0xFFFFFFFFFFFFFFFFFFFFFFFFFFFFFFFFFFFFFFFF DUP3 AND SWAP1 POP SWAP2 SWAP1 POP JUMP JUMPDEST PUSH1 0x0 DUP2 SWAP1 POP SWAP2 SWAP1 POP JUMP JUMPDEST DUP3 DUP2 DUP4 CALLDATACOPY PUSH1 0x0 DUP4 DUP4 ADD MSTORE POP POP POP JUMP JUMPDEST PUSH1 0x0 JUMPDEST DUP4 DUP2 LT ISZERO PUSH2 0x19D4 JUMPI DUP1 DUP3 ADD MLOAD DUP2 DUP5 ADD MSTORE PUSH1 0x20 DUP2 ADD SWAP1 POP PUSH2 0x19B9 JUMP JUMPDEST DUP4 DUP2 GT ISZERO PUSH2 0x19E3 JUMPI PUSH1 0x0 DUP5 DUP5 ADD MSTORE JUMPDEST POP POP POP POP JUMP JUMPDEST PUSH1 0x0 PUSH1 0x2 DUP3 DIV SWAP1 POP PUSH1 0x1 DUP3 AND DUP1 PUSH2 0x1A01 JUMPI PUSH1 0x7F DUP3 AND SWAP2 POP JUMPDEST PUSH1 0x20 DUP3 LT DUP2 EQ ISZERO PUSH2 0x1A15 JUMPI PUSH2 0x1A14 PUSH2 0x1A79 JUMP JUMPDEST JUMPDEST POP SWAP2 SWAP1 POP JUMP JUMPDEST PUSH32 0x4E487B7100000000000000000000000000000000000000000000000000000000 PUSH1 0x0 MSTORE PUSH1 0x11 PUSH1 0x4 MSTORE PUSH1 0x24 PUSH1 0x0 REVERT JUMPDEST PUSH32 0x4E487B7100000000000000000000000000000000000000000000000000000000 PUSH1 0x0 MSTORE PUSH1 0x12 PUSH1 0x4 MSTORE PUSH1 0x24 PUSH1 0x0 REVERT JUMPDEST PUSH32 0x4E487B7100000000000000000000000000000000000000000000000000000000 PUSH1 0x0 MSTORE PUSH1 0x22 PUSH1 0x4 MSTORE PUSH1 0x24 PUSH1 0x0 REVERT JUMPDEST PUSH1 0x0 PUSH1 0x1F NOT PUSH1 0x1F DUP4 ADD AND SWAP1 POP SWAP2 SWAP1 POP JUMP JUMPDEST PUSH32 0x496E636F7272656374207374617274696E672070726963650000000000000000 PUSH1 0x0 DUP3 ADD MSTORE POP JUMP JUMPDEST PUSH32 0x41756374696F6E2073746F707065640000000000000000000000000000000000 PUSH1 0x0 DUP3 ADD MSTORE POP JUMP JUMPDEST PUSH32 0x6E6F7420656E6F7567682066756E647300000000000000000000000000000000 PUSH1 0x0 DUP3 ADD MSTORE POP JUMP JUMPDEST PUSH32 0x41756374696F6E20656E64656400000000000000000000000000000000000000 PUSH1 0x0 DUP3 ADD MSTORE POP JUMP JUMPDEST PUSH2 0x1B66 DUP2 PUSH2 0x199D JUMP JUMPDEST DUP2 EQ PUSH2 0x1B71 JUMPI PUSH1 0x0 DUP1 REVERT JUMPDEST POP JUMP INVALID LOG2 PUSH5 0x6970667358 0x22 SLT KECCAK256 0x4B 0xDA 0x4D 0xB3 0x2A EXTCODECOPY 0x2F 0x2F 0xC7 0x4F POP INVALID 0x5C 0xD9 PUSH22 0xFC2F327744AA438D5410EE79B0BAE06E4D64736F6C63 NUMBER STOP ADDMOD DIV STOP CALLER "
        },
        "methodIdentifiers": {
          "auctions(uint256)": "571a26a0",
          "buy(uint256)": "d96a094a",
          "createAuction(uint256,uint256,string,uint256)": "e9835d15",
          "getPriceFor(uint256)": "4534cd9c",
          "owner()": "8da5cb5b"
        }
      }
    }
  }
}