{
  "_format": "hh-sol-artifact-1",
  "contractName": "Payments",
  "sourceName": "contracts/Payments.sol",
  "abi": [
    {
      "inputs": [
        {
          "internalType": "address",
          "name": "",
          "type": "address"
        }
      ],
      "name": "balances",
      "outputs": [
        {
          "internalType": "uint256",
          "name": "totalPayments",
          "type": "uint256"
        }
      ],
      "stateMutability": "view",
      "type": "function"
    },
    {
      "inputs": [],
      "name": "currentBalance",
      "outputs": [
        {
          "internalType": "uint256",
          "name": "",
          "type": "uint256"
        }
      ],
      "stateMutability": "view",
      "type": "function"
    },
    {
      "inputs": [
        {
          "internalType": "address",
          "name": "_addr",
          "type": "address"
        },
        {
          "internalType": "uint256",
          "name": "_index",
          "type": "uint256"
        }
      ],
      "name": "getPayment",
      "outputs": [
        {
          "components": [
            {
              "internalType": "uint256",
              "name": "amount",
              "type": "uint256"
            },
            {
              "internalType": "uint256",
              "name": "timestamp",
              "type": "uint256"
            },
            {
              "internalType": "address",
              "name": "from",
              "type": "address"
            },
            {
              "internalType": "string",
              "name": "message",
              "type": "string"
            }
          ],
          "internalType": "struct Payments.Payment",
          "name": "",
          "type": "tuple"
        }
      ],
      "stateMutability": "view",
      "type": "function"
    },
    {
      "inputs": [
        {
          "internalType": "string",
          "name": "message",
          "type": "string"
        }
      ],
      "name": "pay",
      "outputs": [],
      "stateMutability": "payable",
      "type": "function"
    },
    {
      "inputs": [],
      "name": "withdrawAll",
      "outputs": [],
      "stateMutability": "payable",
      "type": "function"
    }
  ],
  "bytecode": "0x608060405234801561001057600080fd5b50610a5a806100206000396000f3fe60806040526004361061004a5760003560e01c806327e235e31461004f5780632b66d72e1461008c578063853828b6146100a8578063977a767c146100b2578063ce845d1d146100ef575b600080fd5b34801561005b57600080fd5b5061007660048036038101906100719190610610565b61011a565b60405161008391906107a1565b60405180910390f35b6100a660048036038101906100a19190610675565b610138565b005b6100b06102e3565b005b3480156100be57600080fd5b506100d960048036038101906100d49190610639565b61032c565b6040516100e6919061077f565b60405180910390f35b3480156100fb57600080fd5b50610104610495565b60405161011191906107a1565b60405180910390f35b60006020528060005260406000206000915090508060000154905081565b60008060003373ffffffffffffffffffffffffffffffffffffffff1673ffffffffffffffffffffffffffffffffffffffff1681526020019081526020016000206000015490506000803373ffffffffffffffffffffffffffffffffffffffff1673ffffffffffffffffffffffffffffffffffffffff16815260200190815260200160002060000160008154809291906101d09061090f565b9190505550600060405180608001604052803481526020014281526020013373ffffffffffffffffffffffffffffffffffffffff168152602001848152509050806000803373ffffffffffffffffffffffffffffffffffffffff1673ffffffffffffffffffffffffffffffffffffffff1681526020019081526020016000206001016000848152602001908152602001600020600082015181600001556020820151816001015560408201518160020160006101000a81548173ffffffffffffffffffffffffffffffffffffffff021916908373ffffffffffffffffffffffffffffffffffffffff16021790555060608201518160030190805190602001906102da92919061049d565b50905050505050565b3373ffffffffffffffffffffffffffffffffffffffff166108fc479081150290604051600060405180830381858888f19350505050158015610329573d6000803e3d6000fd5b50565b610334610523565b6000808473ffffffffffffffffffffffffffffffffffffffff1673ffffffffffffffffffffffffffffffffffffffff168152602001908152602001600020600101600083815260200190815260200160002060405180608001604052908160008201548152602001600182015481526020016002820160009054906101000a900473ffffffffffffffffffffffffffffffffffffffff1673ffffffffffffffffffffffffffffffffffffffff1673ffffffffffffffffffffffffffffffffffffffff16815260200160038201805461040b906108ac565b80601f0160208091040260200160405190810160405280929190818152602001828054610437906108ac565b80156104845780601f1061045957610100808354040283529160200191610484565b820191906000526020600020905b81548152906001019060200180831161046757829003601f168201915b505050505081525050905092915050565b600047905090565b8280546104a9906108ac565b90600052602060002090601f0160209004810192826104cb5760008555610512565b82601f106104e457805160ff1916838001178555610512565b82800160010185558215610512579182015b828111156105115782518255916020019190600101906104f6565b5b50905061051f9190610561565b5090565b60405180608001604052806000815260200160008152602001600073ffffffffffffffffffffffffffffffffffffffff168152602001606081525090565b5b8082111561057a576000816000905550600101610562565b5090565b600061059161058c846107e1565b6107bc565b9050828152602081018484840111156105a957600080fd5b6105b484828561086a565b509392505050565b6000813590506105cb816109f6565b92915050565b600082601f8301126105e257600080fd5b81356105f284826020860161057e565b91505092915050565b60008135905061060a81610a0d565b92915050565b60006020828403121561062257600080fd5b6000610630848285016105bc565b91505092915050565b6000806040838503121561064c57600080fd5b600061065a858286016105bc565b925050602061066b858286016105fb565b9150509250929050565b60006020828403121561068757600080fd5b600082013567ffffffffffffffff8111156106a157600080fd5b6106ad848285016105d1565b91505092915050565b6106bf8161082e565b82525050565b60006106d082610812565b6106da818561081d565b93506106ea818560208601610879565b6106f3816109e5565b840191505092915050565b60006080830160008301516107166000860182610761565b5060208301516107296020860182610761565b50604083015161073c60408601826106b6565b506060830151848203606086015261075482826106c5565b9150508091505092915050565b61076a81610860565b82525050565b61077981610860565b82525050565b6000602082019050818103600083015261079981846106fe565b905092915050565b60006020820190506107b66000830184610770565b92915050565b60006107c66107d7565b90506107d282826108de565b919050565b6000604051905090565b600067ffffffffffffffff8211156107fc576107fb6109b6565b5b610805826109e5565b9050602081019050919050565b600081519050919050565b600082825260208201905092915050565b600061083982610840565b9050919050565b600073ffffffffffffffffffffffffffffffffffffffff82169050919050565b6000819050919050565b82818337600083830152505050565b60005b8381101561089757808201518184015260208101905061087c565b838111156108a6576000848401525b50505050565b600060028204905060018216806108c457607f821691505b602082108114156108d8576108d7610987565b5b50919050565b6108e7826109e5565b810181811067ffffffffffffffff82111715610906576109056109b6565b5b80604052505050565b600061091a82610860565b91507fffffffffffffffffffffffffffffffffffffffffffffffffffffffffffffffff82141561094d5761094c610958565b5b600182019050919050565b7f4e487b7100000000000000000000000000000000000000000000000000000000600052601160045260246000fd5b7f4e487b7100000000000000000000000000000000000000000000000000000000600052602260045260246000fd5b7f4e487b7100000000000000000000000000000000000000000000000000000000600052604160045260246000fd5b6000601f19601f8301169050919050565b6109ff8161082e565b8114610a0a57600080fd5b50565b610a1681610860565b8114610a2157600080fd5b5056fea2646970667358221220b0d13e35715664b9775f18e57e3e5bfe33a32f0e8c877fe944763b0900fed21f64736f6c63430008040033",
  "linkReferences": {},
  "deployedLinkReferences": {}
}