{
  "_format": "hh-sol-artifact-1",
  "contractName": "ERC20",
  "sourceName": "contracts/Erc.sol",
  "abi": [
    {
      "inputs": [
        {
          "internalType": "string",
          "name": "name_",
          "type": "string"
        },
        {
          "internalType": "string",
          "name": "symbol_",
          "type": "string"
        },
        {
          "internalType": "uint256",
          "name": "initialSupply",
          "type": "uint256"
        },
        {
          "internalType": "address",
          "name": "shop",
          "type": "address"
        }
      ],
      "stateMutability": "nonpayable",
      "type": "constructor"
    },
    {
      "anonymous": false,
      "inputs": [
        {
          "indexed": true,
          "internalType": "address",
          "name": "owner",
          "type": "address"
        },
        {
          "indexed": true,
          "internalType": "address",
          "name": "to",
          "type": "address"
        },
        {
          "indexed": false,
          "internalType": "uint256",
          "name": "amount",
          "type": "uint256"
        }
      ],
      "name": "Approve",
      "type": "event"
    },
    {
      "anonymous": false,
      "inputs": [
        {
          "indexed": true,
          "internalType": "address",
          "name": "from",
          "type": "address"
        },
        {
          "indexed": true,
          "internalType": "address",
          "name": "to",
          "type": "address"
        },
        {
          "indexed": false,
          "internalType": "uint256",
          "name": "amount",
          "type": "uint256"
        }
      ],
      "name": "Transfer",
      "type": "event"
    },
    {
      "inputs": [
        {
          "internalType": "address",
          "name": "_owner",
          "type": "address"
        },
        {
          "internalType": "address",
          "name": "spender",
          "type": "address"
        }
      ],
      "name": "allowance",
      "outputs": [
        {
          "internalType": "uint256",
          "name": "",
          "type": "uint256"
        }
      ],
      "stateMutability": "view",
      "type": "function"
    },
    {
      "inputs": [
        {
          "internalType": "address",
          "name": "spender",
          "type": "address"
        },
        {
          "internalType": "uint256",
          "name": "amount",
          "type": "uint256"
        }
      ],
      "name": "approve",
      "outputs": [],
      "stateMutability": "nonpayable",
      "type": "function"
    },
    {
      "inputs": [
        {
          "internalType": "address",
          "name": "account",
          "type": "address"
        }
      ],
      "name": "balanceOf",
      "outputs": [
        {
          "internalType": "uint256",
          "name": "",
          "type": "uint256"
        }
      ],
      "stateMutability": "view",
      "type": "function"
    },
    {
      "inputs": [
        {
          "internalType": "address",
          "name": "_from",
          "type": "address"
        },
        {
          "internalType": "uint256",
          "name": "amount",
          "type": "uint256"
        }
      ],
      "name": "burn",
      "outputs": [],
      "stateMutability": "nonpayable",
      "type": "function"
    },
    {
      "inputs": [],
      "name": "decimals",
      "outputs": [
        {
          "internalType": "uint256",
          "name": "",
          "type": "uint256"
        }
      ],
      "stateMutability": "pure",
      "type": "function"
    },
    {
      "inputs": [
        {
          "internalType": "uint256",
          "name": "amount",
          "type": "uint256"
        },
        {
          "internalType": "address",
          "name": "shop",
          "type": "address"
        }
      ],
      "name": "mint",
      "outputs": [],
      "stateMutability": "nonpayable",
      "type": "function"
    },
    {
      "inputs": [],
      "name": "name",
      "outputs": [
        {
          "internalType": "string",
          "name": "",
          "type": "string"
        }
      ],
      "stateMutability": "view",
      "type": "function"
    },
    {
      "inputs": [],
      "name": "symbol",
      "outputs": [
        {
          "internalType": "string",
          "name": "",
          "type": "string"
        }
      ],
      "stateMutability": "view",
      "type": "function"
    },
    {
      "inputs": [],
      "name": "totalSupply",
      "outputs": [
        {
          "internalType": "uint256",
          "name": "",
          "type": "uint256"
        }
      ],
      "stateMutability": "view",
      "type": "function"
    },
    {
      "inputs": [
        {
          "internalType": "address",
          "name": "to",
          "type": "address"
        },
        {
          "internalType": "uint256",
          "name": "amount",
          "type": "uint256"
        }
      ],
      "name": "transfer",
      "outputs": [],
      "stateMutability": "nonpayable",
      "type": "function"
    },
    {
      "inputs": [
        {
          "internalType": "address",
          "name": "sender",
          "type": "address"
        },
        {
          "internalType": "address",
          "name": "recipient",
          "type": "address"
        },
        {
          "internalType": "uint256",
          "name": "amount",
          "type": "uint256"
        }
      ],
      "name": "transferFrom",
      "outputs": [],
      "stateMutability": "nonpayable",
      "type": "function"
    }
  ],
  "bytecode": "0x60806040523480156200001157600080fd5b506040516200178e3803806200178e83398181016040528101906200003791906200053d565b83600490805190602001906200004f92919062000250565b5082600590805190602001906200006892919062000250565b5033600160006101000a81548173ffffffffffffffffffffffffffffffffffffffff021916908373ffffffffffffffffffffffffffffffffffffffff160217905550620000bc8282620000c660201b60201c565b505050506200078e565b600160009054906101000a900473ffffffffffffffffffffffffffffffffffffffff1673ffffffffffffffffffffffffffffffffffffffff163373ffffffffffffffffffffffffffffffffffffffff161462000159576040517f08c379a000000000000000000000000000000000000000000000000000000000815260040162000150906200064e565b60405180910390fd5b6200016d600082846200024b60201b60201c565b81600260008373ffffffffffffffffffffffffffffffffffffffff1673ffffffffffffffffffffffffffffffffffffffff1681526020019081526020016000206000828254620001be91906200069f565b9250508190555081600080828254620001d891906200069f565b925050819055508073ffffffffffffffffffffffffffffffffffffffff16600073ffffffffffffffffffffffffffffffffffffffff167fddf252ad1be2c89b69c2b068fc378daa952ba7f163c4a11628f55a4df523b3ef846040516200023f91906200070d565b60405180910390a35050565b505050565b8280546200025e9062000759565b90600052602060002090601f016020900481019282620002825760008555620002ce565b82601f106200029d57805160ff1916838001178555620002ce565b82800160010185558215620002ce579182015b82811115620002cd578251825591602001919060010190620002b0565b5b509050620002dd9190620002e1565b5090565b5b80821115620002fc576000816000905550600101620002e2565b5090565b6000604051905090565b600080fd5b600080fd5b600080fd5b600080fd5b6000601f19601f8301169050919050565b7f4e487b7100000000000000000000000000000000000000000000000000000000600052604160045260246000fd5b62000369826200031e565b810181811067ffffffffffffffff821117156200038b576200038a6200032f565b5b80604052505050565b6000620003a062000300565b9050620003ae82826200035e565b919050565b600067ffffffffffffffff821115620003d157620003d06200032f565b5b620003dc826200031e565b9050602081019050919050565b60005b8381101562000409578082015181840152602081019050620003ec565b8381111562000419576000848401525b50505050565b6000620004366200043084620003b3565b62000394565b90508281526020810184848401111562000455576200045462000319565b5b62000462848285620003e9565b509392505050565b600082601f83011262000482576200048162000314565b5b8151620004948482602086016200041f565b91505092915050565b6000819050919050565b620004b2816200049d565b8114620004be57600080fd5b50565b600081519050620004d281620004a7565b92915050565b600073ffffffffffffffffffffffffffffffffffffffff82169050919050565b60006200050582620004d8565b9050919050565b6200051781620004f8565b81146200052357600080fd5b50565b60008151905062000537816200050c565b92915050565b600080600080608085870312156200055a57620005596200030a565b5b600085015167ffffffffffffffff8111156200057b576200057a6200030f565b5b62000589878288016200046a565b945050602085015167ffffffffffffffff811115620005ad57620005ac6200030f565b5b620005bb878288016200046a565b9350506040620005ce87828801620004c1565b9250506060620005e18782880162000526565b91505092959194509250565b600082825260208201905092915050565b7f6e6f7420616e206f776e65720000000000000000000000000000000000000000600082015250565b600062000636600c83620005ed565b91506200064382620005fe565b602082019050919050565b60006020820190508181036000830152620006698162000627565b9050919050565b7f4e487b7100000000000000000000000000000000000000000000000000000000600052601160045260246000fd5b6000620006ac826200049d565b9150620006b9836200049d565b9250827fffffffffffffffffffffffffffffffffffffffffffffffffffffffffffffffff03821115620006f157620006f062000670565b5b828201905092915050565b62000707816200049d565b82525050565b6000602082019050620007246000830184620006fc565b92915050565b7f4e487b7100000000000000000000000000000000000000000000000000000000600052602260045260246000fd5b600060028204905060018216806200077257607f821691505b6020821081036200078857620007876200072a565b5b50919050565b610ff0806200079e6000396000f3fe608060405234801561001057600080fd5b50600436106100a95760003560e01c806370a082311161007157806370a082311461014057806394bf804d1461017057806395d89b411461018c5780639dc29fac146101aa578063a9059cbb146101c6578063dd62ed3e146101e2576100a9565b806306fdde03146100ae578063095ea7b3146100cc57806318160ddd146100e857806323b872dd14610106578063313ce56714610122575b600080fd5b6100b6610212565b6040516100c39190610ba4565b60405180910390f35b6100e660048036038101906100e19190610c5f565b6102a4565b005b6100f06102b3565b6040516100fd9190610cae565b60405180910390f35b610120600480360381019061011b9190610cc9565b6102bc565b005b61012a6104bf565b6040516101379190610cae565b60405180910390f35b61015a60048036038101906101559190610d1c565b6104c8565b6040516101679190610cae565b60405180910390f35b61018a60048036038101906101859190610d49565b610511565b005b610194610685565b6040516101a19190610ba4565b60405180910390f35b6101c460048036038101906101bf9190610c5f565b610717565b005b6101e060048036038101906101db9190610c5f565b610825565b005b6101fc60048036038101906101f79190610d89565b610994565b6040516102099190610cae565b60405180910390f35b60606004805461022190610df8565b80601f016020809104026020016040519081016040528092919081815260200182805461024d90610df8565b801561029a5780601f1061026f5761010080835404028352916020019161029a565b820191906000526020600020905b81548152906001019060200180831161027d57829003601f168201915b5050505050905090565b6102af338383610a1b565b5050565b60008054905090565b8281806102c8836104c8565b1015610309576040517f08c379a000000000000000000000000000000000000000000000000000000000815260040161030090610e75565b60405180910390fd5b610314858585610b06565b82600360008773ffffffffffffffffffffffffffffffffffffffff1673ffffffffffffffffffffffffffffffffffffffff16815260200190815260200160002060008673ffffffffffffffffffffffffffffffffffffffff1673ffffffffffffffffffffffffffffffffffffffff16815260200190815260200160002060008282546103a09190610ec4565b9250508190555082600260008773ffffffffffffffffffffffffffffffffffffffff1673ffffffffffffffffffffffffffffffffffffffff16815260200190815260200160002060008282546103f69190610ec4565b9250508190555082600260008673ffffffffffffffffffffffffffffffffffffffff1673ffffffffffffffffffffffffffffffffffffffff168152602001908152602001600020600082825461044c9190610ec4565b925050819055508373ffffffffffffffffffffffffffffffffffffffff168573ffffffffffffffffffffffffffffffffffffffff167fddf252ad1be2c89b69c2b068fc378daa952ba7f163c4a11628f55a4df523b3ef856040516104b09190610cae565b60405180910390a35050505050565b60006012905090565b6000600260008373ffffffffffffffffffffffffffffffffffffffff1673ffffffffffffffffffffffffffffffffffffffff168152602001908152602001600020549050919050565b600160009054906101000a900473ffffffffffffffffffffffffffffffffffffffff1673ffffffffffffffffffffffffffffffffffffffff163373ffffffffffffffffffffffffffffffffffffffff16146105a1576040517f08c379a000000000000000000000000000000000000000000000000000000000815260040161059890610f44565b60405180910390fd5b6105ad60008284610b06565b81600260008373ffffffffffffffffffffffffffffffffffffffff1673ffffffffffffffffffffffffffffffffffffffff16815260200190815260200160002060008282546105fc9190610f64565b92505081905550816000808282546106149190610f64565b925050819055508073ffffffffffffffffffffffffffffffffffffffff16600073ffffffffffffffffffffffffffffffffffffffff167fddf252ad1be2c89b69c2b068fc378daa952ba7f163c4a11628f55a4df523b3ef846040516106799190610cae565b60405180910390a35050565b60606005805461069490610df8565b80601f01602080910402602001604051908101604052809291908181526020018280546106c090610df8565b801561070d5780601f106106e25761010080835404028352916020019161070d565b820191906000526020600020905b8154815290600101906020018083116106f057829003601f168201915b5050505050905090565b600160009054906101000a900473ffffffffffffffffffffffffffffffffffffffff1673ffffffffffffffffffffffffffffffffffffffff163373ffffffffffffffffffffffffffffffffffffffff16146107a7576040517f08c379a000000000000000000000000000000000000000000000000000000000815260040161079e90610f44565b60405180910390fd5b6107b382600083610b06565b80600260008473ffffffffffffffffffffffffffffffffffffffff1673ffffffffffffffffffffffffffffffffffffffff16815260200190815260200160002060008282546108029190610ec4565b925050819055508060008082825461081a9190610ec4565b925050819055505050565b338180610831836104c8565b1015610872576040517f08c379a000000000000000000000000000000000000000000000000000000000815260040161086990610e75565b60405180910390fd5b61087d338585610b06565b82600260003373ffffffffffffffffffffffffffffffffffffffff1673ffffffffffffffffffffffffffffffffffffffff16815260200190815260200160002060008282546108cc9190610ec4565b9250508190555082600260008673ffffffffffffffffffffffffffffffffffffffff1673ffffffffffffffffffffffffffffffffffffffff16815260200190815260200160002060008282546109229190610f64565b925050819055508373ffffffffffffffffffffffffffffffffffffffff163373ffffffffffffffffffffffffffffffffffffffff167fddf252ad1be2c89b69c2b068fc378daa952ba7f163c4a11628f55a4df523b3ef856040516109869190610cae565b60405180910390a350505050565b6000600360008473ffffffffffffffffffffffffffffffffffffffff1673ffffffffffffffffffffffffffffffffffffffff16815260200190815260200160002060008373ffffffffffffffffffffffffffffffffffffffff1673ffffffffffffffffffffffffffffffffffffffff16815260200190815260200160002054905092915050565b80600360008573ffffffffffffffffffffffffffffffffffffffff1673ffffffffffffffffffffffffffffffffffffffff16815260200190815260200160002060008473ffffffffffffffffffffffffffffffffffffffff1673ffffffffffffffffffffffffffffffffffffffff168152602001908152602001600020819055508173ffffffffffffffffffffffffffffffffffffffff168373ffffffffffffffffffffffffffffffffffffffff167f6e11fb1b7f119e3f2fa29896ef5fdf8b8a2d0d4df6fe90ba8668e7d8b2ffa25e83604051610af99190610cae565b60405180910390a3505050565b505050565b600081519050919050565b600082825260208201905092915050565b60005b83811015610b45578082015181840152602081019050610b2a565b83811115610b54576000848401525b50505050565b6000601f19601f8301169050919050565b6000610b7682610b0b565b610b808185610b16565b9350610b90818560208601610b27565b610b9981610b5a565b840191505092915050565b60006020820190508181036000830152610bbe8184610b6b565b905092915050565b600080fd5b600073ffffffffffffffffffffffffffffffffffffffff82169050919050565b6000610bf682610bcb565b9050919050565b610c0681610beb565b8114610c1157600080fd5b50565b600081359050610c2381610bfd565b92915050565b6000819050919050565b610c3c81610c29565b8114610c4757600080fd5b50565b600081359050610c5981610c33565b92915050565b60008060408385031215610c7657610c75610bc6565b5b6000610c8485828601610c14565b9250506020610c9585828601610c4a565b9150509250929050565b610ca881610c29565b82525050565b6000602082019050610cc36000830184610c9f565b92915050565b600080600060608486031215610ce257610ce1610bc6565b5b6000610cf086828701610c14565b9350506020610d0186828701610c14565b9250506040610d1286828701610c4a565b9150509250925092565b600060208284031215610d3257610d31610bc6565b5b6000610d4084828501610c14565b91505092915050565b60008060408385031215610d6057610d5f610bc6565b5b6000610d6e85828601610c4a565b9250506020610d7f85828601610c14565b9150509250929050565b60008060408385031215610da057610d9f610bc6565b5b6000610dae85828601610c14565b9250506020610dbf85828601610c14565b9150509250929050565b7f4e487b7100000000000000000000000000000000000000000000000000000000600052602260045260246000fd5b60006002820490506001821680610e1057607f821691505b602082108103610e2357610e22610dc9565b5b50919050565b7f6e6f7420656e6f75676820746f6b656e73210000000000000000000000000000600082015250565b6000610e5f601283610b16565b9150610e6a82610e29565b602082019050919050565b60006020820190508181036000830152610e8e81610e52565b9050919050565b7f4e487b7100000000000000000000000000000000000000000000000000000000600052601160045260246000fd5b6000610ecf82610c29565b9150610eda83610c29565b925082821015610eed57610eec610e95565b5b828203905092915050565b7f6e6f7420616e206f776e65720000000000000000000000000000000000000000600082015250565b6000610f2e600c83610b16565b9150610f3982610ef8565b602082019050919050565b60006020820190508181036000830152610f5d81610f21565b9050919050565b6000610f6f82610c29565b9150610f7a83610c29565b9250827fffffffffffffffffffffffffffffffffffffffffffffffffffffffffffffffff03821115610faf57610fae610e95565b5b82820190509291505056fea264697066735822122047c1b77258622a8227cdf59fb55651119fd80d05f56a2f052302b531123ad3a064736f6c634300080d0033",
  "linkReferences": {},
  "deployedLinkReferences": {}
}