{
  "_format": "hh-sol-artifact-1",
  "contractName": "ReentrancyAuction",
  "sourceName": "contracts/Reentrancy.sol",
  "abi": [
    {
      "inputs": [],
      "name": "bid",
      "outputs": [],
      "stateMutability": "payable",
      "type": "function"
    },
    {
      "inputs": [
        {
          "internalType": "address",
          "name": "",
          "type": "address"
        }
      ],
      "name": "bidders",
      "outputs": [
        {
          "internalType": "uint256",
          "name": "",
          "type": "uint256"
        }
      ],
      "stateMutability": "view",
      "type": "function"
    },
    {
      "inputs": [],
      "name": "currentBalance",
      "outputs": [
        {
          "internalType": "uint256",
          "name": "",
          "type": "uint256"
        }
      ],
      "stateMutability": "view",
      "type": "function"
    },
    {
      "inputs": [],
      "name": "refund",
      "outputs": [],
      "stateMutability": "nonpayable",
      "type": "function"
    }
  ],
  "bytecode": "0x608060405234801561001057600080fd5b506105af806100206000396000f3fe60806040526004361061003f5760003560e01c80631998aeef14610044578063590e1ae31461004e578063ce845d1d14610065578063fcc8f79314610090575b600080fd5b61004c6100cd565b005b34801561005a57600080fd5b50610063610124565b005b34801561007157600080fd5b5061007a6102ea565b6040516100879190610415565b60405180910390f35b34801561009c57600080fd5b506100b760048036038101906100b2919061031f565b6102f2565b6040516100c49190610415565b60405180910390f35b346000803373ffffffffffffffffffffffffffffffffffffffff1673ffffffffffffffffffffffffffffffffffffffff168152602001908152602001600020600082825461011b919061044c565b92505081905550565b600160009054906101000a900460ff1615610174576040517f08c379a000000000000000000000000000000000000000000000000000000000815260040161016b906103f5565b60405180910390fd5b60018060006101000a81548160ff02191690831515021790555060008060003373ffffffffffffffffffffffffffffffffffffffff1673ffffffffffffffffffffffffffffffffffffffff16815260200190815260200160002054905060008111156102cc5760003373ffffffffffffffffffffffffffffffffffffffff1682604051610200906103c0565b60006040518083038185875af1925050503d806000811461023d576040519150601f19603f3d011682016040523d82523d6000602084013e610242565b606091505b5050905080610286576040517f08c379a000000000000000000000000000000000000000000000000000000000815260040161027d906103d5565b60405180910390fd5b60008060003373ffffffffffffffffffffffffffffffffffffffff1673ffffffffffffffffffffffffffffffffffffffff16815260200190815260200160002081905550505b506000600160006101000a81548160ff021916908315150217905550565b600047905090565b60006020528060005260406000206000915090505481565b60008135905061031981610562565b92915050565b60006020828403121561033157600080fd5b600061033f8482850161030a565b91505092915050565b600061035560078361043b565b91506103608261050d565b602082019050919050565b6000610378600d8361043b565b915061038382610536565b602082019050919050565b600061039b600083610430565b91506103a68261055f565b600082019050919050565b6103ba816104d4565b82525050565b60006103cb8261038e565b9150819050919050565b600060208201905081810360008301526103ee81610348565b9050919050565b6000602082019050818103600083015261040e8161036b565b9050919050565b600060208201905061042a60008301846103b1565b92915050565b600081905092915050565b600082825260208201905092915050565b6000610457826104d4565b9150610462836104d4565b9250827fffffffffffffffffffffffffffffffffffffffffffffffffffffffffffffffff03821115610497576104966104de565b5b828201905092915050565b60006104ad826104b4565b9050919050565b600073ffffffffffffffffffffffffffffffffffffffff82169050919050565b6000819050919050565b7f4e487b7100000000000000000000000000000000000000000000000000000000600052601160045260246000fd5b7f6661696c65642100000000000000000000000000000000000000000000000000600082015250565b7f6e6f207265656e7472616e637900000000000000000000000000000000000000600082015250565b50565b61056b816104a2565b811461057657600080fd5b5056fea2646970667358221220b5c05421f7f00314c6a10dc3c3619566be1fdfc90a11838de78f064c35a60e1b64736f6c63430008040033",
  "linkReferences": {},
  "deployedLinkReferences": {}
}