{
  "_format": "hh-sol-artifact-1",
  "contractName": "AucEngine",
  "sourceName": "contracts/AucEngine.sol",
  "abi": [
    {
      "inputs": [],
      "stateMutability": "nonpayable",
      "type": "constructor"
    },
    {
      "anonymous": false,
      "inputs": [
        {
          "indexed": false,
          "internalType": "uint256",
          "name": "index",
          "type": "uint256"
        },
        {
          "indexed": false,
          "internalType": "string",
          "name": "itemName",
          "type": "string"
        },
        {
          "indexed": false,
          "internalType": "uint256",
          "name": "startingPrice",
          "type": "uint256"
        },
        {
          "indexed": false,
          "internalType": "uint256",
          "name": "duration",
          "type": "uint256"
        }
      ],
      "name": "AuctionCreated",
      "type": "event"
    },
    {
      "anonymous": false,
      "inputs": [
        {
          "indexed": false,
          "internalType": "uint256",
          "name": "index",
          "type": "uint256"
        },
        {
          "indexed": false,
          "internalType": "uint256",
          "name": "finalPrice",
          "type": "uint256"
        },
        {
          "indexed": false,
          "internalType": "address",
          "name": "winner",
          "type": "address"
        }
      ],
      "name": "AuctionEnded",
      "type": "event"
    },
    {
      "inputs": [
        {
          "internalType": "uint256",
          "name": "",
          "type": "uint256"
        }
      ],
      "name": "auctions",
      "outputs": [
        {
          "internalType": "address payable",
          "name": "seller",
          "type": "address"
        },
        {
          "internalType": "uint256",
          "name": "startingPrice",
          "type": "uint256"
        },
        {
          "internalType": "uint256",
          "name": "finalPrice",
          "type": "uint256"
        },
        {
          "internalType": "uint256",
          "name": "startAt",
          "type": "uint256"
        },
        {
          "internalType": "uint256",
          "name": "endAt",
          "type": "uint256"
        },
        {
          "internalType": "uint256",
          "name": "discountRate",
          "type": "uint256"
        },
        {
          "internalType": "string",
          "name": "item",
          "type": "string"
        },
        {
          "internalType": "bool",
          "name": "stopped",
          "type": "bool"
        }
      ],
      "stateMutability": "view",
      "type": "function"
    },
    {
      "inputs": [
        {
          "internalType": "uint256",
          "name": "index",
          "type": "uint256"
        }
      ],
      "name": "buy",
      "outputs": [],
      "stateMutability": "payable",
      "type": "function"
    },
    {
      "inputs": [
        {
          "internalType": "uint256",
          "name": "_startingPrice",
          "type": "uint256"
        },
        {
          "internalType": "uint256",
          "name": "_discountRate",
          "type": "uint256"
        },
        {
          "internalType": "string",
          "name": "_item",
          "type": "string"
        },
        {
          "internalType": "uint256",
          "name": "_duration",
          "type": "uint256"
        }
      ],
      "name": "createAuction",
      "outputs": [],
      "stateMutability": "nonpayable",
      "type": "function"
    },
    {
      "inputs": [
        {
          "internalType": "uint256",
          "name": "index",
          "type": "uint256"
        }
      ],
      "name": "getPriceFor",
      "outputs": [
        {
          "internalType": "uint256",
          "name": "",
          "type": "uint256"
        }
      ],
      "stateMutability": "view",
      "type": "function"
    },
    {
      "inputs": [],
      "name": "owner",
      "outputs": [
        {
          "internalType": "address",
          "name": "",
          "type": "address"
        }
      ],
      "stateMutability": "view",
      "type": "function"
    }
  ],
  "bytecode": "0x608060405234801561001057600080fd5b506100437f7ff27dac8a3200762f735aa0c58df06b5f765fb846f3cc696e19596b1016776f60001b6100ec60201b60201c565b6100757fe220201f1b4c8db9d9470bdf09b30fd2c88c9ddd675faa3eb54e5ef82f656cce60001b6100ec60201b60201c565b6100a77f54bc307f45d07fecb1c8dbd6d94278ade82eb8a7ee62621392dda7244649754f60001b6100ec60201b60201c565b336000806101000a81548173ffffffffffffffffffffffffffffffffffffffff021916908373ffffffffffffffffffffffffffffffffffffffff1602179055506100ef565b50565b611baa80620000ff6000396000f3fe60806040526004361061004a5760003560e01c80634534cd9c1461004f578063571a26a01461008c5780638da5cb5b146100d0578063d96a094a146100fb578063e9835d1514610117575b600080fd5b34801561005b57600080fd5b5061007660048036038101906100719190611485565b610140565b604051610083919061177c565b60405180910390f35b34801561009857600080fd5b506100b360048036038101906100ae9190611485565b610592565b6040516100c7989796959493929190611677565b60405180910390f35b3480156100dc57600080fd5b506100e561069f565b6040516100f2919061165c565b60405180910390f35b61011560048036038101906101109190611485565b6106c3565b005b34801561012357600080fd5b5061013e600480360381019061013991906114ae565b610efe565b005b600061016e7f21d0b3e62f4e203bbc57a6de395a1e8c0d456ec00e482de09d23bba9b201cf9560001b611380565b61019a7f6cae735480c2e39b903620e8c2b20f51b11980da2a8fc154a426700e44d9c46a60001b611380565b6101c67f7165249fd2dc0624e70b3b05afd5efe242fbc067e4035fc282364ded533914ec60001b611380565b600060018381548110610202577f4e487b7100000000000000000000000000000000000000000000000000000000600052603260045260246000fd5b9060005260206000209060080201604051806101000160405290816000820160009054906101000a900473ffffffffffffffffffffffffffffffffffffffff1673ffffffffffffffffffffffffffffffffffffffff1673ffffffffffffffffffffffffffffffffffffffff16815260200160018201548152602001600282015481526020016003820154815260200160048201548152602001600582015481526020016006820180546102b4906119e9565b80601f01602080910402602001604051908101604052809291908181526020018280546102e0906119e9565b801561032d5780601f106103025761010080835404028352916020019161032d565b820191906000526020600020905b81548152906001019060200180831161031057829003601f168201915b505050505081526020016007820160009054906101000a900460ff161515151581525050905061037f7f225d1a59c8c40f79d00991ae716671faabcba1a40a4b7ba3590fbb47f50b506760001b611380565b6103ab7f5d992dc526023026161c32671e0993877c9004a72277d97688a7b6f2d3778d8660001b611380565b6103d77fed80db890d14932fb2433d70f06c103b2485958d2442c8adda998644ac8cde3f60001b611380565b8060e001511561041c576040517f08c379a00000000000000000000000000000000000000000000000000000000081526004016104139061171c565b60405180910390fd5b6104487fefa38ede705fffe011999810263ccca7c03be6b44596f6beb836c1a4ffeeaddc60001b611380565b6104747feae8df67a5ac6d85c90920ba2f98f50e65ccc2ba1999ef9b4cdd60b30fa6c1c360001b611380565b6104a07f0bc7b93e8afbadb9bfb8884609dc13d224b4fa04bc8c1ac2c1a49a0cfe18687060001b611380565b60008160600151426104b29190611919565b90506104e07fa69460baf7ae474c95db262f8e3f7c35b792f6abaa535b3f0aee07d6bd7807fe60001b611380565b61050c7f70dc7c84fce034c657206618ea84a88b4260086aa47c3913d075f6b31c5608d260001b611380565b6000818360a0015161051e91906118bf565b905061054c7fa474e72ce8b77db7060d68b6d1385a3b252e2f8b93802bacfc26eb1fe0eb731460001b611380565b6105787fe5080b7800fe02121c6ed1aa1b6bebee0cc13de3e66a0c691add3acc9bdfcc9960001b611380565b8083602001516105889190611919565b9350505050919050565b600181815481106105a257600080fd5b90600052602060002090600802016000915090508060000160009054906101000a900473ffffffffffffffffffffffffffffffffffffffff1690806001015490806002015490806003015490806004015490806005015490806006018054610609906119e9565b80601f0160208091040260200160405190810160405280929190818152602001828054610635906119e9565b80156106825780601f1061065757610100808354040283529160200191610682565b820191906000526020600020905b81548152906001019060200180831161066557829003601f168201915b5050505050908060070160009054906101000a900460ff16905088565b60008054906101000a900473ffffffffffffffffffffffffffffffffffffffff1681565b6106ef7f3c51d09ea0ed51072ce1eb69f8a02a58d12eafb487def4bbe5f1d7a0410f00d160001b611380565b61071b7f72a249b3d3720fc07e48d7dd148b273ad8e1111e7c993597d5f44b4c2dddff4a60001b611380565b6107477f15dcf94359ca071df1d540de5c1af4bea1f44d43253c781919d2739c90396c2960001b611380565b600060018281548110610783577f4e487b7100000000000000000000000000000000000000000000000000000000600052603260045260246000fd5b906000526020600020906008020190506107bf7fd460204f4744c5b282f90d66a9e7edfbddcfd7d28a7d01b2fea28342792fda8660001b611380565b6107eb7f4fc0230017709550f8012c12bd8c44e15ab206b969bbe71f20c80efacfd9c9b960001b611380565b6108177f4103370365670b3ad2458346e52aeedb77306f6dfd90aebde2970bec1793760560001b611380565b8060070160009054906101000a900460ff1615610869576040517f08c379a00000000000000000000000000000000000000000000000000000000081526004016108609061171c565b60405180910390fd5b6108957fd160cf98a246abbbaad881d424ed6c4d3e1a26d702471106ec31b20904a9047a60001b611380565b6108c17f0603c5cc5133b78613724480893e177abc78f1bd64a4de0a64e833512ca0fa9860001b611380565b6108ed7f364c1b50e49f572f5173e547f45be5a3fd32761aac9c774375cea6b79d3cc15960001b611380565b6109197fe70ee11ff00fc9679a0b24a85f9b25db708b1731f9d4ac6b96bf0725c626d0cd60001b611380565b8060040154421061095f576040517f08c379a00000000000000000000000000000000000000000000000000000000081526004016109569061175c565b60405180910390fd5b61098b7f5ef5f7f4ba841674b23d54b8b2f0aa66ed98a5d05c811fc00fd6654f21afbf8b60001b611380565b6109b77fa8ed102dbd05a09b4bf9404cc41ab559c6edadbb2a31ceebc73b0f37e32b58f260001b611380565b6109e37f36ee4ca2d68973e97acff5cd0070dbccd5bd2524352b00934db129bcf95c28ab60001b611380565b60006109ee83610140565b9050610a1c7f07d39226a3fd33d4f21e4b47e32147c2d9f5da1aab1502aa8dac50e784cd69e460001b611380565b610a487fb7861be0f66191f1a5c57214173844fb6f0d1a323f17ab719bcc4c9d4157d99a60001b611380565b610a747ff06515c81fce9c21aa73c75910cbbbc4f8a25ac441023b611ea5ecf017b85f8f60001b611380565b80341015610ab7576040517f08c379a0000000000000000000000000000000000000000000000000000000008152600401610aae9061173c565b60405180910390fd5b610ae37fef5875dbc63403f8e94e413c4c4f7026a0280cc1d91e86afd6c589c3e897c19d60001b611380565b610b0f7fd05eba1e5ecca0c7fcc660cb23fdcd4fa80eed33b6fc79c31be7e535930788f460001b611380565b610b3b7f961636a7dfe3f5cabf0b2979603a2282e487eba22b9545a8e6e93fae1cafca8860001b611380565b60018260070160006101000a81548160ff021916908315150217905550610b847fe8fa754b6b4de6374e7533511dcdda2e10f2112e5a407aa178060b27e77993a160001b611380565b610bb07f78abddca60aa9293f83b8d9c0c43fe43972a03d178a3262c4b556d4a46c9598260001b611380565b808260020181905550610be57f2d4e0d9f94cc66b6c10de93c813947f88f140d4e71166966a8a45b499f72d0c160001b611380565b610c117fafa56ce738bcf54833fd05b7c26cfe61d8944bfecb7e47e251a2afe913e8d40960001b611380565b60008134610c1f9190611919565b9050610c4d7fdbcf66ea56b7202e04b2a10d4d20a84dedfc403a1b31c27f7f072ea46bd9dced60001b611380565b610c797f97ffde05e43b21365e964a058b1c8ab5591c48434bfd2bd94a6e5ea2c70f129860001b611380565b6000811115610d5257610cae7ff732f750d8ba4e7a4aa334e2063233d90fc3e2d4901d2b4e181473a1d17ac32460001b611380565b610cda7f4c2c94001f1d0197c280a15bcdb10560f5ed9837aa956275ab913034e4dffdc860001b611380565b610d067f55a074a921c06a467a04cf2e393af730477514bdd81aceb61cd9961d7a38164260001b611380565b3373ffffffffffffffffffffffffffffffffffffffff166108fc829081150290604051600060405180830381858888f19350505050158015610d4c573d6000803e3d6000fd5b50610d7f565b610d7e7f61bcfe2a9ed72ed497076e2934ad7d18d9d9ed48815e4d19b87afc87dbb528df60001b611380565b5b610dab7f6e0263ef3a642a66981764ed1df41801d57dbdf7cae9320d1bd89f3faf1eec3860001b611380565b610dd77f2ec519969615c0fe2552bcd45d6ada72ab9d4948c054140798747677438fbb0f60001b611380565b8260000160009054906101000a900473ffffffffffffffffffffffffffffffffffffffff1673ffffffffffffffffffffffffffffffffffffffff166108fc6064600a85610e2491906118bf565b610e2e919061188e565b84610e399190611919565b9081150290604051600060405180830381858888f19350505050158015610e64573d6000803e3d6000fd5b50610e917f219dff61b2e79ea511a7f81d52cb42bac199eefcd8c1f6dc6b2ecac003c3adf760001b611380565b610ebd7f1d5760c0f02d75ca4d35a6b40d16fb1dae26206a21c5f5bfb72892d39e7694e860001b611380565b7fbafc4bda865d4d1f8d5b16f883e996fde0fe71112fac81503876d35375694400848333604051610ef0939291906117e5565b60405180910390a150505050565b610f2a7f2829d56f509a0cf8164ae7f87263f5f51430bc7cd4a2dc745e03a000750c696260001b611380565b610f567ff7bb795015b8be0f1523be08296ed2f3e5b5d8f70db838db1a2784f19abb018d60001b611380565b610f827f639a6fc63b1a566476ec6d87a287d90a91339aee7988c9bf52a2361557d59a7e60001b611380565b6000808214610f915781610f96565b6202a3005b9050610fc47ff438ecbe47f8e6ba920920db1ddcf7c00a474928a4ae6748744018737ef6573360001b611380565b610ff07f4b73ae1cde97cb9bb00019e6a78e424d70808c61f901fb6c79eec394bbc7f6bf60001b611380565b61101c7fe242c18e3d95bde9174f7000d379f6616c973d0a481d0cf1e561182a6723faad60001b611380565b808561102891906118bf565b86101561106a576040517f08c379a0000000000000000000000000000000000000000000000000000000008152600401611061906116fc565b60405180910390fd5b6110967fa0e86fe9926a855a782a7e8fdbffa85888096a9d7cf5687230930a8570f231bc60001b611380565b6110c27f52636e33f28cc36514da303f71383d57d382db81c25767d701f12743ee0cfa7e60001b611380565b6110ee7fc437aeac9ed0a2b2f132033b7010e8c8ba1b8ae9d8cdd832719b4254cd2a54d660001b611380565b60006040518061010001604052803373ffffffffffffffffffffffffffffffffffffffff16815260200188815260200188815260200142815260200183426111369190611838565b815260200187815260200186868080601f016020809104026020016040519081016040528093929190818152602001838380828437600081840152601f19601f8201169050808301925050505050505081526020016000151581525090506111c07f96f554553e8683490b370615633298fef3e14310a1c751aaa00e050ef94a174260001b611380565b6111ec7f7e0c892ae720fc3249b02002e5e007f1f1d4e7a75beca3eacdb55401113a7bba60001b611380565b600181908060018154018082558091505060019003906000526020600020906008020160009091909190915060008201518160000160006101000a81548173ffffffffffffffffffffffffffffffffffffffff021916908373ffffffffffffffffffffffffffffffffffffffff1602179055506020820151816001015560408201518160020155606082015181600301556080820151816004015560a0820151816005015560c08201518160060190805190602001906112ad929190611383565b5060e08201518160070160006101000a81548160ff02191690831515021790555050506112fc7f29524d0ca9e34d007be4baae089ee85187cb135b1e6a7ba14d8e612916c9e89f60001b611380565b6113287f71b099ec24b2d757a7c62e5502330d5e7d2c0906ac178e20effad783a9fc07ca60001b611380565b7f5bf34ed94988e5dcdc7d1faaa54eb1d3b55f45d5f11457e235afb21a8ebbe73c6001808054905061135a9190611919565b86868a8660405161136f959493929190611797565b60405180910390a150505050505050565b50565b82805461138f906119e9565b90600052602060002090601f0160209004810192826113b157600085556113f8565b82601f106113ca57805160ff19168380011785556113f8565b828001600101855582156113f8579182015b828111156113f75782518255916020019190600101906113dc565b5b5090506114059190611409565b5090565b5b8082111561142257600081600090555060010161140a565b5090565b60008083601f84011261143857600080fd5b8235905067ffffffffffffffff81111561145157600080fd5b60208301915083600182028301111561146957600080fd5b9250929050565b60008135905061147f81611b5d565b92915050565b60006020828403121561149757600080fd5b60006114a584828501611470565b91505092915050565b6000806000806000608086880312156114c657600080fd5b60006114d488828901611470565b95505060206114e588828901611470565b945050604086013567ffffffffffffffff81111561150257600080fd5b61150e88828901611426565b9350935050606061152188828901611470565b9150509295509295909350565b6115378161195f565b82525050565b6115468161194d565b82525050565b61155581611971565b82525050565b60006115678385611827565b93506115748385846119a7565b61157d83611aa8565b840190509392505050565b60006115938261181c565b61159d8185611827565b93506115ad8185602086016119b6565b6115b681611aa8565b840191505092915050565b60006115ce601883611827565b91506115d982611ab9565b602082019050919050565b60006115f1600f83611827565b91506115fc82611ae2565b602082019050919050565b6000611614601083611827565b915061161f82611b0b565b602082019050919050565b6000611637600d83611827565b915061164282611b34565b602082019050919050565b6116568161199d565b82525050565b6000602082019050611671600083018461153d565b92915050565b60006101008201905061168d600083018b61152e565b61169a602083018a61164d565b6116a7604083018961164d565b6116b4606083018861164d565b6116c1608083018761164d565b6116ce60a083018661164d565b81810360c08301526116e08185611588565b90506116ef60e083018461154c565b9998505050505050505050565b60006020820190508181036000830152611715816115c1565b9050919050565b60006020820190508181036000830152611735816115e4565b9050919050565b6000602082019050818103600083015261175581611607565b9050919050565b600060208201905081810360008301526117758161162a565b9050919050565b6000602082019050611791600083018461164d565b92915050565b60006080820190506117ac600083018861164d565b81810360208301526117bf81868861155b565b90506117ce604083018561164d565b6117db606083018461164d565b9695505050505050565b60006060820190506117fa600083018661164d565b611807602083018561164d565b611814604083018461153d565b949350505050565b600081519050919050565b600082825260208201905092915050565b60006118438261199d565b915061184e8361199d565b9250827fffffffffffffffffffffffffffffffffffffffffffffffffffffffffffffffff0382111561188357611882611a1b565b5b828201905092915050565b60006118998261199d565b91506118a48361199d565b9250826118b4576118b3611a4a565b5b828204905092915050565b60006118ca8261199d565b91506118d58361199d565b9250817fffffffffffffffffffffffffffffffffffffffffffffffffffffffffffffffff048311821515161561190e5761190d611a1b565b5b828202905092915050565b60006119248261199d565b915061192f8361199d565b92508282101561194257611941611a1b565b5b828203905092915050565b60006119588261197d565b9050919050565b600061196a8261197d565b9050919050565b60008115159050919050565b600073ffffffffffffffffffffffffffffffffffffffff82169050919050565b6000819050919050565b82818337600083830152505050565b60005b838110156119d45780820151818401526020810190506119b9565b838111156119e3576000848401525b50505050565b60006002820490506001821680611a0157607f821691505b60208210811415611a1557611a14611a79565b5b50919050565b7f4e487b7100000000000000000000000000000000000000000000000000000000600052601160045260246000fd5b7f4e487b7100000000000000000000000000000000000000000000000000000000600052601260045260246000fd5b7f4e487b7100000000000000000000000000000000000000000000000000000000600052602260045260246000fd5b6000601f19601f8301169050919050565b7f496e636f7272656374207374617274696e672070726963650000000000000000600082015250565b7f41756374696f6e2073746f707065640000000000000000000000000000000000600082015250565b7f6e6f7420656e6f7567682066756e647300000000000000000000000000000000600082015250565b7f41756374696f6e20656e64656400000000000000000000000000000000000000600082015250565b611b668161199d565b8114611b7157600080fd5b5056fea26469706673582212204bda4db32a3c2f2fc74f50fe5cd975fc2f327744aa438d5410ee79b0bae06e4d64736f6c63430008040033",
  "linkReferences": {},
  "deployedLinkReferences": {}
}