{
  "contracts/Hack.sol": {
    "Hack": {
      "abi": [
        {
          "inputs": [
            {
              "internalType": "bytes32",
              "name": "_pwd1",
              "type": "bytes32"
            }
          ],
          "stateMutability": "nonpayable",
          "type": "constructor"
        },
        {
          "inputs": [
            {
              "internalType": "address",
              "name": "toHack",
              "type": "address"
            }
          ],
          "name": "attack",
          "outputs": [],
          "stateMutability": "nonpayable",
          "type": "function"
        },
        {
          "inputs": [
            {
              "internalType": "address",
              "name": "toHack",
              "type": "address"
            }
          ],
          "name": "attack1",
          "outputs": [],
          "stateMutability": "nonpayable",
          "type": "function"
        },
        {
          "inputs": [
            {
              "internalType": "address",
              "name": "toHack",
              "type": "address"
            }
          ],
          "name": "attack2",
          "outputs": [],
          "stateMutability": "nonpayable",
          "type": "function"
        },
        {
          "inputs": [
            {
              "internalType": "address",
              "name": "toHack",
              "type": "address"
            }
          ],
          "name": "attack3",
          "outputs": [],
          "stateMutability": "nonpayable",
          "type": "function"
        },
        {
          "inputs": [],
          "name": "calcSecret1",
          "outputs": [
            {
              "internalType": "bytes32",
              "name": "",
              "type": "bytes32"
            }
          ],
          "stateMutability": "nonpayable",
          "type": "function"
        },
        {
          "inputs": [
            {
              "internalType": "bytes32",
              "name": "secret",
              "type": "bytes32"
            },
            {
              "internalType": "uint256",
              "name": "_nonce",
              "type": "uint256"
            }
          ],
          "name": "calcSecret2_3",
          "outputs": [
            {
              "internalType": "bytes32",
              "name": "",
              "type": "bytes32"
            }
          ],
          "stateMutability": "pure",
          "type": "function"
        },
        {
          "inputs": [],
          "name": "nonce",
          "outputs": [
            {
              "internalType": "uint24",
              "name": "",
              "type": "uint24"
            }
          ],
          "stateMutability": "view",
          "type": "function"
        },
        {
          "inputs": [
            {
              "internalType": "uint24",
              "name": "_nonce",
              "type": "uint24"
            }
          ],
          "name": "setNonce",
          "outputs": [],
          "stateMutability": "nonpayable",
          "type": "function"
        }
      ],
      "evm": {
        "bytecode": {
          "linkReferences": {},
          "object": "60a060405234801561001057600080fd5b50604051610f86380380610f86833981810160405281019061003291906100d3565b7f5f668062be9682387cd8957f8339033192b55962f2280292c705e5811dd8df8a60001b6080818152505080600181905550731f98431c8ad98523631ae4a59f267346ea31f9846000806101000a81548173ffffffffffffffffffffffffffffffffffffffff021916908373ffffffffffffffffffffffffffffffffffffffff1602179055505061011d565b6000815190506100cd81610106565b92915050565b6000602082840312156100e557600080fd5b60006100f3848285016100be565b91505092915050565b6000819050919050565b61010f816100fc565b811461011a57600080fd5b50565b608051610e4761013f600039600081816101c501526105450152610e476000f3fe608060405234801561001057600080fd5b50600436106100885760003560e01c8063ca5f6f501161005b578063ca5f6f50146100ff578063d018db3e1461012f578063d2373ec31461014b578063dab3c81f1461016957610088565b80631c59390d1461008d5780632ac4e905146100a9578063affed0e0146100c5578063b9b561a4146100e3575b600080fd5b6100a760048036038101906100a291906109df565b610185565b005b6100c360048036038101906100be919061097a565b6101a7565b005b6100cd610337565b6040516100da9190610bcb565b60405180910390f35b6100fd60048036038101906100f8919061097a565b61034c565b005b610119600480360381019061011491906109a3565b6104be565b6040516101269190610b1d565b60405180910390f35b6101496004803603810190610144919061097a565b6104f1565b005b6101536106b9565b6040516101609190610b1d565b60405180910390f35b610183600480360381019061017e919061097a565b6107da565b005b80600060146101000a81548162ffffff021916908362ffffff16021790555050565b60008173ffffffffffffffffffffffffffffffffffffffff1661020c7f00000000000000000000000000000000000000000000000000000000000000006002600060149054906101000a900462ffffff166102029190610c0d565b62ffffff166104be565b60405160240161021c9190610b1d565b6040516020818303038152906040527f96afdd85000000000000000000000000000000000000000000000000000000007bffffffffffffffffffffffffffffffffffffffffffffffffffffffff19166020820180517bffffffffffffffffffffffffffffffffffffffffffffffffffffffff83818316178352505050506040516102a69190610b06565b6000604051808303816000865af19150503d80600081146102e3576040519150601f19603f3d011682016040523d82523d6000602084013e6102e8565b606091505b505090506001151581151514610333576040517f08c379a000000000000000000000000000000000000000000000000000000000815260040161032a90610bab565b60405180910390fd5b5050565b600060149054906101000a900462ffffff1681565b60008173ffffffffffffffffffffffffffffffffffffffff166103936001546001600060149054906101000a900462ffffff166103899190610c0d565b62ffffff166104be565b6040516024016103a39190610b1d565b6040516020818303038152906040527f9bb8b171000000000000000000000000000000000000000000000000000000007bffffffffffffffffffffffffffffffffffffffffffffffffffffffff19166020820180517bffffffffffffffffffffffffffffffffffffffffffffffffffffffff838183161783525050505060405161042d9190610b06565b6000604051808303816000865af19150503d806000811461046a576040519150601f19603f3d011682016040523d82523d6000602084013e61046f565b606091505b5050905060011515811515146104ba576040517f08c379a00000000000000000000000000000000000000000000000000000000081526004016104b190610bab565b60405180910390fd5b5050565b600082826040516020016104d3929190610b38565b60405160208183030381529060405280519060200120905092915050565b60008173ffffffffffffffffffffffffffffffffffffffff166105126106b9565b6105406001546001600060149054906101000a900462ffffff166105369190610c0d565b62ffffff166104be565b61058c7f00000000000000000000000000000000000000000000000000000000000000006002600060149054906101000a900462ffffff166105829190610c0d565b62ffffff166104be565b60405160240161059e93929190610b61565b6040516020818303038152906040527f7bbd5574000000000000000000000000000000000000000000000000000000007bffffffffffffffffffffffffffffffffffffffffffffffffffffffff19166020820180517bffffffffffffffffffffffffffffffffffffffffffffffffffffffff83818316178352505050506040516106289190610b06565b6000604051808303816000865af19150503d8060008114610665576040519150601f19603f3d011682016040523d82523d6000602084013e61066a565b606091505b5050905060011515811515146106b5576040517f08c379a00000000000000000000000000000000000000000000000000000000081526004016106ac90610bab565b60405180910390fd5b5050565b60008060008060009054906101000a900473ffffffffffffffffffffffffffffffffffffffff16905060008060149054906101000a900462ffffff1662ffffff16905060006322afcccb60e01b610bb860405160200161071a929190610ada565b60405160208183030381529060405290506000602067ffffffffffffffff81111561076e577f4e487b7100000000000000000000000000000000000000000000000000000000600052604160045260246000fd5b6040519080825280601f01601f1916602001820160405280156107a05781602001600182028036833780820191505090505b5090506000549450602081016020816024602086016000895af15080518481880101825260208220965050508460001b9550505050505090565b60008173ffffffffffffffffffffffffffffffffffffffff166107fb6106b9565b60405160240161080b9190610b1d565b6040516020818303038152906040527f6bc5216d000000000000000000000000000000000000000000000000000000007bffffffffffffffffffffffffffffffffffffffffffffffffffffffff19166020820180517bffffffffffffffffffffffffffffffffffffffffffffffffffffffff83818316178352505050506040516108959190610b06565b6000604051808303816000865af19150503d80600081146108d2576040519150601f19603f3d011682016040523d82523d6000602084013e6108d7565b606091505b505090506001151581151514610922576040517f08c379a000000000000000000000000000000000000000000000000000000000815260040161091990610bab565b60405180910390fd5b5050565b60008135905061093581610db5565b92915050565b60008135905061094a81610dcc565b92915050565b60008135905061095f81610de3565b92915050565b60008135905061097481610dfa565b92915050565b60006020828403121561098c57600080fd5b600061099a84828501610926565b91505092915050565b600080604083850312156109b657600080fd5b60006109c48582860161093b565b92505060206109d585828601610965565b9150509250929050565b6000602082840312156109f157600080fd5b60006109ff84828501610950565b91505092915050565b610a1181610c58565b82525050565b610a28610a2382610c62565b610cfa565b82525050565b6000610a3982610be6565b610a438185610bf1565b9350610a53818560208601610cc7565b80840191505092915050565b6000610a6c603783610bfc565b9150610a7782610d3d565b604082019050919050565b6000610a8f600983610bfc565b9150610a9a82610d8c565b602082019050919050565b610aae81610cae565b82525050565b610abd81610cbd565b82525050565b610ad4610acf82610cbd565b610d04565b82525050565b6000610ae68285610a17565b600482019150610af68284610ac3565b6020820191508190509392505050565b6000610b128284610a2e565b915081905092915050565b6000602082019050610b326000830184610a08565b92915050565b6000604082019050610b4d6000830185610a08565b610b5a6020830184610ab4565b9392505050565b60006080820190508181036000830152610b7a81610a5f565b9050610b896020830186610a08565b610b966040830185610a08565b610ba36060830184610a08565b949350505050565b60006020820190508181036000830152610bc481610a82565b9050919050565b6000602082019050610be06000830184610aa5565b92915050565b600081519050919050565b600081905092915050565b600082825260208201905092915050565b6000610c1882610cae565b9150610c2383610cae565b92508262ffffff03821115610c3b57610c3a610d0e565b5b828201905092915050565b6000610c5182610c8e565b9050919050565b6000819050919050565b60007fffffffff0000000000000000000000000000000000000000000000000000000082169050919050565b600073ffffffffffffffffffffffffffffffffffffffff82169050919050565b600062ffffff82169050919050565b6000819050919050565b60005b83811015610ce5578082015181840152602081019050610cca565b83811115610cf4576000848401525b50505050565b6000819050919050565b6000819050919050565b7f4e487b7100000000000000000000000000000000000000000000000000000000600052601160045260246000fd5b7f6b757a6e6574736f762d6d2e6769746875622e696f2c207075626c69634b4d4060008201527f79616e6465782e72752c2048692c207468657265203a29000000000000000000602082015250565b7f756e737563636573730000000000000000000000000000000000000000000000600082015250565b610dbe81610c46565b8114610dc957600080fd5b50565b610dd581610c58565b8114610de057600080fd5b50565b610dec81610cae565b8114610df757600080fd5b50565b610e0381610cbd565b8114610e0e57600080fd5b5056fea2646970667358221220dce58ebc871d9f5f6ee8f758497fdb622a310fffda95da51bfb21a16dc0a903864736f6c63430008040033",
          "opcodes": "PUSH1 0xA0 PUSH1 0x40 MSTORE CALLVALUE DUP1 ISZERO PUSH2 0x10 JUMPI PUSH1 0x0 DUP1 REVERT JUMPDEST POP PUSH1 0x40 MLOAD PUSH2 0xF86 CODESIZE SUB DUP1 PUSH2 0xF86 DUP4 CODECOPY DUP2 DUP2 ADD PUSH1 0x40 MSTORE DUP2 ADD SWAP1 PUSH2 0x32 SWAP2 SWAP1 PUSH2 0xD3 JUMP JUMPDEST PUSH32 0x5F668062BE9682387CD8957F8339033192B55962F2280292C705E5811DD8DF8A PUSH1 0x0 SHL PUSH1 0x80 DUP2 DUP2 MSTORE POP POP DUP1 PUSH1 0x1 DUP2 SWAP1 SSTORE POP PUSH20 0x1F98431C8AD98523631AE4A59F267346EA31F984 PUSH1 0x0 DUP1 PUSH2 0x100 EXP DUP2 SLOAD DUP2 PUSH20 0xFFFFFFFFFFFFFFFFFFFFFFFFFFFFFFFFFFFFFFFF MUL NOT AND SWAP1 DUP4 PUSH20 0xFFFFFFFFFFFFFFFFFFFFFFFFFFFFFFFFFFFFFFFF AND MUL OR SWAP1 SSTORE POP POP PUSH2 0x11D JUMP JUMPDEST PUSH1 0x0 DUP2 MLOAD SWAP1 POP PUSH2 0xCD DUP2 PUSH2 0x106 JUMP JUMPDEST SWAP3 SWAP2 POP POP JUMP JUMPDEST PUSH1 0x0 PUSH1 0x20 DUP3 DUP5 SUB SLT ISZERO PUSH2 0xE5 JUMPI PUSH1 0x0 DUP1 REVERT JUMPDEST PUSH1 0x0 PUSH2 0xF3 DUP5 DUP3 DUP6 ADD PUSH2 0xBE JUMP JUMPDEST SWAP2 POP POP SWAP3 SWAP2 POP POP JUMP JUMPDEST PUSH1 0x0 DUP2 SWAP1 POP SWAP2 SWAP1 POP JUMP JUMPDEST PUSH2 0x10F DUP2 PUSH2 0xFC JUMP JUMPDEST DUP2 EQ PUSH2 0x11A JUMPI PUSH1 0x0 DUP1 REVERT JUMPDEST POP JUMP JUMPDEST PUSH1 0x80 MLOAD PUSH2 0xE47 PUSH2 0x13F PUSH1 0x0 CODECOPY PUSH1 0x0 DUP2 DUP2 PUSH2 0x1C5 ADD MSTORE PUSH2 0x545 ADD MSTORE PUSH2 0xE47 PUSH1 0x0 RETURN INVALID PUSH1 0x80 PUSH1 0x40 MSTORE CALLVALUE DUP1 ISZERO PUSH2 0x10 JUMPI PUSH1 0x0 DUP1 REVERT JUMPDEST POP PUSH1 0x4 CALLDATASIZE LT PUSH2 0x88 JUMPI PUSH1 0x0 CALLDATALOAD PUSH1 0xE0 SHR DUP1 PUSH4 0xCA5F6F50 GT PUSH2 0x5B JUMPI DUP1 PUSH4 0xCA5F6F50 EQ PUSH2 0xFF JUMPI DUP1 PUSH4 0xD018DB3E EQ PUSH2 0x12F JUMPI DUP1 PUSH4 0xD2373EC3 EQ PUSH2 0x14B JUMPI DUP1 PUSH4 0xDAB3C81F EQ PUSH2 0x169 JUMPI PUSH2 0x88 JUMP JUMPDEST DUP1 PUSH4 0x1C59390D EQ PUSH2 0x8D JUMPI DUP1 PUSH4 0x2AC4E905 EQ PUSH2 0xA9 JUMPI DUP1 PUSH4 0xAFFED0E0 EQ PUSH2 0xC5 JUMPI DUP1 PUSH4 0xB9B561A4 EQ PUSH2 0xE3 JUMPI JUMPDEST PUSH1 0x0 DUP1 REVERT JUMPDEST PUSH2 0xA7 PUSH1 0x4 DUP1 CALLDATASIZE SUB DUP2 ADD SWAP1 PUSH2 0xA2 SWAP2 SWAP1 PUSH2 0x9DF JUMP JUMPDEST PUSH2 0x185 JUMP JUMPDEST STOP JUMPDEST PUSH2 0xC3 PUSH1 0x4 DUP1 CALLDATASIZE SUB DUP2 ADD SWAP1 PUSH2 0xBE SWAP2 SWAP1 PUSH2 0x97A JUMP JUMPDEST PUSH2 0x1A7 JUMP JUMPDEST STOP JUMPDEST PUSH2 0xCD PUSH2 0x337 JUMP JUMPDEST PUSH1 0x40 MLOAD PUSH2 0xDA SWAP2 SWAP1 PUSH2 0xBCB JUMP JUMPDEST PUSH1 0x40 MLOAD DUP1 SWAP2 SUB SWAP1 RETURN JUMPDEST PUSH2 0xFD PUSH1 0x4 DUP1 CALLDATASIZE SUB DUP2 ADD SWAP1 PUSH2 0xF8 SWAP2 SWAP1 PUSH2 0x97A JUMP JUMPDEST PUSH2 0x34C JUMP JUMPDEST STOP JUMPDEST PUSH2 0x119 PUSH1 0x4 DUP1 CALLDATASIZE SUB DUP2 ADD SWAP1 PUSH2 0x114 SWAP2 SWAP1 PUSH2 0x9A3 JUMP JUMPDEST PUSH2 0x4BE JUMP JUMPDEST PUSH1 0x40 MLOAD PUSH2 0x126 SWAP2 SWAP1 PUSH2 0xB1D JUMP JUMPDEST PUSH1 0x40 MLOAD DUP1 SWAP2 SUB SWAP1 RETURN JUMPDEST PUSH2 0x149 PUSH1 0x4 DUP1 CALLDATASIZE SUB DUP2 ADD SWAP1 PUSH2 0x144 SWAP2 SWAP1 PUSH2 0x97A JUMP JUMPDEST PUSH2 0x4F1 JUMP JUMPDEST STOP JUMPDEST PUSH2 0x153 PUSH2 0x6B9 JUMP JUMPDEST PUSH1 0x40 MLOAD PUSH2 0x160 SWAP2 SWAP1 PUSH2 0xB1D JUMP JUMPDEST PUSH1 0x40 MLOAD DUP1 SWAP2 SUB SWAP1 RETURN JUMPDEST PUSH2 0x183 PUSH1 0x4 DUP1 CALLDATASIZE SUB DUP2 ADD SWAP1 PUSH2 0x17E SWAP2 SWAP1 PUSH2 0x97A JUMP JUMPDEST PUSH2 0x7DA JUMP JUMPDEST STOP JUMPDEST DUP1 PUSH1 0x0 PUSH1 0x14 PUSH2 0x100 EXP DUP2 SLOAD DUP2 PUSH3 0xFFFFFF MUL NOT AND SWAP1 DUP4 PUSH3 0xFFFFFF AND MUL OR SWAP1 SSTORE POP POP JUMP JUMPDEST PUSH1 0x0 DUP2 PUSH20 0xFFFFFFFFFFFFFFFFFFFFFFFFFFFFFFFFFFFFFFFF AND PUSH2 0x20C PUSH32 0x0 PUSH1 0x2 PUSH1 0x0 PUSH1 0x14 SWAP1 SLOAD SWAP1 PUSH2 0x100 EXP SWAP1 DIV PUSH3 0xFFFFFF AND PUSH2 0x202 SWAP2 SWAP1 PUSH2 0xC0D JUMP JUMPDEST PUSH3 0xFFFFFF AND PUSH2 0x4BE JUMP JUMPDEST PUSH1 0x40 MLOAD PUSH1 0x24 ADD PUSH2 0x21C SWAP2 SWAP1 PUSH2 0xB1D JUMP JUMPDEST PUSH1 0x40 MLOAD PUSH1 0x20 DUP2 DUP4 SUB SUB DUP2 MSTORE SWAP1 PUSH1 0x40 MSTORE PUSH32 0x96AFDD8500000000000000000000000000000000000000000000000000000000 PUSH28 0xFFFFFFFFFFFFFFFFFFFFFFFFFFFFFFFFFFFFFFFFFFFFFFFFFFFFFFFF NOT AND PUSH1 0x20 DUP3 ADD DUP1 MLOAD PUSH28 0xFFFFFFFFFFFFFFFFFFFFFFFFFFFFFFFFFFFFFFFFFFFFFFFFFFFFFFFF DUP4 DUP2 DUP4 AND OR DUP4 MSTORE POP POP POP POP PUSH1 0x40 MLOAD PUSH2 0x2A6 SWAP2 SWAP1 PUSH2 0xB06 JUMP JUMPDEST PUSH1 0x0 PUSH1 0x40 MLOAD DUP1 DUP4 SUB DUP2 PUSH1 0x0 DUP7 GAS CALL SWAP2 POP POP RETURNDATASIZE DUP1 PUSH1 0x0 DUP2 EQ PUSH2 0x2E3 JUMPI PUSH1 0x40 MLOAD SWAP2 POP PUSH1 0x1F NOT PUSH1 0x3F RETURNDATASIZE ADD AND DUP3 ADD PUSH1 0x40 MSTORE RETURNDATASIZE DUP3 MSTORE RETURNDATASIZE PUSH1 0x0 PUSH1 0x20 DUP5 ADD RETURNDATACOPY PUSH2 0x2E8 JUMP JUMPDEST PUSH1 0x60 SWAP2 POP JUMPDEST POP POP SWAP1 POP PUSH1 0x1 ISZERO ISZERO DUP2 ISZERO ISZERO EQ PUSH2 0x333 JUMPI PUSH1 0x40 MLOAD PUSH32 0x8C379A000000000000000000000000000000000000000000000000000000000 DUP2 MSTORE PUSH1 0x4 ADD PUSH2 0x32A SWAP1 PUSH2 0xBAB JUMP JUMPDEST PUSH1 0x40 MLOAD DUP1 SWAP2 SUB SWAP1 REVERT JUMPDEST POP POP JUMP JUMPDEST PUSH1 0x0 PUSH1 0x14 SWAP1 SLOAD SWAP1 PUSH2 0x100 EXP SWAP1 DIV PUSH3 0xFFFFFF AND DUP2 JUMP JUMPDEST PUSH1 0x0 DUP2 PUSH20 0xFFFFFFFFFFFFFFFFFFFFFFFFFFFFFFFFFFFFFFFF AND PUSH2 0x393 PUSH1 0x1 SLOAD PUSH1 0x1 PUSH1 0x0 PUSH1 0x14 SWAP1 SLOAD SWAP1 PUSH2 0x100 EXP SWAP1 DIV PUSH3 0xFFFFFF AND PUSH2 0x389 SWAP2 SWAP1 PUSH2 0xC0D JUMP JUMPDEST PUSH3 0xFFFFFF AND PUSH2 0x4BE JUMP JUMPDEST PUSH1 0x40 MLOAD PUSH1 0x24 ADD PUSH2 0x3A3 SWAP2 SWAP1 PUSH2 0xB1D JUMP JUMPDEST PUSH1 0x40 MLOAD PUSH1 0x20 DUP2 DUP4 SUB SUB DUP2 MSTORE SWAP1 PUSH1 0x40 MSTORE PUSH32 0x9BB8B17100000000000000000000000000000000000000000000000000000000 PUSH28 0xFFFFFFFFFFFFFFFFFFFFFFFFFFFFFFFFFFFFFFFFFFFFFFFFFFFFFFFF NOT AND PUSH1 0x20 DUP3 ADD DUP1 MLOAD PUSH28 0xFFFFFFFFFFFFFFFFFFFFFFFFFFFFFFFFFFFFFFFFFFFFFFFFFFFFFFFF DUP4 DUP2 DUP4 AND OR DUP4 MSTORE POP POP POP POP PUSH1 0x40 MLOAD PUSH2 0x42D SWAP2 SWAP1 PUSH2 0xB06 JUMP JUMPDEST PUSH1 0x0 PUSH1 0x40 MLOAD DUP1 DUP4 SUB DUP2 PUSH1 0x0 DUP7 GAS CALL SWAP2 POP POP RETURNDATASIZE DUP1 PUSH1 0x0 DUP2 EQ PUSH2 0x46A JUMPI PUSH1 0x40 MLOAD SWAP2 POP PUSH1 0x1F NOT PUSH1 0x3F RETURNDATASIZE ADD AND DUP3 ADD PUSH1 0x40 MSTORE RETURNDATASIZE DUP3 MSTORE RETURNDATASIZE PUSH1 0x0 PUSH1 0x20 DUP5 ADD RETURNDATACOPY PUSH2 0x46F JUMP JUMPDEST PUSH1 0x60 SWAP2 POP JUMPDEST POP POP SWAP1 POP PUSH1 0x1 ISZERO ISZERO DUP2 ISZERO ISZERO EQ PUSH2 0x4BA JUMPI PUSH1 0x40 MLOAD PUSH32 0x8C379A000000000000000000000000000000000000000000000000000000000 DUP2 MSTORE PUSH1 0x4 ADD PUSH2 0x4B1 SWAP1 PUSH2 0xBAB JUMP JUMPDEST PUSH1 0x40 MLOAD DUP1 SWAP2 SUB SWAP1 REVERT JUMPDEST POP POP JUMP JUMPDEST PUSH1 0x0 DUP3 DUP3 PUSH1 0x40 MLOAD PUSH1 0x20 ADD PUSH2 0x4D3 SWAP3 SWAP2 SWAP1 PUSH2 0xB38 JUMP JUMPDEST PUSH1 0x40 MLOAD PUSH1 0x20 DUP2 DUP4 SUB SUB DUP2 MSTORE SWAP1 PUSH1 0x40 MSTORE DUP1 MLOAD SWAP1 PUSH1 0x20 ADD KECCAK256 SWAP1 POP SWAP3 SWAP2 POP POP JUMP JUMPDEST PUSH1 0x0 DUP2 PUSH20 0xFFFFFFFFFFFFFFFFFFFFFFFFFFFFFFFFFFFFFFFF AND PUSH2 0x512 PUSH2 0x6B9 JUMP JUMPDEST PUSH2 0x540 PUSH1 0x1 SLOAD PUSH1 0x1 PUSH1 0x0 PUSH1 0x14 SWAP1 SLOAD SWAP1 PUSH2 0x100 EXP SWAP1 DIV PUSH3 0xFFFFFF AND PUSH2 0x536 SWAP2 SWAP1 PUSH2 0xC0D JUMP JUMPDEST PUSH3 0xFFFFFF AND PUSH2 0x4BE JUMP JUMPDEST PUSH2 0x58C PUSH32 0x0 PUSH1 0x2 PUSH1 0x0 PUSH1 0x14 SWAP1 SLOAD SWAP1 PUSH2 0x100 EXP SWAP1 DIV PUSH3 0xFFFFFF AND PUSH2 0x582 SWAP2 SWAP1 PUSH2 0xC0D JUMP JUMPDEST PUSH3 0xFFFFFF AND PUSH2 0x4BE JUMP JUMPDEST PUSH1 0x40 MLOAD PUSH1 0x24 ADD PUSH2 0x59E SWAP4 SWAP3 SWAP2 SWAP1 PUSH2 0xB61 JUMP JUMPDEST PUSH1 0x40 MLOAD PUSH1 0x20 DUP2 DUP4 SUB SUB DUP2 MSTORE SWAP1 PUSH1 0x40 MSTORE PUSH32 0x7BBD557400000000000000000000000000000000000000000000000000000000 PUSH28 0xFFFFFFFFFFFFFFFFFFFFFFFFFFFFFFFFFFFFFFFFFFFFFFFFFFFFFFFF NOT AND PUSH1 0x20 DUP3 ADD DUP1 MLOAD PUSH28 0xFFFFFFFFFFFFFFFFFFFFFFFFFFFFFFFFFFFFFFFFFFFFFFFFFFFFFFFF DUP4 DUP2 DUP4 AND OR DUP4 MSTORE POP POP POP POP PUSH1 0x40 MLOAD PUSH2 0x628 SWAP2 SWAP1 PUSH2 0xB06 JUMP JUMPDEST PUSH1 0x0 PUSH1 0x40 MLOAD DUP1 DUP4 SUB DUP2 PUSH1 0x0 DUP7 GAS CALL SWAP2 POP POP RETURNDATASIZE DUP1 PUSH1 0x0 DUP2 EQ PUSH2 0x665 JUMPI PUSH1 0x40 MLOAD SWAP2 POP PUSH1 0x1F NOT PUSH1 0x3F RETURNDATASIZE ADD AND DUP3 ADD PUSH1 0x40 MSTORE RETURNDATASIZE DUP3 MSTORE RETURNDATASIZE PUSH1 0x0 PUSH1 0x20 DUP5 ADD RETURNDATACOPY PUSH2 0x66A JUMP JUMPDEST PUSH1 0x60 SWAP2 POP JUMPDEST POP POP SWAP1 POP PUSH1 0x1 ISZERO ISZERO DUP2 ISZERO ISZERO EQ PUSH2 0x6B5 JUMPI PUSH1 0x40 MLOAD PUSH32 0x8C379A000000000000000000000000000000000000000000000000000000000 DUP2 MSTORE PUSH1 0x4 ADD PUSH2 0x6AC SWAP1 PUSH2 0xBAB JUMP JUMPDEST PUSH1 0x40 MLOAD DUP1 SWAP2 SUB SWAP1 REVERT JUMPDEST POP POP JUMP JUMPDEST PUSH1 0x0 DUP1 PUSH1 0x0 DUP1 PUSH1 0x0 SWAP1 SLOAD SWAP1 PUSH2 0x100 EXP SWAP1 DIV PUSH20 0xFFFFFFFFFFFFFFFFFFFFFFFFFFFFFFFFFFFFFFFF AND SWAP1 POP PUSH1 0x0 DUP1 PUSH1 0x14 SWAP1 SLOAD SWAP1 PUSH2 0x100 EXP SWAP1 DIV PUSH3 0xFFFFFF AND PUSH3 0xFFFFFF AND SWAP1 POP PUSH1 0x0 PUSH4 0x22AFCCCB PUSH1 0xE0 SHL PUSH2 0xBB8 PUSH1 0x40 MLOAD PUSH1 0x20 ADD PUSH2 0x71A SWAP3 SWAP2 SWAP1 PUSH2 0xADA JUMP JUMPDEST PUSH1 0x40 MLOAD PUSH1 0x20 DUP2 DUP4 SUB SUB DUP2 MSTORE SWAP1 PUSH1 0x40 MSTORE SWAP1 POP PUSH1 0x0 PUSH1 0x20 PUSH8 0xFFFFFFFFFFFFFFFF DUP2 GT ISZERO PUSH2 0x76E JUMPI PUSH32 0x4E487B7100000000000000000000000000000000000000000000000000000000 PUSH1 0x0 MSTORE PUSH1 0x41 PUSH1 0x4 MSTORE PUSH1 0x24 PUSH1 0x0 REVERT JUMPDEST PUSH1 0x40 MLOAD SWAP1 DUP1 DUP3 MSTORE DUP1 PUSH1 0x1F ADD PUSH1 0x1F NOT AND PUSH1 0x20 ADD DUP3 ADD PUSH1 0x40 MSTORE DUP1 ISZERO PUSH2 0x7A0 JUMPI DUP2 PUSH1 0x20 ADD PUSH1 0x1 DUP3 MUL DUP1 CALLDATASIZE DUP4 CALLDATACOPY DUP1 DUP3 ADD SWAP2 POP POP SWAP1 POP JUMPDEST POP SWAP1 POP PUSH1 0x0 SLOAD SWAP5 POP PUSH1 0x20 DUP2 ADD PUSH1 0x20 DUP2 PUSH1 0x24 PUSH1 0x20 DUP7 ADD PUSH1 0x0 DUP10 GAS CALL POP DUP1 MLOAD DUP5 DUP2 DUP9 ADD ADD DUP3 MSTORE PUSH1 0x20 DUP3 KECCAK256 SWAP7 POP POP POP DUP5 PUSH1 0x0 SHL SWAP6 POP POP POP POP POP POP SWAP1 JUMP JUMPDEST PUSH1 0x0 DUP2 PUSH20 0xFFFFFFFFFFFFFFFFFFFFFFFFFFFFFFFFFFFFFFFF AND PUSH2 0x7FB PUSH2 0x6B9 JUMP JUMPDEST PUSH1 0x40 MLOAD PUSH1 0x24 ADD PUSH2 0x80B SWAP2 SWAP1 PUSH2 0xB1D JUMP JUMPDEST PUSH1 0x40 MLOAD PUSH1 0x20 DUP2 DUP4 SUB SUB DUP2 MSTORE SWAP1 PUSH1 0x40 MSTORE PUSH32 0x6BC5216D00000000000000000000000000000000000000000000000000000000 PUSH28 0xFFFFFFFFFFFFFFFFFFFFFFFFFFFFFFFFFFFFFFFFFFFFFFFFFFFFFFFF NOT AND PUSH1 0x20 DUP3 ADD DUP1 MLOAD PUSH28 0xFFFFFFFFFFFFFFFFFFFFFFFFFFFFFFFFFFFFFFFFFFFFFFFFFFFFFFFF DUP4 DUP2 DUP4 AND OR DUP4 MSTORE POP POP POP POP PUSH1 0x40 MLOAD PUSH2 0x895 SWAP2 SWAP1 PUSH2 0xB06 JUMP JUMPDEST PUSH1 0x0 PUSH1 0x40 MLOAD DUP1 DUP4 SUB DUP2 PUSH1 0x0 DUP7 GAS CALL SWAP2 POP POP RETURNDATASIZE DUP1 PUSH1 0x0 DUP2 EQ PUSH2 0x8D2 JUMPI PUSH1 0x40 MLOAD SWAP2 POP PUSH1 0x1F NOT PUSH1 0x3F RETURNDATASIZE ADD AND DUP3 ADD PUSH1 0x40 MSTORE RETURNDATASIZE DUP3 MSTORE RETURNDATASIZE PUSH1 0x0 PUSH1 0x20 DUP5 ADD RETURNDATACOPY PUSH2 0x8D7 JUMP JUMPDEST PUSH1 0x60 SWAP2 POP JUMPDEST POP POP SWAP1 POP PUSH1 0x1 ISZERO ISZERO DUP2 ISZERO ISZERO EQ PUSH2 0x922 JUMPI PUSH1 0x40 MLOAD PUSH32 0x8C379A000000000000000000000000000000000000000000000000000000000 DUP2 MSTORE PUSH1 0x4 ADD PUSH2 0x919 SWAP1 PUSH2 0xBAB JUMP JUMPDEST PUSH1 0x40 MLOAD DUP1 SWAP2 SUB SWAP1 REVERT JUMPDEST POP POP JUMP JUMPDEST PUSH1 0x0 DUP2 CALLDATALOAD SWAP1 POP PUSH2 0x935 DUP2 PUSH2 0xDB5 JUMP JUMPDEST SWAP3 SWAP2 POP POP JUMP JUMPDEST PUSH1 0x0 DUP2 CALLDATALOAD SWAP1 POP PUSH2 0x94A DUP2 PUSH2 0xDCC JUMP JUMPDEST SWAP3 SWAP2 POP POP JUMP JUMPDEST PUSH1 0x0 DUP2 CALLDATALOAD SWAP1 POP PUSH2 0x95F DUP2 PUSH2 0xDE3 JUMP JUMPDEST SWAP3 SWAP2 POP POP JUMP JUMPDEST PUSH1 0x0 DUP2 CALLDATALOAD SWAP1 POP PUSH2 0x974 DUP2 PUSH2 0xDFA JUMP JUMPDEST SWAP3 SWAP2 POP POP JUMP JUMPDEST PUSH1 0x0 PUSH1 0x20 DUP3 DUP5 SUB SLT ISZERO PUSH2 0x98C JUMPI PUSH1 0x0 DUP1 REVERT JUMPDEST PUSH1 0x0 PUSH2 0x99A DUP5 DUP3 DUP6 ADD PUSH2 0x926 JUMP JUMPDEST SWAP2 POP POP SWAP3 SWAP2 POP POP JUMP JUMPDEST PUSH1 0x0 DUP1 PUSH1 0x40 DUP4 DUP6 SUB SLT ISZERO PUSH2 0x9B6 JUMPI PUSH1 0x0 DUP1 REVERT JUMPDEST PUSH1 0x0 PUSH2 0x9C4 DUP6 DUP3 DUP7 ADD PUSH2 0x93B JUMP JUMPDEST SWAP3 POP POP PUSH1 0x20 PUSH2 0x9D5 DUP6 DUP3 DUP7 ADD PUSH2 0x965 JUMP JUMPDEST SWAP2 POP POP SWAP3 POP SWAP3 SWAP1 POP JUMP JUMPDEST PUSH1 0x0 PUSH1 0x20 DUP3 DUP5 SUB SLT ISZERO PUSH2 0x9F1 JUMPI PUSH1 0x0 DUP1 REVERT JUMPDEST PUSH1 0x0 PUSH2 0x9FF DUP5 DUP3 DUP6 ADD PUSH2 0x950 JUMP JUMPDEST SWAP2 POP POP SWAP3 SWAP2 POP POP JUMP JUMPDEST PUSH2 0xA11 DUP2 PUSH2 0xC58 JUMP JUMPDEST DUP3 MSTORE POP POP JUMP JUMPDEST PUSH2 0xA28 PUSH2 0xA23 DUP3 PUSH2 0xC62 JUMP JUMPDEST PUSH2 0xCFA JUMP JUMPDEST DUP3 MSTORE POP POP JUMP JUMPDEST PUSH1 0x0 PUSH2 0xA39 DUP3 PUSH2 0xBE6 JUMP JUMPDEST PUSH2 0xA43 DUP2 DUP6 PUSH2 0xBF1 JUMP JUMPDEST SWAP4 POP PUSH2 0xA53 DUP2 DUP6 PUSH1 0x20 DUP7 ADD PUSH2 0xCC7 JUMP JUMPDEST DUP1 DUP5 ADD SWAP2 POP POP SWAP3 SWAP2 POP POP JUMP JUMPDEST PUSH1 0x0 PUSH2 0xA6C PUSH1 0x37 DUP4 PUSH2 0xBFC JUMP JUMPDEST SWAP2 POP PUSH2 0xA77 DUP3 PUSH2 0xD3D JUMP JUMPDEST PUSH1 0x40 DUP3 ADD SWAP1 POP SWAP2 SWAP1 POP JUMP JUMPDEST PUSH1 0x0 PUSH2 0xA8F PUSH1 0x9 DUP4 PUSH2 0xBFC JUMP JUMPDEST SWAP2 POP PUSH2 0xA9A DUP3 PUSH2 0xD8C JUMP JUMPDEST PUSH1 0x20 DUP3 ADD SWAP1 POP SWAP2 SWAP1 POP JUMP JUMPDEST PUSH2 0xAAE DUP2 PUSH2 0xCAE JUMP JUMPDEST DUP3 MSTORE POP POP JUMP JUMPDEST PUSH2 0xABD DUP2 PUSH2 0xCBD JUMP JUMPDEST DUP3 MSTORE POP POP JUMP JUMPDEST PUSH2 0xAD4 PUSH2 0xACF DUP3 PUSH2 0xCBD JUMP JUMPDEST PUSH2 0xD04 JUMP JUMPDEST DUP3 MSTORE POP POP JUMP JUMPDEST PUSH1 0x0 PUSH2 0xAE6 DUP3 DUP6 PUSH2 0xA17 JUMP JUMPDEST PUSH1 0x4 DUP3 ADD SWAP2 POP PUSH2 0xAF6 DUP3 DUP5 PUSH2 0xAC3 JUMP JUMPDEST PUSH1 0x20 DUP3 ADD SWAP2 POP DUP2 SWAP1 POP SWAP4 SWAP3 POP POP POP JUMP JUMPDEST PUSH1 0x0 PUSH2 0xB12 DUP3 DUP5 PUSH2 0xA2E JUMP JUMPDEST SWAP2 POP DUP2 SWAP1 POP SWAP3 SWAP2 POP POP JUMP JUMPDEST PUSH1 0x0 PUSH1 0x20 DUP3 ADD SWAP1 POP PUSH2 0xB32 PUSH1 0x0 DUP4 ADD DUP5 PUSH2 0xA08 JUMP JUMPDEST SWAP3 SWAP2 POP POP JUMP JUMPDEST PUSH1 0x0 PUSH1 0x40 DUP3 ADD SWAP1 POP PUSH2 0xB4D PUSH1 0x0 DUP4 ADD DUP6 PUSH2 0xA08 JUMP JUMPDEST PUSH2 0xB5A PUSH1 0x20 DUP4 ADD DUP5 PUSH2 0xAB4 JUMP JUMPDEST SWAP4 SWAP3 POP POP POP JUMP JUMPDEST PUSH1 0x0 PUSH1 0x80 DUP3 ADD SWAP1 POP DUP2 DUP2 SUB PUSH1 0x0 DUP4 ADD MSTORE PUSH2 0xB7A DUP2 PUSH2 0xA5F JUMP JUMPDEST SWAP1 POP PUSH2 0xB89 PUSH1 0x20 DUP4 ADD DUP7 PUSH2 0xA08 JUMP JUMPDEST PUSH2 0xB96 PUSH1 0x40 DUP4 ADD DUP6 PUSH2 0xA08 JUMP JUMPDEST PUSH2 0xBA3 PUSH1 0x60 DUP4 ADD DUP5 PUSH2 0xA08 JUMP JUMPDEST SWAP5 SWAP4 POP POP POP POP JUMP JUMPDEST PUSH1 0x0 PUSH1 0x20 DUP3 ADD SWAP1 POP DUP2 DUP2 SUB PUSH1 0x0 DUP4 ADD MSTORE PUSH2 0xBC4 DUP2 PUSH2 0xA82 JUMP JUMPDEST SWAP1 POP SWAP2 SWAP1 POP JUMP JUMPDEST PUSH1 0x0 PUSH1 0x20 DUP3 ADD SWAP1 POP PUSH2 0xBE0 PUSH1 0x0 DUP4 ADD DUP5 PUSH2 0xAA5 JUMP JUMPDEST SWAP3 SWAP2 POP POP JUMP JUMPDEST PUSH1 0x0 DUP2 MLOAD SWAP1 POP SWAP2 SWAP1 POP JUMP JUMPDEST PUSH1 0x0 DUP2 SWAP1 POP SWAP3 SWAP2 POP POP JUMP JUMPDEST PUSH1 0x0 DUP3 DUP3 MSTORE PUSH1 0x20 DUP3 ADD SWAP1 POP SWAP3 SWAP2 POP POP JUMP JUMPDEST PUSH1 0x0 PUSH2 0xC18 DUP3 PUSH2 0xCAE JUMP JUMPDEST SWAP2 POP PUSH2 0xC23 DUP4 PUSH2 0xCAE JUMP JUMPDEST SWAP3 POP DUP3 PUSH3 0xFFFFFF SUB DUP3 GT ISZERO PUSH2 0xC3B JUMPI PUSH2 0xC3A PUSH2 0xD0E JUMP JUMPDEST JUMPDEST DUP3 DUP3 ADD SWAP1 POP SWAP3 SWAP2 POP POP JUMP JUMPDEST PUSH1 0x0 PUSH2 0xC51 DUP3 PUSH2 0xC8E JUMP JUMPDEST SWAP1 POP SWAP2 SWAP1 POP JUMP JUMPDEST PUSH1 0x0 DUP2 SWAP1 POP SWAP2 SWAP1 POP JUMP JUMPDEST PUSH1 0x0 PUSH32 0xFFFFFFFF00000000000000000000000000000000000000000000000000000000 DUP3 AND SWAP1 POP SWAP2 SWAP1 POP JUMP JUMPDEST PUSH1 0x0 PUSH20 0xFFFFFFFFFFFFFFFFFFFFFFFFFFFFFFFFFFFFFFFF DUP3 AND SWAP1 POP SWAP2 SWAP1 POP JUMP JUMPDEST PUSH1 0x0 PUSH3 0xFFFFFF DUP3 AND SWAP1 POP SWAP2 SWAP1 POP JUMP JUMPDEST PUSH1 0x0 DUP2 SWAP1 POP SWAP2 SWAP1 POP JUMP JUMPDEST PUSH1 0x0 JUMPDEST DUP4 DUP2 LT ISZERO PUSH2 0xCE5 JUMPI DUP1 DUP3 ADD MLOAD DUP2 DUP5 ADD MSTORE PUSH1 0x20 DUP2 ADD SWAP1 POP PUSH2 0xCCA JUMP JUMPDEST DUP4 DUP2 GT ISZERO PUSH2 0xCF4 JUMPI PUSH1 0x0 DUP5 DUP5 ADD MSTORE JUMPDEST POP POP POP POP JUMP JUMPDEST PUSH1 0x0 DUP2 SWAP1 POP SWAP2 SWAP1 POP JUMP JUMPDEST PUSH1 0x0 DUP2 SWAP1 POP SWAP2 SWAP1 POP JUMP JUMPDEST PUSH32 0x4E487B7100000000000000000000000000000000000000000000000000000000 PUSH1 0x0 MSTORE PUSH1 0x11 PUSH1 0x4 MSTORE PUSH1 0x24 PUSH1 0x0 REVERT JUMPDEST PUSH32 0x6B757A6E6574736F762D6D2E6769746875622E696F2C207075626C69634B4D40 PUSH1 0x0 DUP3 ADD MSTORE PUSH32 0x79616E6465782E72752C2048692C207468657265203A29000000000000000000 PUSH1 0x20 DUP3 ADD MSTORE POP JUMP JUMPDEST PUSH32 0x756E737563636573730000000000000000000000000000000000000000000000 PUSH1 0x0 DUP3 ADD MSTORE POP JUMP JUMPDEST PUSH2 0xDBE DUP2 PUSH2 0xC46 JUMP JUMPDEST DUP2 EQ PUSH2 0xDC9 JUMPI PUSH1 0x0 DUP1 REVERT JUMPDEST POP JUMP JUMPDEST PUSH2 0xDD5 DUP2 PUSH2 0xC58 JUMP JUMPDEST DUP2 EQ PUSH2 0xDE0 JUMPI PUSH1 0x0 DUP1 REVERT JUMPDEST POP JUMP JUMPDEST PUSH2 0xDEC DUP2 PUSH2 0xCAE JUMP JUMPDEST DUP2 EQ PUSH2 0xDF7 JUMPI PUSH1 0x0 DUP1 REVERT JUMPDEST POP JUMP JUMPDEST PUSH2 0xE03 DUP2 PUSH2 0xCBD JUMP JUMPDEST DUP2 EQ PUSH2 0xE0E JUMPI PUSH1 0x0 DUP1 REVERT JUMPDEST POP JUMP INVALID LOG2 PUSH5 0x6970667358 0x22 SLT KECCAK256 0xDC 0xE5 DUP15 0xBC DUP8 SAR SWAP16 0x5F PUSH15 0xE8F758497FDB622A310FFFDA95DA51 0xBF 0xB2 BYTE AND 0xDC EXP SWAP1 CODESIZE PUSH5 0x736F6C6343 STOP ADDMOD DIV STOP CALLER "
        },
        "methodIdentifiers": {
          "attack(address)": "d018db3e",
          "attack1(address)": "dab3c81f",
          "attack2(address)": "b9b561a4",
          "attack3(address)": "2ac4e905",
          "calcSecret1()": "d2373ec3",
          "calcSecret2_3(bytes32,uint256)": "ca5f6f50",
          "nonce()": "affed0e0",
          "setNonce(uint24)": "1c59390d"
        }
      }
    }
  }
}