{
  "contracts/Secret.sol": {
    "Secret": {
      "abi": [
        {
          "inputs": [],
          "stateMutability": "nonpayable",
          "type": "constructor"
        },
        {
          "anonymous": false,
          "inputs": [
            {
              "indexed": false,
              "internalType": "uint256",
              "name": "res",
              "type": "uint256"
            },
            {
              "indexed": false,
              "internalType": "string",
              "name": "contacts",
              "type": "string"
            }
          ],
          "name": "Success",
          "type": "event"
        },
        {
          "inputs": [],
          "name": "nonce",
          "outputs": [
            {
              "internalType": "uint24",
              "name": "",
              "type": "uint24"
            }
          ],
          "stateMutability": "view",
          "type": "function"
        },
        {
          "inputs": [
            {
              "internalType": "bytes32",
              "name": "password_",
              "type": "bytes32"
            }
          ],
          "name": "secret1",
          "outputs": [],
          "stateMutability": "nonpayable",
          "type": "function"
        },
        {
          "inputs": [
            {
              "internalType": "bytes32",
              "name": "password_",
              "type": "bytes32"
            }
          ],
          "name": "secret2",
          "outputs": [],
          "stateMutability": "nonpayable",
          "type": "function"
        },
        {
          "inputs": [
            {
              "internalType": "bytes32",
              "name": "password_",
              "type": "bytes32"
            }
          ],
          "name": "secret3",
          "outputs": [],
          "stateMutability": "nonpayable",
          "type": "function"
        },
        {
          "inputs": [
            {
              "internalType": "string",
              "name": "contacts",
              "type": "string"
            },
            {
              "internalType": "bytes32",
              "name": "password1",
              "type": "bytes32"
            },
            {
              "internalType": "bytes32",
              "name": "password2",
              "type": "bytes32"
            },
            {
              "internalType": "bytes32",
              "name": "password3",
              "type": "bytes32"
            }
          ],
          "name": "submitApplication",
          "outputs": [],
          "stateMutability": "nonpayable",
          "type": "function"
        }
      ],
      "evm": {
        "bytecode": {
          "linkReferences": {},
          "object": "60a06040523480156200001157600080fd5b506200003d79c380755ca7f8336fb62250484a62801dd3098a9e48ece96341bb620000c860201b60201c565b6001819055507f5f668062be9682387cd8957f8339033192b55962f2280292c705e5811dd8df8a60001b60808181525050731f98431c8ad98523631ae4a59f267346ea31f9846000806101000a81548173ffffffffffffffffffffffffffffffffffffffff021916908373ffffffffffffffffffffffffffffffffffffffff16021790555062000334565b600080823373ffffffffffffffffffffffffffffffffffffffff16444542620000f291906200028f565b620000fe91906200028f565b6200010a91906200028f565b6200011691906200028f565b90506000602067ffffffffffffffff8111156200015c577f4e487b7100000000000000000000000000000000000000000000000000000000600052604160045260246000fd5b6040519080825280601f01601f1916602001820160405280156200018f5781602001600182028036833780820191505090505b50905060006001600060149054906101000a900462ffffff16620001b491906200024f565b62ffffff16905062ffffff81018384099250600160005b6005811015620001f657818504820191508160208501526020808501209150600181019050620001cb565b50806020840152506001600060148282829054906101000a900462ffffff166200022191906200024f565b92506101000a81548162ffffff021916908362ffffff16021790555081805190602001209350505050919050565b60006200025c82620002ec565b91506200026983620002ec565b92508262ffffff0382111562000284576200028362000305565b5b828201905092915050565b60006200029c82620002fb565b9150620002a983620002fb565b9250827fffffffffffffffffffffffffffffffffffffffffffffffffffffffffffffffff03821115620002e157620002e062000305565b5b828201905092915050565b600062ffffff82169050919050565b6000819050919050565b7f4e487b7100000000000000000000000000000000000000000000000000000000600052601160045260246000fd5b608051610b0662000350600039600061048d0152610b066000f3fe608060405234801561001057600080fd5b50600436106100575760003560e01c80636bc5216d1461005c5780637bbd55741461007857806396afdd85146100945780639bb8b171146100b0578063affed0e0146100cc575b600080fd5b610076600480360381019061007191906106a1565b6100ea565b005b610092600480360381019061008d91906106ca565b610284565b005b6100ae60048036038101906100a991906106a1565b610489565b005b6100ca60048036038101906100c591906106a1565b61056a565b005b6100d461062d565b6040516100e191906108c8565b60405180910390f35b60008060008054906101000a900473ffffffffffffffffffffffffffffffffffffffff16905060008060149054906101000a900462ffffff1662ffffff16905060006322afcccb60e01b610bb8604051602001610148929190610818565b60405160208183030381529060405290506000602067ffffffffffffffff81111561019c577f4e487b7100000000000000000000000000000000000000000000000000000000600052604160045260246000fd5b6040519080825280601f01601f1916602001820160405280156101ce5781602001600182028036833780820191505090505b5090506000549450602081016020816024602086016000895af15080518481880101825260208220965050508460001b861461023f576040517f08c379a0000000000000000000000000000000000000000000000000000000008152600401610236906108a8565b60405180910390fd5b6001600060148282829054906101000a900462ffffff166102609190610926565b92506101000a81548162ffffff021916908362ffffff160217905550505050505050565b60003073ffffffffffffffffffffffffffffffffffffffff16636bc5216d856040518263ffffffff1660e01b81526004016102bf9190610844565b600060405180830381600087803b1580156102d957600080fd5b505af19250505080156102ea575060015b6102f357610303565b600181610300919061095f565b90505b3073ffffffffffffffffffffffffffffffffffffffff16639bb8b171846040518263ffffffff1660e01b815260040161033c9190610844565b600060405180830381600087803b15801561035657600080fd5b505af1925050508015610367575060015b61037057610380565b60018161037d919061095f565b90505b3073ffffffffffffffffffffffffffffffffffffffff166396afdd85836040518263ffffffff1660e01b81526004016103b99190610844565b600060405180830381600087803b1580156103d357600080fd5b505af19250505080156103e4575060015b6103ed576103fd565b6001816103fa919061095f565b90505b6001811115610446577fb6462da34c0aff9a2cb2cc08f8d1f1a4ddf770fbb563e8f3b40eb6c5bb91def4818787604051610439939291906108e3565b60405180910390a1610481565b6040517f08c379a000000000000000000000000000000000000000000000000000000000815260040161047890610888565b60405180910390fd5b505050505050565b60007f0000000000000000000000000000000000000000000000000000000000000000905080600060149054906101000a900462ffffff166040516020016104d292919061085f565b604051602081830303815290604052805190602001208214610529576040517f08c379a0000000000000000000000000000000000000000000000000000000008152600401610520906108a8565b60405180910390fd5b6001600060148282829054906101000a900462ffffff1661054a9190610926565b92506101000a81548162ffffff021916908362ffffff1602179055505050565b6000600154905080600060149054906101000a900462ffffff1660405160200161059592919061085f565b6040516020818303038152906040528051906020012082146105ec576040517f08c379a00000000000000000000000000000000000000000000000000000000081526004016105e3906108a8565b60405180910390fd5b6001600060148282829054906101000a900462ffffff1661060d9190610926565b92506101000a81548162ffffff021916908362ffffff1602179055505050565b600060149054906101000a900462ffffff1681565b60008135905061065181610ab9565b92915050565b60008083601f84011261066957600080fd5b8235905067ffffffffffffffff81111561068257600080fd5b60208301915083600182028301111561069a57600080fd5b9250929050565b6000602082840312156106b357600080fd5b60006106c184828501610642565b91505092915050565b6000806000806000608086880312156106e257600080fd5b600086013567ffffffffffffffff8111156106fc57600080fd5b61070888828901610657565b9550955050602061071b88828901610642565b935050604061072c88828901610642565b925050606061073d88828901610642565b9150509295509295909350565b610753816109b5565b82525050565b61076a610765826109bf565b610a13565b82525050565b600061077c8385610915565b9350610789838584610a04565b61079283610a56565b840190509392505050565b60006107aa601083610915565b91506107b582610a67565b602082019050919050565b60006107cd600983610915565b91506107d882610a90565b602082019050919050565b6107ec816109eb565b82525050565b6107fb816109fa565b82525050565b61081261080d826109fa565b610a1d565b82525050565b60006108248285610759565b6004820191506108348284610801565b6020820191508190509392505050565b6000602082019050610859600083018461074a565b92915050565b6000604082019050610874600083018561074a565b61088160208301846107e3565b9392505050565b600060208201905081810360008301526108a18161079d565b9050919050565b600060208201905081810360008301526108c1816107c0565b9050919050565b60006020820190506108dd60008301846107e3565b92915050565b60006040820190506108f860008301866107f2565b818103602083015261090b818486610770565b9050949350505050565b600082825260208201905092915050565b6000610931826109eb565b915061093c836109eb565b92508262ffffff0382111561095457610953610a27565b5b828201905092915050565b600061096a826109fa565b9150610975836109fa565b9250827fffffffffffffffffffffffffffffffffffffffffffffffffffffffffffffffff038211156109aa576109a9610a27565b5b828201905092915050565b6000819050919050565b60007fffffffff0000000000000000000000000000000000000000000000000000000082169050919050565b600062ffffff82169050919050565b6000819050919050565b82818337600083830152505050565b6000819050919050565b6000819050919050565b7f4e487b7100000000000000000000000000000000000000000000000000000000600052601160045260246000fd5b6000601f19601f8301169050919050565b7f53636f726520697320746f6f206c6f7700000000000000000000000000000000600082015250565b7f466f7262696464656e0000000000000000000000000000000000000000000000600082015250565b610ac2816109b5565b8114610acd57600080fd5b5056fea264697066735822122038ab1d32e5a8a192ac13a9881dd7b32b7c30b18f83bb1bbecb4fdf286336ba7c64736f6c63430008040033",
          "opcodes": "PUSH1 0xA0 PUSH1 0x40 MSTORE CALLVALUE DUP1 ISZERO PUSH3 0x11 JUMPI PUSH1 0x0 DUP1 REVERT JUMPDEST POP PUSH3 0x3D PUSH26 0xC380755CA7F8336FB62250484A62801DD3098A9E48ECE96341BB PUSH3 0xC8 PUSH1 0x20 SHL PUSH1 0x20 SHR JUMP JUMPDEST PUSH1 0x1 DUP2 SWAP1 SSTORE POP PUSH32 0x5F668062BE9682387CD8957F8339033192B55962F2280292C705E5811DD8DF8A PUSH1 0x0 SHL PUSH1 0x80 DUP2 DUP2 MSTORE POP POP PUSH20 0x1F98431C8AD98523631AE4A59F267346EA31F984 PUSH1 0x0 DUP1 PUSH2 0x100 EXP DUP2 SLOAD DUP2 PUSH20 0xFFFFFFFFFFFFFFFFFFFFFFFFFFFFFFFFFFFFFFFF MUL NOT AND SWAP1 DUP4 PUSH20 0xFFFFFFFFFFFFFFFFFFFFFFFFFFFFFFFFFFFFFFFF AND MUL OR SWAP1 SSTORE POP PUSH3 0x334 JUMP JUMPDEST PUSH1 0x0 DUP1 DUP3 CALLER PUSH20 0xFFFFFFFFFFFFFFFFFFFFFFFFFFFFFFFFFFFFFFFF AND DIFFICULTY GASLIMIT TIMESTAMP PUSH3 0xF2 SWAP2 SWAP1 PUSH3 0x28F JUMP JUMPDEST PUSH3 0xFE SWAP2 SWAP1 PUSH3 0x28F JUMP JUMPDEST PUSH3 0x10A SWAP2 SWAP1 PUSH3 0x28F JUMP JUMPDEST PUSH3 0x116 SWAP2 SWAP1 PUSH3 0x28F JUMP JUMPDEST SWAP1 POP PUSH1 0x0 PUSH1 0x20 PUSH8 0xFFFFFFFFFFFFFFFF DUP2 GT ISZERO PUSH3 0x15C JUMPI PUSH32 0x4E487B7100000000000000000000000000000000000000000000000000000000 PUSH1 0x0 MSTORE PUSH1 0x41 PUSH1 0x4 MSTORE PUSH1 0x24 PUSH1 0x0 REVERT JUMPDEST PUSH1 0x40 MLOAD SWAP1 DUP1 DUP3 MSTORE DUP1 PUSH1 0x1F ADD PUSH1 0x1F NOT AND PUSH1 0x20 ADD DUP3 ADD PUSH1 0x40 MSTORE DUP1 ISZERO PUSH3 0x18F JUMPI DUP2 PUSH1 0x20 ADD PUSH1 0x1 DUP3 MUL DUP1 CALLDATASIZE DUP4 CALLDATACOPY DUP1 DUP3 ADD SWAP2 POP POP SWAP1 POP JUMPDEST POP SWAP1 POP PUSH1 0x0 PUSH1 0x1 PUSH1 0x0 PUSH1 0x14 SWAP1 SLOAD SWAP1 PUSH2 0x100 EXP SWAP1 DIV PUSH3 0xFFFFFF AND PUSH3 0x1B4 SWAP2 SWAP1 PUSH3 0x24F JUMP JUMPDEST PUSH3 0xFFFFFF AND SWAP1 POP PUSH3 0xFFFFFF DUP2 ADD DUP4 DUP5 MULMOD SWAP3 POP PUSH1 0x1 PUSH1 0x0 JUMPDEST PUSH1 0x5 DUP2 LT ISZERO PUSH3 0x1F6 JUMPI DUP2 DUP6 DIV DUP3 ADD SWAP2 POP DUP2 PUSH1 0x20 DUP6 ADD MSTORE PUSH1 0x20 DUP1 DUP6 ADD KECCAK256 SWAP2 POP PUSH1 0x1 DUP2 ADD SWAP1 POP PUSH3 0x1CB JUMP JUMPDEST POP DUP1 PUSH1 0x20 DUP5 ADD MSTORE POP PUSH1 0x1 PUSH1 0x0 PUSH1 0x14 DUP3 DUP3 DUP3 SWAP1 SLOAD SWAP1 PUSH2 0x100 EXP SWAP1 DIV PUSH3 0xFFFFFF AND PUSH3 0x221 SWAP2 SWAP1 PUSH3 0x24F JUMP JUMPDEST SWAP3 POP PUSH2 0x100 EXP DUP2 SLOAD DUP2 PUSH3 0xFFFFFF MUL NOT AND SWAP1 DUP4 PUSH3 0xFFFFFF AND MUL OR SWAP1 SSTORE POP DUP2 DUP1 MLOAD SWAP1 PUSH1 0x20 ADD KECCAK256 SWAP4 POP POP POP POP SWAP2 SWAP1 POP JUMP JUMPDEST PUSH1 0x0 PUSH3 0x25C DUP3 PUSH3 0x2EC JUMP JUMPDEST SWAP2 POP PUSH3 0x269 DUP4 PUSH3 0x2EC JUMP JUMPDEST SWAP3 POP DUP3 PUSH3 0xFFFFFF SUB DUP3 GT ISZERO PUSH3 0x284 JUMPI PUSH3 0x283 PUSH3 0x305 JUMP JUMPDEST JUMPDEST DUP3 DUP3 ADD SWAP1 POP SWAP3 SWAP2 POP POP JUMP JUMPDEST PUSH1 0x0 PUSH3 0x29C DUP3 PUSH3 0x2FB JUMP JUMPDEST SWAP2 POP PUSH3 0x2A9 DUP4 PUSH3 0x2FB JUMP JUMPDEST SWAP3 POP DUP3 PUSH32 0xFFFFFFFFFFFFFFFFFFFFFFFFFFFFFFFFFFFFFFFFFFFFFFFFFFFFFFFFFFFFFFFF SUB DUP3 GT ISZERO PUSH3 0x2E1 JUMPI PUSH3 0x2E0 PUSH3 0x305 JUMP JUMPDEST JUMPDEST DUP3 DUP3 ADD SWAP1 POP SWAP3 SWAP2 POP POP JUMP JUMPDEST PUSH1 0x0 PUSH3 0xFFFFFF DUP3 AND SWAP1 POP SWAP2 SWAP1 POP JUMP JUMPDEST PUSH1 0x0 DUP2 SWAP1 POP SWAP2 SWAP1 POP JUMP JUMPDEST PUSH32 0x4E487B7100000000000000000000000000000000000000000000000000000000 PUSH1 0x0 MSTORE PUSH1 0x11 PUSH1 0x4 MSTORE PUSH1 0x24 PUSH1 0x0 REVERT JUMPDEST PUSH1 0x80 MLOAD PUSH2 0xB06 PUSH3 0x350 PUSH1 0x0 CODECOPY PUSH1 0x0 PUSH2 0x48D ADD MSTORE PUSH2 0xB06 PUSH1 0x0 RETURN INVALID PUSH1 0x80 PUSH1 0x40 MSTORE CALLVALUE DUP1 ISZERO PUSH2 0x10 JUMPI PUSH1 0x0 DUP1 REVERT JUMPDEST POP PUSH1 0x4 CALLDATASIZE LT PUSH2 0x57 JUMPI PUSH1 0x0 CALLDATALOAD PUSH1 0xE0 SHR DUP1 PUSH4 0x6BC5216D EQ PUSH2 0x5C JUMPI DUP1 PUSH4 0x7BBD5574 EQ PUSH2 0x78 JUMPI DUP1 PUSH4 0x96AFDD85 EQ PUSH2 0x94 JUMPI DUP1 PUSH4 0x9BB8B171 EQ PUSH2 0xB0 JUMPI DUP1 PUSH4 0xAFFED0E0 EQ PUSH2 0xCC JUMPI JUMPDEST PUSH1 0x0 DUP1 REVERT JUMPDEST PUSH2 0x76 PUSH1 0x4 DUP1 CALLDATASIZE SUB DUP2 ADD SWAP1 PUSH2 0x71 SWAP2 SWAP1 PUSH2 0x6A1 JUMP JUMPDEST PUSH2 0xEA JUMP JUMPDEST STOP JUMPDEST PUSH2 0x92 PUSH1 0x4 DUP1 CALLDATASIZE SUB DUP2 ADD SWAP1 PUSH2 0x8D SWAP2 SWAP1 PUSH2 0x6CA JUMP JUMPDEST PUSH2 0x284 JUMP JUMPDEST STOP JUMPDEST PUSH2 0xAE PUSH1 0x4 DUP1 CALLDATASIZE SUB DUP2 ADD SWAP1 PUSH2 0xA9 SWAP2 SWAP1 PUSH2 0x6A1 JUMP JUMPDEST PUSH2 0x489 JUMP JUMPDEST STOP JUMPDEST PUSH2 0xCA PUSH1 0x4 DUP1 CALLDATASIZE SUB DUP2 ADD SWAP1 PUSH2 0xC5 SWAP2 SWAP1 PUSH2 0x6A1 JUMP JUMPDEST PUSH2 0x56A JUMP JUMPDEST STOP JUMPDEST PUSH2 0xD4 PUSH2 0x62D JUMP JUMPDEST PUSH1 0x40 MLOAD PUSH2 0xE1 SWAP2 SWAP1 PUSH2 0x8C8 JUMP JUMPDEST PUSH1 0x40 MLOAD DUP1 SWAP2 SUB SWAP1 RETURN JUMPDEST PUSH1 0x0 DUP1 PUSH1 0x0 DUP1 SLOAD SWAP1 PUSH2 0x100 EXP SWAP1 DIV PUSH20 0xFFFFFFFFFFFFFFFFFFFFFFFFFFFFFFFFFFFFFFFF AND SWAP1 POP PUSH1 0x0 DUP1 PUSH1 0x14 SWAP1 SLOAD SWAP1 PUSH2 0x100 EXP SWAP1 DIV PUSH3 0xFFFFFF AND PUSH3 0xFFFFFF AND SWAP1 POP PUSH1 0x0 PUSH4 0x22AFCCCB PUSH1 0xE0 SHL PUSH2 0xBB8 PUSH1 0x40 MLOAD PUSH1 0x20 ADD PUSH2 0x148 SWAP3 SWAP2 SWAP1 PUSH2 0x818 JUMP JUMPDEST PUSH1 0x40 MLOAD PUSH1 0x20 DUP2 DUP4 SUB SUB DUP2 MSTORE SWAP1 PUSH1 0x40 MSTORE SWAP1 POP PUSH1 0x0 PUSH1 0x20 PUSH8 0xFFFFFFFFFFFFFFFF DUP2 GT ISZERO PUSH2 0x19C JUMPI PUSH32 0x4E487B7100000000000000000000000000000000000000000000000000000000 PUSH1 0x0 MSTORE PUSH1 0x41 PUSH1 0x4 MSTORE PUSH1 0x24 PUSH1 0x0 REVERT JUMPDEST PUSH1 0x40 MLOAD SWAP1 DUP1 DUP3 MSTORE DUP1 PUSH1 0x1F ADD PUSH1 0x1F NOT AND PUSH1 0x20 ADD DUP3 ADD PUSH1 0x40 MSTORE DUP1 ISZERO PUSH2 0x1CE JUMPI DUP2 PUSH1 0x20 ADD PUSH1 0x1 DUP3 MUL DUP1 CALLDATASIZE DUP4 CALLDATACOPY DUP1 DUP3 ADD SWAP2 POP POP SWAP1 POP JUMPDEST POP SWAP1 POP PUSH1 0x0 SLOAD SWAP5 POP PUSH1 0x20 DUP2 ADD PUSH1 0x20 DUP2 PUSH1 0x24 PUSH1 0x20 DUP7 ADD PUSH1 0x0 DUP10 GAS CALL POP DUP1 MLOAD DUP5 DUP2 DUP9 ADD ADD DUP3 MSTORE PUSH1 0x20 DUP3 KECCAK256 SWAP7 POP POP POP DUP5 PUSH1 0x0 SHL DUP7 EQ PUSH2 0x23F JUMPI PUSH1 0x40 MLOAD PUSH32 0x8C379A000000000000000000000000000000000000000000000000000000000 DUP2 MSTORE PUSH1 0x4 ADD PUSH2 0x236 SWAP1 PUSH2 0x8A8 JUMP JUMPDEST PUSH1 0x40 MLOAD DUP1 SWAP2 SUB SWAP1 REVERT JUMPDEST PUSH1 0x1 PUSH1 0x0 PUSH1 0x14 DUP3 DUP3 DUP3 SWAP1 SLOAD SWAP1 PUSH2 0x100 EXP SWAP1 DIV PUSH3 0xFFFFFF AND PUSH2 0x260 SWAP2 SWAP1 PUSH2 0x926 JUMP JUMPDEST SWAP3 POP PUSH2 0x100 EXP DUP2 SLOAD DUP2 PUSH3 0xFFFFFF MUL NOT AND SWAP1 DUP4 PUSH3 0xFFFFFF AND MUL OR SWAP1 SSTORE POP POP POP POP POP POP POP JUMP JUMPDEST PUSH1 0x0 ADDRESS PUSH20 0xFFFFFFFFFFFFFFFFFFFFFFFFFFFFFFFFFFFFFFFF AND PUSH4 0x6BC5216D DUP6 PUSH1 0x40 MLOAD DUP3 PUSH4 0xFFFFFFFF AND PUSH1 0xE0 SHL DUP2 MSTORE PUSH1 0x4 ADD PUSH2 0x2BF SWAP2 SWAP1 PUSH2 0x844 JUMP JUMPDEST PUSH1 0x0 PUSH1 0x40 MLOAD DUP1 DUP4 SUB DUP2 PUSH1 0x0 DUP8 DUP1 EXTCODESIZE ISZERO DUP1 ISZERO PUSH2 0x2D9 JUMPI PUSH1 0x0 DUP1 REVERT JUMPDEST POP GAS CALL SWAP3 POP POP POP DUP1 ISZERO PUSH2 0x2EA JUMPI POP PUSH1 0x1 JUMPDEST PUSH2 0x2F3 JUMPI PUSH2 0x303 JUMP JUMPDEST PUSH1 0x1 DUP2 PUSH2 0x300 SWAP2 SWAP1 PUSH2 0x95F JUMP JUMPDEST SWAP1 POP JUMPDEST ADDRESS PUSH20 0xFFFFFFFFFFFFFFFFFFFFFFFFFFFFFFFFFFFFFFFF AND PUSH4 0x9BB8B171 DUP5 PUSH1 0x40 MLOAD DUP3 PUSH4 0xFFFFFFFF AND PUSH1 0xE0 SHL DUP2 MSTORE PUSH1 0x4 ADD PUSH2 0x33C SWAP2 SWAP1 PUSH2 0x844 JUMP JUMPDEST PUSH1 0x0 PUSH1 0x40 MLOAD DUP1 DUP4 SUB DUP2 PUSH1 0x0 DUP8 DUP1 EXTCODESIZE ISZERO DUP1 ISZERO PUSH2 0x356 JUMPI PUSH1 0x0 DUP1 REVERT JUMPDEST POP GAS CALL SWAP3 POP POP POP DUP1 ISZERO PUSH2 0x367 JUMPI POP PUSH1 0x1 JUMPDEST PUSH2 0x370 JUMPI PUSH2 0x380 JUMP JUMPDEST PUSH1 0x1 DUP2 PUSH2 0x37D SWAP2 SWAP1 PUSH2 0x95F JUMP JUMPDEST SWAP1 POP JUMPDEST ADDRESS PUSH20 0xFFFFFFFFFFFFFFFFFFFFFFFFFFFFFFFFFFFFFFFF AND PUSH4 0x96AFDD85 DUP4 PUSH1 0x40 MLOAD DUP3 PUSH4 0xFFFFFFFF AND PUSH1 0xE0 SHL DUP2 MSTORE PUSH1 0x4 ADD PUSH2 0x3B9 SWAP2 SWAP1 PUSH2 0x844 JUMP JUMPDEST PUSH1 0x0 PUSH1 0x40 MLOAD DUP1 DUP4 SUB DUP2 PUSH1 0x0 DUP8 DUP1 EXTCODESIZE ISZERO DUP1 ISZERO PUSH2 0x3D3 JUMPI PUSH1 0x0 DUP1 REVERT JUMPDEST POP GAS CALL SWAP3 POP POP POP DUP1 ISZERO PUSH2 0x3E4 JUMPI POP PUSH1 0x1 JUMPDEST PUSH2 0x3ED JUMPI PUSH2 0x3FD JUMP JUMPDEST PUSH1 0x1 DUP2 PUSH2 0x3FA SWAP2 SWAP1 PUSH2 0x95F JUMP JUMPDEST SWAP1 POP JUMPDEST PUSH1 0x1 DUP2 GT ISZERO PUSH2 0x446 JUMPI PUSH32 0xB6462DA34C0AFF9A2CB2CC08F8D1F1A4DDF770FBB563E8F3B40EB6C5BB91DEF4 DUP2 DUP8 DUP8 PUSH1 0x40 MLOAD PUSH2 0x439 SWAP4 SWAP3 SWAP2 SWAP1 PUSH2 0x8E3 JUMP JUMPDEST PUSH1 0x40 MLOAD DUP1 SWAP2 SUB SWAP1 LOG1 PUSH2 0x481 JUMP JUMPDEST PUSH1 0x40 MLOAD PUSH32 0x8C379A000000000000000000000000000000000000000000000000000000000 DUP2 MSTORE PUSH1 0x4 ADD PUSH2 0x478 SWAP1 PUSH2 0x888 JUMP JUMPDEST PUSH1 0x40 MLOAD DUP1 SWAP2 SUB SWAP1 REVERT JUMPDEST POP POP POP POP POP POP JUMP JUMPDEST PUSH1 0x0 PUSH32 0x0 SWAP1 POP DUP1 PUSH1 0x0 PUSH1 0x14 SWAP1 SLOAD SWAP1 PUSH2 0x100 EXP SWAP1 DIV PUSH3 0xFFFFFF AND PUSH1 0x40 MLOAD PUSH1 0x20 ADD PUSH2 0x4D2 SWAP3 SWAP2 SWAP1 PUSH2 0x85F JUMP JUMPDEST PUSH1 0x40 MLOAD PUSH1 0x20 DUP2 DUP4 SUB SUB DUP2 MSTORE SWAP1 PUSH1 0x40 MSTORE DUP1 MLOAD SWAP1 PUSH1 0x20 ADD KECCAK256 DUP3 EQ PUSH2 0x529 JUMPI PUSH1 0x40 MLOAD PUSH32 0x8C379A000000000000000000000000000000000000000000000000000000000 DUP2 MSTORE PUSH1 0x4 ADD PUSH2 0x520 SWAP1 PUSH2 0x8A8 JUMP JUMPDEST PUSH1 0x40 MLOAD DUP1 SWAP2 SUB SWAP1 REVERT JUMPDEST PUSH1 0x1 PUSH1 0x0 PUSH1 0x14 DUP3 DUP3 DUP3 SWAP1 SLOAD SWAP1 PUSH2 0x100 EXP SWAP1 DIV PUSH3 0xFFFFFF AND PUSH2 0x54A SWAP2 SWAP1 PUSH2 0x926 JUMP JUMPDEST SWAP3 POP PUSH2 0x100 EXP DUP2 SLOAD DUP2 PUSH3 0xFFFFFF MUL NOT AND SWAP1 DUP4 PUSH3 0xFFFFFF AND MUL OR SWAP1 SSTORE POP POP POP JUMP JUMPDEST PUSH1 0x0 PUSH1 0x1 SLOAD SWAP1 POP DUP1 PUSH1 0x0 PUSH1 0x14 SWAP1 SLOAD SWAP1 PUSH2 0x100 EXP SWAP1 DIV PUSH3 0xFFFFFF AND PUSH1 0x40 MLOAD PUSH1 0x20 ADD PUSH2 0x595 SWAP3 SWAP2 SWAP1 PUSH2 0x85F JUMP JUMPDEST PUSH1 0x40 MLOAD PUSH1 0x20 DUP2 DUP4 SUB SUB DUP2 MSTORE SWAP1 PUSH1 0x40 MSTORE DUP1 MLOAD SWAP1 PUSH1 0x20 ADD KECCAK256 DUP3 EQ PUSH2 0x5EC JUMPI PUSH1 0x40 MLOAD PUSH32 0x8C379A000000000000000000000000000000000000000000000000000000000 DUP2 MSTORE PUSH1 0x4 ADD PUSH2 0x5E3 SWAP1 PUSH2 0x8A8 JUMP JUMPDEST PUSH1 0x40 MLOAD DUP1 SWAP2 SUB SWAP1 REVERT JUMPDEST PUSH1 0x1 PUSH1 0x0 PUSH1 0x14 DUP3 DUP3 DUP3 SWAP1 SLOAD SWAP1 PUSH2 0x100 EXP SWAP1 DIV PUSH3 0xFFFFFF AND PUSH2 0x60D SWAP2 SWAP1 PUSH2 0x926 JUMP JUMPDEST SWAP3 POP PUSH2 0x100 EXP DUP2 SLOAD DUP2 PUSH3 0xFFFFFF MUL NOT AND SWAP1 DUP4 PUSH3 0xFFFFFF AND MUL OR SWAP1 SSTORE POP POP POP JUMP JUMPDEST PUSH1 0x0 PUSH1 0x14 SWAP1 SLOAD SWAP1 PUSH2 0x100 EXP SWAP1 DIV PUSH3 0xFFFFFF AND DUP2 JUMP JUMPDEST PUSH1 0x0 DUP2 CALLDATALOAD SWAP1 POP PUSH2 0x651 DUP2 PUSH2 0xAB9 JUMP JUMPDEST SWAP3 SWAP2 POP POP JUMP JUMPDEST PUSH1 0x0 DUP1 DUP4 PUSH1 0x1F DUP5 ADD SLT PUSH2 0x669 JUMPI PUSH1 0x0 DUP1 REVERT JUMPDEST DUP3 CALLDATALOAD SWAP1 POP PUSH8 0xFFFFFFFFFFFFFFFF DUP2 GT ISZERO PUSH2 0x682 JUMPI PUSH1 0x0 DUP1 REVERT JUMPDEST PUSH1 0x20 DUP4 ADD SWAP2 POP DUP4 PUSH1 0x1 DUP3 MUL DUP4 ADD GT ISZERO PUSH2 0x69A JUMPI PUSH1 0x0 DUP1 REVERT JUMPDEST SWAP3 POP SWAP3 SWAP1 POP JUMP JUMPDEST PUSH1 0x0 PUSH1 0x20 DUP3 DUP5 SUB SLT ISZERO PUSH2 0x6B3 JUMPI PUSH1 0x0 DUP1 REVERT JUMPDEST PUSH1 0x0 PUSH2 0x6C1 DUP5 DUP3 DUP6 ADD PUSH2 0x642 JUMP JUMPDEST SWAP2 POP POP SWAP3 SWAP2 POP POP JUMP JUMPDEST PUSH1 0x0 DUP1 PUSH1 0x0 DUP1 PUSH1 0x0 PUSH1 0x80 DUP7 DUP9 SUB SLT ISZERO PUSH2 0x6E2 JUMPI PUSH1 0x0 DUP1 REVERT JUMPDEST PUSH1 0x0 DUP7 ADD CALLDATALOAD PUSH8 0xFFFFFFFFFFFFFFFF DUP2 GT ISZERO PUSH2 0x6FC JUMPI PUSH1 0x0 DUP1 REVERT JUMPDEST PUSH2 0x708 DUP9 DUP3 DUP10 ADD PUSH2 0x657 JUMP JUMPDEST SWAP6 POP SWAP6 POP POP PUSH1 0x20 PUSH2 0x71B DUP9 DUP3 DUP10 ADD PUSH2 0x642 JUMP JUMPDEST SWAP4 POP POP PUSH1 0x40 PUSH2 0x72C DUP9 DUP3 DUP10 ADD PUSH2 0x642 JUMP JUMPDEST SWAP3 POP POP PUSH1 0x60 PUSH2 0x73D DUP9 DUP3 DUP10 ADD PUSH2 0x642 JUMP JUMPDEST SWAP2 POP POP SWAP3 SWAP6 POP SWAP3 SWAP6 SWAP1 SWAP4 POP JUMP JUMPDEST PUSH2 0x753 DUP2 PUSH2 0x9B5 JUMP JUMPDEST DUP3 MSTORE POP POP JUMP JUMPDEST PUSH2 0x76A PUSH2 0x765 DUP3 PUSH2 0x9BF JUMP JUMPDEST PUSH2 0xA13 JUMP JUMPDEST DUP3 MSTORE POP POP JUMP JUMPDEST PUSH1 0x0 PUSH2 0x77C DUP4 DUP6 PUSH2 0x915 JUMP JUMPDEST SWAP4 POP PUSH2 0x789 DUP4 DUP6 DUP5 PUSH2 0xA04 JUMP JUMPDEST PUSH2 0x792 DUP4 PUSH2 0xA56 JUMP JUMPDEST DUP5 ADD SWAP1 POP SWAP4 SWAP3 POP POP POP JUMP JUMPDEST PUSH1 0x0 PUSH2 0x7AA PUSH1 0x10 DUP4 PUSH2 0x915 JUMP JUMPDEST SWAP2 POP PUSH2 0x7B5 DUP3 PUSH2 0xA67 JUMP JUMPDEST PUSH1 0x20 DUP3 ADD SWAP1 POP SWAP2 SWAP1 POP JUMP JUMPDEST PUSH1 0x0 PUSH2 0x7CD PUSH1 0x9 DUP4 PUSH2 0x915 JUMP JUMPDEST SWAP2 POP PUSH2 0x7D8 DUP3 PUSH2 0xA90 JUMP JUMPDEST PUSH1 0x20 DUP3 ADD SWAP1 POP SWAP2 SWAP1 POP JUMP JUMPDEST PUSH2 0x7EC DUP2 PUSH2 0x9EB JUMP JUMPDEST DUP3 MSTORE POP POP JUMP JUMPDEST PUSH2 0x7FB DUP2 PUSH2 0x9FA JUMP JUMPDEST DUP3 MSTORE POP POP JUMP JUMPDEST PUSH2 0x812 PUSH2 0x80D DUP3 PUSH2 0x9FA JUMP JUMPDEST PUSH2 0xA1D JUMP JUMPDEST DUP3 MSTORE POP POP JUMP JUMPDEST PUSH1 0x0 PUSH2 0x824 DUP3 DUP6 PUSH2 0x759 JUMP JUMPDEST PUSH1 0x4 DUP3 ADD SWAP2 POP PUSH2 0x834 DUP3 DUP5 PUSH2 0x801 JUMP JUMPDEST PUSH1 0x20 DUP3 ADD SWAP2 POP DUP2 SWAP1 POP SWAP4 SWAP3 POP POP POP JUMP JUMPDEST PUSH1 0x0 PUSH1 0x20 DUP3 ADD SWAP1 POP PUSH2 0x859 PUSH1 0x0 DUP4 ADD DUP5 PUSH2 0x74A JUMP JUMPDEST SWAP3 SWAP2 POP POP JUMP JUMPDEST PUSH1 0x0 PUSH1 0x40 DUP3 ADD SWAP1 POP PUSH2 0x874 PUSH1 0x0 DUP4 ADD DUP6 PUSH2 0x74A JUMP JUMPDEST PUSH2 0x881 PUSH1 0x20 DUP4 ADD DUP5 PUSH2 0x7E3 JUMP JUMPDEST SWAP4 SWAP3 POP POP POP JUMP JUMPDEST PUSH1 0x0 PUSH1 0x20 DUP3 ADD SWAP1 POP DUP2 DUP2 SUB PUSH1 0x0 DUP4 ADD MSTORE PUSH2 0x8A1 DUP2 PUSH2 0x79D JUMP JUMPDEST SWAP1 POP SWAP2 SWAP1 POP JUMP JUMPDEST PUSH1 0x0 PUSH1 0x20 DUP3 ADD SWAP1 POP DUP2 DUP2 SUB PUSH1 0x0 DUP4 ADD MSTORE PUSH2 0x8C1 DUP2 PUSH2 0x7C0 JUMP JUMPDEST SWAP1 POP SWAP2 SWAP1 POP JUMP JUMPDEST PUSH1 0x0 PUSH1 0x20 DUP3 ADD SWAP1 POP PUSH2 0x8DD PUSH1 0x0 DUP4 ADD DUP5 PUSH2 0x7E3 JUMP JUMPDEST SWAP3 SWAP2 POP POP JUMP JUMPDEST PUSH1 0x0 PUSH1 0x40 DUP3 ADD SWAP1 POP PUSH2 0x8F8 PUSH1 0x0 DUP4 ADD DUP7 PUSH2 0x7F2 JUMP JUMPDEST DUP2 DUP2 SUB PUSH1 0x20 DUP4 ADD MSTORE PUSH2 0x90B DUP2 DUP5 DUP7 PUSH2 0x770 JUMP JUMPDEST SWAP1 POP SWAP5 SWAP4 POP POP POP POP JUMP JUMPDEST PUSH1 0x0 DUP3 DUP3 MSTORE PUSH1 0x20 DUP3 ADD SWAP1 POP SWAP3 SWAP2 POP POP JUMP JUMPDEST PUSH1 0x0 PUSH2 0x931 DUP3 PUSH2 0x9EB JUMP JUMPDEST SWAP2 POP PUSH2 0x93C DUP4 PUSH2 0x9EB JUMP JUMPDEST SWAP3 POP DUP3 PUSH3 0xFFFFFF SUB DUP3 GT ISZERO PUSH2 0x954 JUMPI PUSH2 0x953 PUSH2 0xA27 JUMP JUMPDEST JUMPDEST DUP3 DUP3 ADD SWAP1 POP SWAP3 SWAP2 POP POP JUMP JUMPDEST PUSH1 0x0 PUSH2 0x96A DUP3 PUSH2 0x9FA JUMP JUMPDEST SWAP2 POP PUSH2 0x975 DUP4 PUSH2 0x9FA JUMP JUMPDEST SWAP3 POP DUP3 PUSH32 0xFFFFFFFFFFFFFFFFFFFFFFFFFFFFFFFFFFFFFFFFFFFFFFFFFFFFFFFFFFFFFFFF SUB DUP3 GT ISZERO PUSH2 0x9AA JUMPI PUSH2 0x9A9 PUSH2 0xA27 JUMP JUMPDEST JUMPDEST DUP3 DUP3 ADD SWAP1 POP SWAP3 SWAP2 POP POP JUMP JUMPDEST PUSH1 0x0 DUP2 SWAP1 POP SWAP2 SWAP1 POP JUMP JUMPDEST PUSH1 0x0 PUSH32 0xFFFFFFFF00000000000000000000000000000000000000000000000000000000 DUP3 AND SWAP1 POP SWAP2 SWAP1 POP JUMP JUMPDEST PUSH1 0x0 PUSH3 0xFFFFFF DUP3 AND SWAP1 POP SWAP2 SWAP1 POP JUMP JUMPDEST PUSH1 0x0 DUP2 SWAP1 POP SWAP2 SWAP1 POP JUMP JUMPDEST DUP3 DUP2 DUP4 CALLDATACOPY PUSH1 0x0 DUP4 DUP4 ADD MSTORE POP POP POP JUMP JUMPDEST PUSH1 0x0 DUP2 SWAP1 POP SWAP2 SWAP1 POP JUMP JUMPDEST PUSH1 0x0 DUP2 SWAP1 POP SWAP2 SWAP1 POP JUMP JUMPDEST PUSH32 0x4E487B7100000000000000000000000000000000000000000000000000000000 PUSH1 0x0 MSTORE PUSH1 0x11 PUSH1 0x4 MSTORE PUSH1 0x24 PUSH1 0x0 REVERT JUMPDEST PUSH1 0x0 PUSH1 0x1F NOT PUSH1 0x1F DUP4 ADD AND SWAP1 POP SWAP2 SWAP1 POP JUMP JUMPDEST PUSH32 0x53636F726520697320746F6F206C6F7700000000000000000000000000000000 PUSH1 0x0 DUP3 ADD MSTORE POP JUMP JUMPDEST PUSH32 0x466F7262696464656E0000000000000000000000000000000000000000000000 PUSH1 0x0 DUP3 ADD MSTORE POP JUMP JUMPDEST PUSH2 0xAC2 DUP2 PUSH2 0x9B5 JUMP JUMPDEST DUP2 EQ PUSH2 0xACD JUMPI PUSH1 0x0 DUP1 REVERT JUMPDEST POP JUMP INVALID LOG2 PUSH5 0x6970667358 0x22 SLT KECCAK256 CODESIZE 0xAB SAR ORIGIN 0xE5 0xA8 LOG1 SWAP3 0xAC SGT 0xA9 DUP9 SAR 0xD7 0xB3 0x2B PUSH29 0x30B18F83BB1BBECB4FDF286336BA7C64736F6C63430008040033000000 "
        },
        "methodIdentifiers": {
          "nonce()": "affed0e0",
          "secret1(bytes32)": "6bc5216d",
          "secret2(bytes32)": "9bb8b171",
          "secret3(bytes32)": "96afdd85",
          "submitApplication(string,bytes32,bytes32,bytes32)": "7bbd5574"
        }
      }
    }
  }
}